{
  "contractName": "CryFiToken",
  "abi": [
    {
      "inputs": [
        {
          "internalType": "address",
          "name": "_dexRouter",
          "type": "address"
        }
      ],
      "stateMutability": "nonpayable",
      "type": "constructor"
    },
    {
      "anonymous": false,
      "inputs": [
        {
          "indexed": true,
          "internalType": "address",
          "name": "owner",
          "type": "address"
        },
        {
          "indexed": true,
          "internalType": "address",
          "name": "spender",
          "type": "address"
        },
        {
          "indexed": false,
          "internalType": "uint256",
          "name": "value",
          "type": "uint256"
        }
      ],
      "name": "Approval",
      "type": "event"
    },
    {
      "anonymous": false,
      "inputs": [
        {
          "indexed": false,
          "internalType": "uint256",
          "name": "amountBNB",
          "type": "uint256"
        },
        {
          "indexed": false,
          "internalType": "uint256",
          "name": "amountBOG",
          "type": "uint256"
        }
      ],
      "name": "AutoLiquify",
      "type": "event"
    },
    {
      "anonymous": false,
      "inputs": [
        {
          "indexed": false,
          "internalType": "uint256",
          "name": "duration",
          "type": "uint256"
        }
      ],
      "name": "BuybackMultiplierActive",
      "type": "event"
    },
    {
      "anonymous": false,
      "inputs": [
        {
          "indexed": false,
          "internalType": "address",
          "name": "owner",
          "type": "address"
        }
      ],
      "name": "OwnershipTransferred",
      "type": "event"
    },
    {
      "anonymous": false,
      "inputs": [
        {
          "indexed": true,
          "internalType": "address",
          "name": "from",
          "type": "address"
        },
        {
          "indexed": true,
          "internalType": "address",
          "name": "to",
          "type": "address"
        },
        {
          "indexed": false,
          "internalType": "uint256",
          "name": "value",
          "type": "uint256"
        }
      ],
      "name": "Transfer",
      "type": "event"
    },
    {
      "inputs": [],
      "name": "MASK",
      "outputs": [
        {
          "internalType": "uint256",
          "name": "",
          "type": "uint256"
        }
      ],
      "stateMutability": "view",
      "type": "function"
    },
    {
      "inputs": [],
      "name": "WBNB",
      "outputs": [
        {
          "internalType": "address",
          "name": "",
          "type": "address"
        }
      ],
      "stateMutability": "view",
      "type": "function"
    },
    {
      "inputs": [],
      "name": "_maxTxAmount",
      "outputs": [
        {
          "internalType": "uint256",
          "name": "",
          "type": "uint256"
        }
      ],
      "stateMutability": "view",
      "type": "function"
    },
    {
      "inputs": [
        {
          "internalType": "address",
          "name": "adr",
          "type": "address"
        }
      ],
      "name": "authorize",
      "outputs": [],
      "stateMutability": "nonpayable",
      "type": "function"
    },
    {
      "inputs": [],
      "name": "autoBuybackEnabled",
      "outputs": [
        {
          "internalType": "bool",
          "name": "",
          "type": "bool"
        }
      ],
      "stateMutability": "view",
      "type": "function"
    },
    {
      "inputs": [],
      "name": "autoLiquidityReceiver",
      "outputs": [
        {
          "internalType": "address",
          "name": "",
          "type": "address"
        }
      ],
      "stateMutability": "view",
      "type": "function"
    },
    {
      "inputs": [],
      "name": "distributorAddress",
      "outputs": [
        {
          "internalType": "address",
          "name": "",
          "type": "address"
        }
      ],
      "stateMutability": "view",
      "type": "function"
    },
    {
      "inputs": [
        {
          "internalType": "address",
          "name": "adr",
          "type": "address"
        }
      ],
      "name": "isAuthorized",
      "outputs": [
        {
          "internalType": "bool",
          "name": "",
          "type": "bool"
        }
      ],
      "stateMutability": "view",
      "type": "function"
    },
    {
      "inputs": [
        {
          "internalType": "address",
          "name": "account",
          "type": "address"
        }
      ],
      "name": "isOwner",
      "outputs": [
        {
          "internalType": "bool",
          "name": "",
          "type": "bool"
        }
      ],
      "stateMutability": "view",
      "type": "function"
    },
    {
      "inputs": [],
      "name": "launchedAt",
      "outputs": [
        {
          "internalType": "uint256",
          "name": "",
          "type": "uint256"
        }
      ],
      "stateMutability": "view",
      "type": "function"
    },
    {
      "inputs": [],
      "name": "launchedAtTimestamp",
      "outputs": [
        {
          "internalType": "uint256",
          "name": "",
          "type": "uint256"
        }
      ],
      "stateMutability": "view",
      "type": "function"
    },
    {
      "inputs": [],
      "name": "marketingFeeReceiver",
      "outputs": [
        {
          "internalType": "address",
          "name": "",
          "type": "address"
        }
      ],
      "stateMutability": "view",
      "type": "function"
    },
    {
      "inputs": [],
      "name": "pair",
      "outputs": [
        {
          "internalType": "address",
          "name": "",
          "type": "address"
        }
      ],
      "stateMutability": "view",
      "type": "function"
    },
    {
      "inputs": [],
      "name": "router",
      "outputs": [
        {
          "internalType": "contract IDEXRouter",
          "name": "",
          "type": "address"
        }
      ],
      "stateMutability": "view",
      "type": "function"
    },
    {
      "inputs": [],
      "name": "swapEnabled",
      "outputs": [
        {
          "internalType": "bool",
          "name": "",
          "type": "bool"
        }
      ],
      "stateMutability": "view",
      "type": "function"
    },
    {
      "inputs": [],
      "name": "swapThreshold",
      "outputs": [
        {
          "internalType": "uint256",
          "name": "",
          "type": "uint256"
        }
      ],
      "stateMutability": "view",
      "type": "function"
    },
    {
      "inputs": [
        {
          "internalType": "address payable",
          "name": "adr",
          "type": "address"
        }
      ],
      "name": "transferOwnership",
      "outputs": [],
      "stateMutability": "nonpayable",
      "type": "function"
    },
    {
      "inputs": [
        {
          "internalType": "address",
          "name": "adr",
          "type": "address"
        }
      ],
      "name": "unauthorize",
      "outputs": [],
      "stateMutability": "nonpayable",
      "type": "function"
    },
    {
      "stateMutability": "payable",
      "type": "receive"
    },
    {
      "inputs": [],
      "name": "totalSupply",
      "outputs": [
        {
          "internalType": "uint256",
          "name": "",
          "type": "uint256"
        }
      ],
      "stateMutability": "view",
      "type": "function"
    },
    {
      "inputs": [],
      "name": "decimals",
      "outputs": [
        {
          "internalType": "uint8",
          "name": "",
          "type": "uint8"
        }
      ],
      "stateMutability": "pure",
      "type": "function"
    },
    {
      "inputs": [],
      "name": "symbol",
      "outputs": [
        {
          "internalType": "string",
          "name": "",
          "type": "string"
        }
      ],
      "stateMutability": "pure",
      "type": "function"
    },
    {
      "inputs": [],
      "name": "name",
      "outputs": [
        {
          "internalType": "string",
          "name": "",
          "type": "string"
        }
      ],
      "stateMutability": "pure",
      "type": "function"
    },
    {
      "inputs": [],
      "name": "getOwner",
      "outputs": [
        {
          "internalType": "address",
          "name": "",
          "type": "address"
        }
      ],
      "stateMutability": "view",
      "type": "function"
    },
    {
      "inputs": [
        {
          "internalType": "address",
          "name": "account",
          "type": "address"
        }
      ],
      "name": "balanceOf",
      "outputs": [
        {
          "internalType": "uint256",
          "name": "",
          "type": "uint256"
        }
      ],
      "stateMutability": "view",
      "type": "function"
    },
    {
      "inputs": [
        {
          "internalType": "address",
          "name": "holder",
          "type": "address"
        },
        {
          "internalType": "address",
          "name": "spender",
          "type": "address"
        }
      ],
      "name": "allowance",
      "outputs": [
        {
          "internalType": "uint256",
          "name": "",
          "type": "uint256"
        }
      ],
      "stateMutability": "view",
      "type": "function"
    },
    {
      "inputs": [
        {
          "internalType": "address",
          "name": "spender",
          "type": "address"
        },
        {
          "internalType": "uint256",
          "name": "amount",
          "type": "uint256"
        }
      ],
      "name": "approve",
      "outputs": [
        {
          "internalType": "bool",
          "name": "",
          "type": "bool"
        }
      ],
      "stateMutability": "nonpayable",
      "type": "function"
    },
    {
      "inputs": [
        {
          "internalType": "address",
          "name": "spender",
          "type": "address"
        }
      ],
      "name": "approveMax",
      "outputs": [
        {
          "internalType": "bool",
          "name": "",
          "type": "bool"
        }
      ],
      "stateMutability": "nonpayable",
      "type": "function"
    },
    {
      "inputs": [
        {
          "internalType": "address",
          "name": "recipient",
          "type": "address"
        },
        {
          "internalType": "uint256",
          "name": "amount",
          "type": "uint256"
        }
      ],
      "name": "transfer",
      "outputs": [
        {
          "internalType": "bool",
          "name": "",
          "type": "bool"
        }
      ],
      "stateMutability": "nonpayable",
      "type": "function"
    },
    {
      "inputs": [
        {
          "internalType": "address",
          "name": "sender",
          "type": "address"
        },
        {
          "internalType": "address",
          "name": "recipient",
          "type": "address"
        },
        {
          "internalType": "uint256",
          "name": "amount",
          "type": "uint256"
        }
      ],
      "name": "transferFrom",
      "outputs": [
        {
          "internalType": "bool",
          "name": "",
          "type": "bool"
        }
      ],
      "stateMutability": "nonpayable",
      "type": "function"
    },
    {
      "inputs": [
        {
          "internalType": "bool",
          "name": "selling",
          "type": "bool"
        }
      ],
      "name": "getTotalFee",
      "outputs": [
        {
          "internalType": "uint256",
          "name": "",
          "type": "uint256"
        }
      ],
      "stateMutability": "view",
      "type": "function"
    },
    {
      "inputs": [],
      "name": "getMultipliedFee",
      "outputs": [
        {
          "internalType": "uint256",
          "name": "",
          "type": "uint256"
        }
      ],
      "stateMutability": "view",
      "type": "function"
    },
    {
      "inputs": [
        {
          "internalType": "uint256",
          "name": "amount",
          "type": "uint256"
        },
        {
          "internalType": "bool",
          "name": "triggerBuybackMultiplier",
          "type": "bool"
        }
      ],
      "name": "triggerZeusBuyback",
      "outputs": [],
      "stateMutability": "nonpayable",
      "type": "function"
    },
    {
      "inputs": [],
      "name": "clearBuybackMultiplier",
      "outputs": [],
      "stateMutability": "nonpayable",
      "type": "function"
    },
    {
      "inputs": [
        {
          "internalType": "bool",
          "name": "_enabled",
          "type": "bool"
        },
        {
          "internalType": "uint256",
          "name": "_cap",
          "type": "uint256"
        },
        {
          "internalType": "uint256",
          "name": "_amount",
          "type": "uint256"
        },
        {
          "internalType": "uint256",
          "name": "_period",
          "type": "uint256"
        }
      ],
      "name": "setAutoBuybackSettings",
      "outputs": [],
      "stateMutability": "nonpayable",
      "type": "function"
    },
    {
      "inputs": [
        {
          "internalType": "uint256",
          "name": "numerator",
          "type": "uint256"
        },
        {
          "internalType": "uint256",
          "name": "denominator",
          "type": "uint256"
        },
        {
          "internalType": "uint256",
          "name": "length",
          "type": "uint256"
        }
      ],
      "name": "setBuybackMultiplierSettings",
      "outputs": [],
      "stateMutability": "nonpayable",
      "type": "function"
    },
    {
      "inputs": [],
      "name": "launch",
      "outputs": [],
      "stateMutability": "nonpayable",
      "type": "function"
    },
    {
      "inputs": [
        {
          "internalType": "uint256",
          "name": "amount",
          "type": "uint256"
        }
      ],
      "name": "setTxLimit",
      "outputs": [],
      "stateMutability": "nonpayable",
      "type": "function"
    },
    {
      "inputs": [
        {
          "internalType": "address",
          "name": "_receiver",
          "type": "address"
        }
      ],
      "name": "clearStuckBalance",
      "outputs": [],
      "stateMutability": "nonpayable",
      "type": "function"
    },
    {
      "inputs": [
        {
          "internalType": "address",
          "name": "tokenAddress",
          "type": "address"
        },
        {
          "internalType": "uint256",
          "name": "tokens",
          "type": "uint256"
        }
      ],
      "name": "rescueToken",
      "outputs": [
        {
          "internalType": "bool",
          "name": "success",
          "type": "bool"
        }
      ],
      "stateMutability": "nonpayable",
      "type": "function"
    },
    {
      "inputs": [
        {
          "internalType": "address",
          "name": "holder",
          "type": "address"
        },
        {
          "internalType": "bool",
          "name": "exempt",
          "type": "bool"
        }
      ],
      "name": "setIsDividendExempt",
      "outputs": [],
      "stateMutability": "nonpayable",
      "type": "function"
    },
    {
      "inputs": [
        {
          "internalType": "address",
          "name": "holder",
          "type": "address"
        },
        {
          "internalType": "bool",
          "name": "exempt",
          "type": "bool"
        }
      ],
      "name": "setIsFeeExempt",
      "outputs": [],
      "stateMutability": "nonpayable",
      "type": "function"
    },
    {
      "inputs": [
        {
          "internalType": "address",
          "name": "holder",
          "type": "address"
        },
        {
          "internalType": "bool",
          "name": "exempt",
          "type": "bool"
        }
      ],
      "name": "setIsTxLimitExempt",
      "outputs": [],
      "stateMutability": "nonpayable",
      "type": "function"
    },
    {
      "inputs": [
        {
          "internalType": "uint256",
          "name": "_liquidityFee",
          "type": "uint256"
        },
        {
          "internalType": "uint256",
          "name": "_buybackFee",
          "type": "uint256"
        },
        {
          "internalType": "uint256",
          "name": "_reflectionFee",
          "type": "uint256"
        },
        {
          "internalType": "uint256",
          "name": "_marketingFee",
          "type": "uint256"
        },
        {
          "internalType": "uint256",
          "name": "_feeDenominator",
          "type": "uint256"
        }
      ],
      "name": "setFees",
      "outputs": [],
      "stateMutability": "nonpayable",
      "type": "function"
    },
    {
      "inputs": [
        {
          "internalType": "address",
          "name": "_autoLiquidityReceiver",
          "type": "address"
        },
        {
          "internalType": "address",
          "name": "_marketingFeeReceiver",
          "type": "address"
        }
      ],
      "name": "setFeeReceivers",
      "outputs": [],
      "stateMutability": "nonpayable",
      "type": "function"
    },
    {
      "inputs": [
        {
          "internalType": "bool",
          "name": "_enabled",
          "type": "bool"
        },
        {
          "internalType": "uint256",
          "name": "_amount",
          "type": "uint256"
        }
      ],
      "name": "setSwapBackSettings",
      "outputs": [],
      "stateMutability": "nonpayable",
      "type": "function"
    },
    {
      "inputs": [
        {
          "internalType": "uint256",
          "name": "_target",
          "type": "uint256"
        },
        {
          "internalType": "uint256",
          "name": "_denominator",
          "type": "uint256"
        }
      ],
      "name": "setTargetLiquidity",
      "outputs": [],
      "stateMutability": "nonpayable",
      "type": "function"
    },
    {
      "inputs": [
        {
          "internalType": "uint256",
          "name": "gas",
          "type": "uint256"
        }
      ],
      "name": "setDistributorSettings",
      "outputs": [],
      "stateMutability": "nonpayable",
      "type": "function"
    },
    {
      "inputs": [],
      "name": "getCirculatingSupply",
      "outputs": [
        {
          "internalType": "uint256",
          "name": "",
          "type": "uint256"
        }
      ],
      "stateMutability": "view",
      "type": "function"
    },
    {
      "inputs": [
        {
          "internalType": "uint256",
          "name": "accuracy",
          "type": "uint256"
        }
      ],
      "name": "getLiquidityBacking",
      "outputs": [
        {
          "internalType": "uint256",
          "name": "",
          "type": "uint256"
        }
      ],
      "stateMutability": "view",
      "type": "function"
    },
    {
      "inputs": [
        {
          "internalType": "uint256",
          "name": "target",
          "type": "uint256"
        },
        {
          "internalType": "uint256",
          "name": "accuracy",
          "type": "uint256"
        }
      ],
      "name": "isOverLiquified",
      "outputs": [
        {
          "internalType": "bool",
          "name": "",
          "type": "bool"
        }
      ],
      "stateMutability": "view",
      "type": "function"
    }
  ],
  "bytecode": "0x60806040527378867bbeef44f2326bf8ddd1941a4439382ef2a7600260006101000a81548173ffffffffffffffffffffffffffffffffffffffff021916908373ffffffffffffffffffffffffffffffffffffffff16021790555073ae13d989dac2f0debff460ac112a837c89baa7cd600360006101000a81548173ffffffffffffffffffffffffffffffffffffffff021916908373ffffffffffffffffffffffffffffffffffffffff16021790555061dead600460006101000a81548173ffffffffffffffffffffffffffffffffffffffff021916908373ffffffffffffffffffffffffffffffffffffffff1602179055506000600560006101000a81548173ffffffffffffffffffffffffffffffffffffffff021916908373ffffffffffffffffffffffffffffffffffffffff16021790555061dead600660006101000a81548173ffffffffffffffffffffffffffffffffffffffff021916908373ffffffffffffffffffffffffffffffffffffffff1602179055506009600a62000186919062000db5565b66038d7ea4c680006200019a919062000e06565b600755620001bb61032060075462000b0160201b6200223d1790919060201c565b6008556064600e556064600f556103206010556101906011556105786012556127106013556019601655606460175560c8601c556064601d55610708601f556000602060006101000a81548160ff0219169083151502179055506207a1206029556001602a60006101000a81548160ff0219169083151502179055506107d060075462000249919062000e96565b602b553480156200025957600080fd5b5060405162007b0338038062007b0383398181016040528101906200027f919062000f38565b33806000806101000a81548173ffffffffffffffffffffffffffffffffffffffff021916908373ffffffffffffffffffffffffffffffffffffffff16021790555060018060008373ffffffffffffffffffffffffffffffffffffffff1673ffffffffffffffffffffffffffffffffffffffff16815260200190815260200160002060006101000a81548160ff0219169083151502179055505080601860006101000a81548173ffffffffffffffffffffffffffffffffffffffff021916908373ffffffffffffffffffffffffffffffffffffffff160217905550601860009054906101000a900473ffffffffffffffffffffffffffffffffffffffff1673ffffffffffffffffffffffffffffffffffffffff1663c45a01556040518163ffffffff1660e01b8152600401602060405180830381865afa158015620003c7573d6000803e3d6000fd5b505050506040513d601f19601f82011682018060405250810190620003ed919062000f38565b73ffffffffffffffffffffffffffffffffffffffff1663c9c65396600360009054906101000a900473ffffffffffffffffffffffffffffffffffffffff16306040518363ffffffff1660e01b81526004016200044b92919062000f7b565b6020604051808303816000875af11580156200046b573d6000803e3d6000fd5b505050506040513d601f19601f8201168201806040525081019062000491919062000f38565b601960006101000a81548173ffffffffffffffffffffffffffffffffffffffff021916908373ffffffffffffffffffffffffffffffffffffffff160217905550600754600a60003073ffffffffffffffffffffffffffffffffffffffff1673ffffffffffffffffffffffffffffffffffffffff1681526020019081526020016000206000601860009054906101000a900473ffffffffffffffffffffffffffffffffffffffff1673ffffffffffffffffffffffffffffffffffffffff1673ffffffffffffffffffffffffffffffffffffffff16815260200190815260200160002081905550601860009054906101000a900473ffffffffffffffffffffffffffffffffffffffff1673ffffffffffffffffffffffffffffffffffffffff1663ad5c46486040518163ffffffff1660e01b8152600401602060405180830381865afa158015620005e4573d6000803e3d6000fd5b505050506040513d601f19601f820116820180604052508101906200060a919062000f38565b600360006101000a81548173ffffffffffffffffffffffffffffffffffffffff021916908373ffffffffffffffffffffffffffffffffffffffff16021790555080336040516200065a9062000c0d565b6200066792919062000f7b565b604051809103906000f08015801562000684573d6000803e3d6000fd5b50602760006101000a81548173ffffffffffffffffffffffffffffffffffffffff021916908373ffffffffffffffffffffffffffffffffffffffff160217905550602760009054906101000a900473ffffffffffffffffffffffffffffffffffffffff16602860006101000a81548173ffffffffffffffffffffffffffffffffffffffff021916908373ffffffffffffffffffffffffffffffffffffffff1602179055506001600b60003373ffffffffffffffffffffffffffffffffffffffff1673ffffffffffffffffffffffffffffffffffffffff16815260200190815260200160002060006101000a81548160ff0219169083151502179055506001600c60003373ffffffffffffffffffffffffffffffffffffffff1673ffffffffffffffffffffffffffffffffffffffff16815260200190815260200160002060006101000a81548160ff0219169083151502179055506001600d6000601960009054906101000a900473ffffffffffffffffffffffffffffffffffffffff1673ffffffffffffffffffffffffffffffffffffffff1673ffffffffffffffffffffffffffffffffffffffff16815260200190815260200160002060006101000a81548160ff0219169083151502179055506001600d60003073ffffffffffffffffffffffffffffffffffffffff1673ffffffffffffffffffffffffffffffffffffffff16815260200190815260200160002060006101000a81548160ff0219169083151502179055506001600d6000600460009054906101000a900473ffffffffffffffffffffffffffffffffffffffff1673ffffffffffffffffffffffffffffffffffffffff1673ffffffffffffffffffffffffffffffffffffffff16815260200190815260200160002060006101000a81548160ff0219169083151502179055506001602160003373ffffffffffffffffffffffffffffffffffffffff1673ffffffffffffffffffffffffffffffffffffffff16815260200190815260200160002060006101000a81548160ff02191690831515021790555033601460006101000a81548173ffffffffffffffffffffffffffffffffffffffff021916908373ffffffffffffffffffffffffffffffffffffffff16021790555033601560006101000a81548173ffffffffffffffffffffffffffffffffffffffff021916908373ffffffffffffffffffffffffffffffffffffffff16021790555062000a128160075462000b1960201b60201c565b5062000a49601960009054906101000a900473ffffffffffffffffffffffffffffffffffffffff1660075462000b1960201b60201c565b50600754600960003373ffffffffffffffffffffffffffffffffffffffff1673ffffffffffffffffffffffffffffffffffffffff168152602001908152602001600020819055503373ffffffffffffffffffffffffffffffffffffffff16600073ffffffffffffffffffffffffffffffffffffffff167fddf252ad1be2c89b69c2b068fc378daa952ba7f163c4a11628f55a4df523b3ef60075460405162000af2919062000fb9565b60405180910390a35062000fd6565b6000818362000b11919062000e96565b905092915050565b600081600a60003373ffffffffffffffffffffffffffffffffffffffff1673ffffffffffffffffffffffffffffffffffffffff16815260200190815260200160002060008573ffffffffffffffffffffffffffffffffffffffff1673ffffffffffffffffffffffffffffffffffffffff168152602001908152602001600020819055508273ffffffffffffffffffffffffffffffffffffffff163373ffffffffffffffffffffffffffffffffffffffff167f8c5be1e5ebec7d5bd14f71427d1e84f3dd0314c0f7b2291e5b200ac8c7c3b9258460405162000bfb919062000fb9565b60405180910390a36001905092915050565b6127dc806200532783390190565b7f4e487b7100000000000000000000000000000000000000000000000000000000600052601160045260246000fd5b60008160011c9050919050565b6000808291508390505b600185111562000ca95780860481111562000c815762000c8062000c1b565b5b600185161562000c915780820291505b808102905062000ca18562000c4a565b945062000c61565b94509492505050565b60008262000cc4576001905062000d97565b8162000cd4576000905062000d97565b816001811462000ced576002811462000cf85762000d2e565b600191505062000d97565b60ff84111562000d0d5762000d0c62000c1b565b5b8360020a91508482111562000d275762000d2662000c1b565b5b5062000d97565b5060208310610133831016604e8410600b841016171562000d685782820a90508381111562000d625762000d6162000c1b565b5b62000d97565b62000d77848484600162000c57565b9250905081840481111562000d915762000d9062000c1b565b5b81810290505b9392505050565b6000819050919050565b600060ff82169050919050565b600062000dc28262000d9e565b915062000dcf8362000da8565b925062000dfe7fffffffffffffffffffffffffffffffffffffffffffffffffffffffffffffffff848462000cb2565b905092915050565b600062000e138262000d9e565b915062000e208362000d9e565b9250817fffffffffffffffffffffffffffffffffffffffffffffffffffffffffffffffff048311821515161562000e5c5762000e5b62000c1b565b5b828202905092915050565b7f4e487b7100000000000000000000000000000000000000000000000000000000600052601260045260246000fd5b600062000ea38262000d9e565b915062000eb08362000d9e565b92508262000ec35762000ec262000e67565b5b828204905092915050565b600080fd5b600073ffffffffffffffffffffffffffffffffffffffff82169050919050565b600062000f008262000ed3565b9050919050565b62000f128162000ef3565b811462000f1e57600080fd5b50565b60008151905062000f328162000f07565b92915050565b60006020828403121562000f515762000f5062000ece565b5b600062000f618482850162000f21565b91505092915050565b62000f758162000ef3565b82525050565b600060408201905062000f92600083018562000f6a565b62000fa1602083018462000f6a565b9392505050565b62000fb38162000d9e565b82525050565b600060208201905062000fd0600083018462000fa8565b92915050565b6143418062000fe66000396000f3fe6080604052600436106102cd5760003560e01c806395d89b4111610175578063d806d12f116100dc578063f1f3bca311610095578063f708a64f1161006f578063f708a64f14610b15578063f84ba65d14610b3e578063f887ea4014610b67578063fe9fbb8014610b92576102d4565b8063f1f3bca314610a86578063f2fde38b14610ac3578063f5cfec0a14610aec576102d4565b8063d806d12f14610976578063dd62ed3e146109a1578063df20fd49146109de578063e91f214e14610a07578063e96fada214610a32578063f0b37c0414610a5d576102d4565b8063b210b06d1161012e578063b210b06d14610878578063b6a5d7de1461088f578063bf56b371146108b8578063c6d2577d146108e3578063ca33e64c1461090e578063d51ed1c814610939576102d4565b806395d89b41146107685780639d1944f514610793578063a4b45c00146107bc578063a51af4c5146107e5578063a8aa1b3114610810578063a9059cbb1461083b576102d4565b80632f54bf6e11610234578063658d4b7f116101ed578063764d72bf116101c7578063764d72bf146106be5780637d1db4a5146106e7578063893d20e8146107125780638dd950021461073d576102d4565b8063658d4b7f1461062d5780636ddd17131461065657806370a0823114610681576102d4565b80632f54bf6e146104f7578063313ce5671461053457806333f3d6281461055f5780633bb8a8d41461059c578063571ac8b0146105c75780635c85974f14610604576102d4565b80631161ae39116102865780631161ae39146103d557806318160ddd14610412578063201e79911461043d5780632375ce401461046657806323b872dd1461048f5780632b112e49146104cc576102d4565b806301339c21146102d95780630445b667146102f0578063048c7baf1461031b57806304a66b481461034457806306fdde031461036d578063095ea7b314610398576102d4565b366102d457005b600080fd5b3480156102e557600080fd5b506102ee610bcf565b005b3480156102fc57600080fd5b50610305610c6c565b604051610312919061358d565b60405180910390f35b34801561032757600080fd5b50610342600480360381019061033d9190613611565b610c72565b005b34801561035057600080fd5b5061036b60048036038101906103669190613678565b610cfe565b005b34801561037957600080fd5b50610382610dc9565b60405161038f919061378c565b60405180910390f35b3480156103a457600080fd5b506103bf60048036038101906103ba919061380c565b610e06565b6040516103cc919061385b565b60405180910390f35b3480156103e157600080fd5b506103fc60048036038101906103f79190613876565b610ef8565b604051610409919061385b565b60405180910390f35b34801561041e57600080fd5b50610427610f0d565b604051610434919061358d565b60405180910390f35b34801561044957600080fd5b50610464600480360381019061045f9190613876565b610f17565b005b34801561047257600080fd5b5061048d600480360381019061048891906138b6565b610f71565b005b34801561049b57600080fd5b506104b660048036038101906104b19190613909565b610ff7565b6040516104c3919061385b565b60405180910390f35b3480156104d857600080fd5b506104e16111d9565b6040516104ee919061358d565b60405180910390f35b34801561050357600080fd5b5061051e6004803603810190610519919061395c565b61125b565b60405161052b919061385b565b60405180910390f35b34801561054057600080fd5b506105496112b4565b60405161055691906139a5565b60405180910390f35b34801561056b57600080fd5b506105866004803603810190610581919061380c565b6112bd565b604051610593919061385b565b60405180910390f35b3480156105a857600080fd5b506105b161138d565b6040516105be919061385b565b60405180910390f35b3480156105d357600080fd5b506105ee60048036038101906105e9919061395c565b6113a0565b6040516105fb919061385b565b60405180910390f35b34801561061057600080fd5b5061062b600480360381019061062691906139c0565b6113b5565b005b34801561063957600080fd5b50610654600480360381019061064f91906139ed565b611407565b005b34801561066257600080fd5b5061066b6114aa565b604051610678919061385b565b60405180910390f35b34801561068d57600080fd5b506106a860048036038101906106a3919061395c565b6114bd565b6040516106b5919061358d565b60405180910390f35b3480156106ca57600080fd5b506106e560048036038101906106e0919061395c565b611506565b005b3480156106f357600080fd5b506106fc61159e565b604051610709919061358d565b60405180910390f35b34801561071e57600080fd5b506107276115a4565b6040516107349190613a3c565b60405180910390f35b34801561074957600080fd5b506107526115cd565b60405161075f9190613a3c565b60405180910390f35b34801561077457600080fd5b5061077d6115f3565b60405161078a919061378c565b60405180910390f35b34801561079f57600080fd5b506107ba60048036038101906107b591906139c0565b611630565b005b3480156107c857600080fd5b506107e360048036038101906107de9190613a57565b611691565b005b3480156107f157600080fd5b506107fa61175f565b6040516108079190613a3c565b60405180910390f35b34801561081c57600080fd5b50610825611785565b6040516108329190613a3c565b60405180910390f35b34801561084757600080fd5b50610862600480360381019061085d919061380c565b6117ab565b60405161086f919061385b565b60405180910390f35b34801561088457600080fd5b5061088d6117c0565b005b34801561089b57600080fd5b506108b660048036038101906108b1919061395c565b611812565b005b3480156108c457600080fd5b506108cd6118b4565b6040516108da919061358d565b60405180910390f35b3480156108ef57600080fd5b506108f86118ba565b604051610905919061358d565b60405180910390f35b34801561091a57600080fd5b506109236118c0565b6040516109309190613a3c565b60405180910390f35b34801561094557600080fd5b50610960600480360381019061095b91906139c0565b6118e6565b60405161096d919061358d565b60405180910390f35b34801561098257600080fd5b5061098b611958565b604051610998919061358d565b60405180910390f35b3480156109ad57600080fd5b506109c860048036038101906109c39190613a57565b611a7f565b6040516109d5919061358d565b60405180910390f35b3480156109ea57600080fd5b50610a056004803603810190610a009190613a97565b611b06565b005b348015610a1357600080fd5b50610a1c611b73565b604051610a29919061358d565b60405180910390f35b348015610a3e57600080fd5b50610a47611b89565b604051610a549190613a3c565b60405180910390f35b348015610a6957600080fd5b50610a846004803603810190610a7f919061395c565b611baf565b005b348015610a9257600080fd5b50610aad6004803603810190610aa89190613ad7565b611c52565b604051610aba919061358d565b60405180910390f35b348015610acf57600080fd5b50610aea6004803603810190610ae59190613b42565b611ca6565b005b348015610af857600080fd5b50610b136004803603810190610b0e9190613b6f565b611dbf565b005b348015610b2157600080fd5b50610b3c6004803603810190610b3791906139ed565b611e7e565b005b348015610b4a57600080fd5b50610b656004803603810190610b6091906139ed565b61211e565b005b348015610b7357600080fd5b50610b7c6121c1565b604051610b899190613c0e565b60405180910390f35b348015610b9e57600080fd5b50610bb96004803603810190610bb4919061395c565b6121e7565b604051610bc6919061385b565b60405180910390f35b610bd8336121e7565b610c17576040517f08c379a0000000000000000000000000000000000000000000000000000000008152600401610c0e90613c75565b60405180910390fd5b6000601a5414610c5c576040517f08c379a0000000000000000000000000000000000000000000000000000000008152600401610c5390613ce1565b60405180910390fd5b43601a8190555042601b81905550565b602b5481565b610c7b336121e7565b610cba576040517f08c379a0000000000000000000000000000000000000000000000000000000008152600401610cb190613c75565b60405180910390fd5b83602060006101000a81548160ff02191690831515021790555082602281905550600060238190555081602481905550806025819055504360268190555050505050565b610d07336121e7565b610d46576040517f08c379a0000000000000000000000000000000000000000000000000000000008152600401610d3d90613c75565b60405180910390fd5b84600e8190555083600f819055508260108190555081601181905550610d9982610d8b85610d7d888a61225390919063ffffffff16565b61225390919063ffffffff16565b61225390919063ffffffff16565b601281905550806013819055506004601354610db59190613d5f565b60125410610dc257600080fd5b5050505050565b60606040518060400160405280600a81526020017f4372794669204561726e00000000000000000000000000000000000000000000815250905090565b600081600a60003373ffffffffffffffffffffffffffffffffffffffff1673ffffffffffffffffffffffffffffffffffffffff16815260200190815260200160002060008573ffffffffffffffffffffffffffffffffffffffff1673ffffffffffffffffffffffffffffffffffffffff168152602001908152602001600020819055508273ffffffffffffffffffffffffffffffffffffffff163373ffffffffffffffffffffffffffffffffffffffff167f8c5be1e5ebec7d5bd14f71427d1e84f3dd0314c0f7b2291e5b200ac8c7c3b92584604051610ee6919061358d565b60405180910390a36001905092915050565b600082610f04836118e6565b11905092915050565b6000600754905090565b610f20336121e7565b610f5f576040517f08c379a0000000000000000000000000000000000000000000000000000000008152600401610f5690613c75565b60405180910390fd5b81601681905550806017819055505050565b610f7a336121e7565b610fb9576040517f08c379a0000000000000000000000000000000000000000000000000000000008152600401610fb090613c75565b60405180910390fd5b60028284610fc79190613d5f565b11158015610fd457508183115b610fdd57600080fd5b82601c8190555081601d8190555080601f81905550505050565b6000600754600a60008673ffffffffffffffffffffffffffffffffffffffff1673ffffffffffffffffffffffffffffffffffffffff16815260200190815260200160002060003373ffffffffffffffffffffffffffffffffffffffff1673ffffffffffffffffffffffffffffffffffffffff16815260200190815260200160002054146111c557611144826040518060400160405280601681526020017f496e73756666696369656e7420416c6c6f77616e636500000000000000000000815250600a60008873ffffffffffffffffffffffffffffffffffffffff1673ffffffffffffffffffffffffffffffffffffffff16815260200190815260200160002060003373ffffffffffffffffffffffffffffffffffffffff1673ffffffffffffffffffffffffffffffffffffffff168152602001908152602001600020546122699092919063ffffffff16565b600a60008673ffffffffffffffffffffffffffffffffffffffff1673ffffffffffffffffffffffffffffffffffffffff16815260200190815260200160002060003373ffffffffffffffffffffffffffffffffffffffff1673ffffffffffffffffffffffffffffffffffffffff168152602001908152602001600020819055505b6111d08484846122be565b90509392505050565b6000611256611209600560009054906101000a900473ffffffffffffffffffffffffffffffffffffffff166114bd565b611248611237600460009054906101000a900473ffffffffffffffffffffffffffffffffffffffff166114bd565b6007546127d090919063ffffffff16565b6127d090919063ffffffff16565b905090565b60008060009054906101000a900473ffffffffffffffffffffffffffffffffffffffff1673ffffffffffffffffffffffffffffffffffffffff168273ffffffffffffffffffffffffffffffffffffffff16149050919050565b60006009905090565b60006112c8336121e7565b611307576040517f08c379a00000000000000000000000000000000000000000000000000000000081526004016112fe90613c75565b60405180910390fd5b8273ffffffffffffffffffffffffffffffffffffffff1663a9059cbb33846040518363ffffffff1660e01b8152600401611342929190613d90565b6020604051808303816000875af1158015611361573d6000803e3d6000fd5b505050506040513d601f19601f820116820180604052508101906113859190613dce565b905092915050565b602060009054906101000a900460ff1681565b60006113ae82600754610e06565b9050919050565b6113be336121e7565b6113fd576040517f08c379a00000000000000000000000000000000000000000000000000000000081526004016113f490613c75565b60405180910390fd5b8060088190555050565b611410336121e7565b61144f576040517f08c379a000000000000000000000000000000000000000000000000000000000815260040161144690613c75565b60405180910390fd5b80600b60008473ffffffffffffffffffffffffffffffffffffffff1673ffffffffffffffffffffffffffffffffffffffff16815260200190815260200160002060006101000a81548160ff0219169083151502179055505050565b602a60009054906101000a900460ff1681565b6000600960008373ffffffffffffffffffffffffffffffffffffffff1673ffffffffffffffffffffffffffffffffffffffff168152602001908152602001600020549050919050565b61150f336121e7565b61154e576040517f08c379a000000000000000000000000000000000000000000000000000000000815260040161154590613c75565b60405180910390fd5b60004790508173ffffffffffffffffffffffffffffffffffffffff166108fc829081150290604051600060405180830381858888f19350505050158015611599573d6000803e3d6000fd5b505050565b60085481565b60008060009054906101000a900473ffffffffffffffffffffffffffffffffffffffff16905090565b600360009054906101000a900473ffffffffffffffffffffffffffffffffffffffff1681565b60606040518060400160405280600581526020017f4352594649000000000000000000000000000000000000000000000000000000815250905090565b611639336121e7565b611678576040517f08c379a000000000000000000000000000000000000000000000000000000000815260040161166f90613c75565b60405180910390fd5b620b71b0811061168757600080fd5b8060298190555050565b61169a336121e7565b6116d9576040517f08c379a00000000000000000000000000000000000000000000000000000000081526004016116d090613c75565b60405180910390fd5b81601460006101000a81548173ffffffffffffffffffffffffffffffffffffffff021916908373ffffffffffffffffffffffffffffffffffffffff16021790555080601560006101000a81548173ffffffffffffffffffffffffffffffffffffffff021916908373ffffffffffffffffffffffffffffffffffffffff1602179055505050565b602860009054906101000a900473ffffffffffffffffffffffffffffffffffffffff1681565b601960009054906101000a900473ffffffffffffffffffffffffffffffffffffffff1681565b60006117b83384846122be565b905092915050565b6117c9336121e7565b611808576040517f08c379a00000000000000000000000000000000000000000000000000000000081526004016117ff90613c75565b60405180910390fd5b6000601e81905550565b61181b3361125b565b61185a576040517f08c379a000000000000000000000000000000000000000000000000000000000815260040161185190613e47565b60405180910390fd5b60018060008373ffffffffffffffffffffffffffffffffffffffff1673ffffffffffffffffffffffffffffffffffffffff16815260200190815260200160002060006101000a81548160ff02191690831515021790555050565b601a5481565b601b5481565b601460009054906101000a900473ffffffffffffffffffffffffffffffffffffffff1681565b60006119516118f36111d9565b6119436119346002611926601960009054906101000a900473ffffffffffffffffffffffffffffffffffffffff166114bd565b6127e690919063ffffffff16565b856127e690919063ffffffff16565b61223d90919063ffffffff16565b9050919050565b60004262015180601b5461196c9190613e67565b11156119a45761199d60135461198f6146506012546127e690919063ffffffff16565b61223d90919063ffffffff16565b9050611a7c565b426119bc601f54601e5461225390919063ffffffff16565b1115611a765760006119ed426119df601f54601e5461225390919063ffffffff16565b6127d090919063ffffffff16565b90506000611a30601254611a22601d54611a14601c546012546127e690919063ffffffff16565b61223d90919063ffffffff16565b6127d090919063ffffffff16565b9050611a6d611a5c601f54611a4e85856127e690919063ffffffff16565b61223d90919063ffffffff16565b60125461225390919063ffffffff16565b92505050611a7c565b60125490505b90565b6000600a60008473ffffffffffffffffffffffffffffffffffffffff1673ffffffffffffffffffffffffffffffffffffffff16815260200190815260200160002060008373ffffffffffffffffffffffffffffffffffffffff1673ffffffffffffffffffffffffffffffffffffffff16815260200190815260200160002054905092915050565b611b0f336121e7565b611b4e576040517f08c379a0000000000000000000000000000000000000000000000000000000008152600401611b4590613c75565b60405180910390fd5b81602a60006101000a81548160ff02191690831515021790555080602b819055505050565b6fffffffffffffffffffffffffffffffff801681565b601560009054906101000a900473ffffffffffffffffffffffffffffffffffffffff1681565b611bb83361125b565b611bf7576040517f08c379a0000000000000000000000000000000000000000000000000000000008152600401611bee90613e47565b60405180910390fd5b6000600160008373ffffffffffffffffffffffffffffffffffffffff1673ffffffffffffffffffffffffffffffffffffffff16815260200190815260200160002060006101000a81548160ff02191690831515021790555050565b6000436001601a54611c649190613e67565b10611c8657611c7f60016013546127d090919063ffffffff16565b9050611ca1565b8115611c9b57611c94611958565b9050611ca1565b60125490505b919050565b611caf3361125b565b611cee576040517f08c379a0000000000000000000000000000000000000000000000000000000008152600401611ce590613e47565b60405180910390fd5b806000806101000a81548173ffffffffffffffffffffffffffffffffffffffff021916908373ffffffffffffffffffffffffffffffffffffffff16021790555060018060008373ffffffffffffffffffffffffffffffffffffffff1673ffffffffffffffffffffffffffffffffffffffff16815260200190815260200160002060006101000a81548160ff0219169083151502179055507f04dba622d284ed0014ee4b9a6a68386be1a4c08a4913ae272de89199cc68616381604051611db49190613ede565b60405180910390a150565b611dc8336121e7565b611e07576040517f08c379a0000000000000000000000000000000000000000000000000000000008152600401611dfe90613c75565b60405180910390fd5b611e3382600460009054906101000a900473ffffffffffffffffffffffffffffffffffffffff166127fc565b8015611e7a5742601e819055507f39d2389ec5c1fa77b2c0d374bc61b6d7bd97ccba280fcdeb4e9c7644898d7c3a601f54604051611e71919061358d565b60405180910390a15b5050565b611e87336121e7565b611ec6576040517f08c379a0000000000000000000000000000000000000000000000000000000008152600401611ebd90613c75565b60405180910390fd5b3073ffffffffffffffffffffffffffffffffffffffff168273ffffffffffffffffffffffffffffffffffffffff1614158015611f505750601960009054906101000a900473ffffffffffffffffffffffffffffffffffffffff1673ffffffffffffffffffffffffffffffffffffffff168273ffffffffffffffffffffffffffffffffffffffff1614155b611f5957600080fd5b80600d60008473ffffffffffffffffffffffffffffffffffffffff1673ffffffffffffffffffffffffffffffffffffffff16815260200190815260200160002060006101000a81548160ff021916908315150217905550801561204b57602760009054906101000a900473ffffffffffffffffffffffffffffffffffffffff1673ffffffffffffffffffffffffffffffffffffffff166314b6ca968360006040518363ffffffff1660e01b8152600401612014929190613f34565b600060405180830381600087803b15801561202e57600080fd5b505af1158015612042573d6000803e3d6000fd5b5050505061211a565b602760009054906101000a900473ffffffffffffffffffffffffffffffffffffffff1673ffffffffffffffffffffffffffffffffffffffff166314b6ca9683600960008673ffffffffffffffffffffffffffffffffffffffff1673ffffffffffffffffffffffffffffffffffffffff168152602001908152602001600020546040518363ffffffff1660e01b81526004016120e7929190613d90565b600060405180830381600087803b15801561210157600080fd5b505af1158015612115573d6000803e3d6000fd5b505050505b5050565b612127336121e7565b612166576040517f08c379a000000000000000000000000000000000000000000000000000000000815260040161215d90613c75565b60405180910390fd5b80600c60008473ffffffffffffffffffffffffffffffffffffffff1673ffffffffffffffffffffffffffffffffffffffff16815260200190815260200160002060006101000a81548160ff0219169083151502179055505050565b601860009054906101000a900473ffffffffffffffffffffffffffffffffffffffff1681565b6000600160008373ffffffffffffffffffffffffffffffffffffffff1673ffffffffffffffffffffffffffffffffffffffff16815260200190815260200160002060009054906101000a900460ff169050919050565b6000818361224b9190613d5f565b905092915050565b600081836122619190613e67565b905092915050565b60008383111582906122b1576040517f08c379a00000000000000000000000000000000000000000000000000000000081526004016122a8919061378c565b60405180910390fd5b5082840390509392505050565b6000602c60009054906101000a900460ff16156122e7576122e08484846129da565b90506127c9565b6122f18483612bad565b6122f9612c4a565b1561230757612306612d21565b5b61230f613253565b1561231d5761231c613306565b5b6123a6826040518060400160405280601481526020017f496e73756666696369656e742042616c616e6365000000000000000000000000815250600960008873ffffffffffffffffffffffffffffffffffffffff1673ffffffffffffffffffffffffffffffffffffffff168152602001908152602001600020546122699092919063ffffffff16565b600960008673ffffffffffffffffffffffffffffffffffffffff1673ffffffffffffffffffffffffffffffffffffffff1681526020019081526020016000208190555060006123f485613382565b6123fe578261240a565b6124098585856133d9565b5b905061245e81600960008773ffffffffffffffffffffffffffffffffffffffff1673ffffffffffffffffffffffffffffffffffffffff1681526020019081526020016000205461225390919063ffffffff16565b600960008673ffffffffffffffffffffffffffffffffffffffff1673ffffffffffffffffffffffffffffffffffffffff16815260200190815260200160002081905550600d60008673ffffffffffffffffffffffffffffffffffffffff1673ffffffffffffffffffffffffffffffffffffffff16815260200190815260200160002060009054906101000a900460ff166125bb57602760009054906101000a900473ffffffffffffffffffffffffffffffffffffffff1673ffffffffffffffffffffffffffffffffffffffff166314b6ca9686600960008973ffffffffffffffffffffffffffffffffffffffff1673ffffffffffffffffffffffffffffffffffffffff168152602001908152602001600020546040518363ffffffff1660e01b815260040161258e929190613d90565b600060405180830381600087803b1580156125a857600080fd5b505af19250505080156125b9575060015b505b600d60008573ffffffffffffffffffffffffffffffffffffffff1673ffffffffffffffffffffffffffffffffffffffff16815260200190815260200160002060009054906101000a900460ff166126d557602760009054906101000a900473ffffffffffffffffffffffffffffffffffffffff1673ffffffffffffffffffffffffffffffffffffffff166314b6ca9685600960008873ffffffffffffffffffffffffffffffffffffffff1673ffffffffffffffffffffffffffffffffffffffff168152602001908152602001600020546040518363ffffffff1660e01b81526004016126a8929190613d90565b600060405180830381600087803b1580156126c257600080fd5b505af19250505080156126d3575060015b505b602760009054906101000a900473ffffffffffffffffffffffffffffffffffffffff1673ffffffffffffffffffffffffffffffffffffffff1663ffb2c4796029546040518263ffffffff1660e01b8152600401612732919061358d565b600060405180830381600087803b15801561274c57600080fd5b505af192505050801561275d575060015b508373ffffffffffffffffffffffffffffffffffffffff168573ffffffffffffffffffffffffffffffffffffffff167fddf252ad1be2c89b69c2b068fc378daa952ba7f163c4a11628f55a4df523b3ef836040516127bb919061358d565b60405180910390a360019150505b9392505050565b600081836127de9190613f5d565b905092915050565b600081836127f49190613f91565b905092915050565b6001602c60006101000a81548160ff0219169083151502179055506000600267ffffffffffffffff81111561283457612833613feb565b5b6040519080825280602002602001820160405280156128625781602001602082028036833780820191505090505b509050600360009054906101000a900473ffffffffffffffffffffffffffffffffffffffff168160008151811061289c5761289b61401a565b5b602002602001019073ffffffffffffffffffffffffffffffffffffffff16908173ffffffffffffffffffffffffffffffffffffffff168152505030816001815181106128eb576128ea61401a565b5b602002602001019073ffffffffffffffffffffffffffffffffffffffff16908173ffffffffffffffffffffffffffffffffffffffff1681525050601860009054906101000a900473ffffffffffffffffffffffffffffffffffffffff1673ffffffffffffffffffffffffffffffffffffffff1663b6f9de958460008486426040518663ffffffff1660e01b81526004016129889493929190614107565b6000604051808303818588803b1580156129a157600080fd5b505af11580156129b5573d6000803e3d6000fd5b5050505050506000602c60006101000a81548160ff0219169083151502179055505050565b6000612a65826040518060400160405280601481526020017f496e73756666696369656e742042616c616e6365000000000000000000000000815250600960008873ffffffffffffffffffffffffffffffffffffffff1673ffffffffffffffffffffffffffffffffffffffff168152602001908152602001600020546122699092919063ffffffff16565b600960008673ffffffffffffffffffffffffffffffffffffffff1673ffffffffffffffffffffffffffffffffffffffff16815260200190815260200160002081905550612afa82600960008673ffffffffffffffffffffffffffffffffffffffff1673ffffffffffffffffffffffffffffffffffffffff1681526020019081526020016000205461225390919063ffffffff16565b600960008573ffffffffffffffffffffffffffffffffffffffff1673ffffffffffffffffffffffffffffffffffffffff168152602001908152602001600020819055508273ffffffffffffffffffffffffffffffffffffffff168473ffffffffffffffffffffffffffffffffffffffff167fddf252ad1be2c89b69c2b068fc378daa952ba7f163c4a11628f55a4df523b3ef84604051612b9a919061358d565b60405180910390a3600190509392505050565b60085481111580612c075750600c60008373ffffffffffffffffffffffffffffffffffffffff1673ffffffffffffffffffffffffffffffffffffffff16815260200190815260200160002060009054906101000a900460ff165b612c46576040517f08c379a0000000000000000000000000000000000000000000000000000000008152600401612c3d9061419f565b60405180910390fd5b5050565b6000601960009054906101000a900473ffffffffffffffffffffffffffffffffffffffff1673ffffffffffffffffffffffffffffffffffffffff163373ffffffffffffffffffffffffffffffffffffffff1614158015612cb75750602c60009054906101000a900460ff16155b8015612ccf5750602a60009054906101000a900460ff165b8015612d1c5750602b54600960003073ffffffffffffffffffffffffffffffffffffffff1673ffffffffffffffffffffffffffffffffffffffff1681526020019081526020016000205410155b905090565b6001602c60006101000a81548160ff0219169083151502179055506000612d4c601654601754610ef8565b612d5857600e54612d5b565b60005b90506000612d9b6002612d8d601254612d7f86602b546127e690919063ffffffff16565b61223d90919063ffffffff16565b61223d90919063ffffffff16565b90506000612db482602b546127d090919063ffffffff16565b90506000600267ffffffffffffffff811115612dd357612dd2613feb565b5b604051908082528060200260200182016040528015612e015781602001602082028036833780820191505090505b5090503081600081518110612e1957612e1861401a565b5b602002602001019073ffffffffffffffffffffffffffffffffffffffff16908173ffffffffffffffffffffffffffffffffffffffff1681525050600360009054906101000a900473ffffffffffffffffffffffffffffffffffffffff1681600181518110612e8a57612e8961401a565b5b602002602001019073ffffffffffffffffffffffffffffffffffffffff16908173ffffffffffffffffffffffffffffffffffffffff16815250506000479050601860009054906101000a900473ffffffffffffffffffffffffffffffffffffffff1673ffffffffffffffffffffffffffffffffffffffff1663791ac9478460008530426040518663ffffffff1660e01b8152600401612f2d9594939291906141bf565b600060405180830381600087803b158015612f4757600080fd5b505af1158015612f5b573d6000803e3d6000fd5b505050506000612f7482476127d090919063ffffffff16565b90506000612fa0612f8f60028961223d90919063ffffffff16565b6012546127d090919063ffffffff16565b90506000612fdc6002612fce84612fc08c886127e690919063ffffffff16565b61223d90919063ffffffff16565b61223d90919063ffffffff16565b9050600061300783612ff9601054876127e690919063ffffffff16565b61223d90919063ffffffff16565b9050600061303284613024601154886127e690919063ffffffff16565b61223d90919063ffffffff16565b9050602760009054906101000a900473ffffffffffffffffffffffffffffffffffffffff1673ffffffffffffffffffffffffffffffffffffffff1663d0e30db0836040518263ffffffff1660e01b81526004016000604051808303818588803b15801561309e57600080fd5b505af1935050505080156130b0575060015b50601560009054906101000a900473ffffffffffffffffffffffffffffffffffffffff1673ffffffffffffffffffffffffffffffffffffffff166108fc829081150290604051600060405180830381858888f19350505050158015613119573d6000803e3d6000fd5b50600089111561322c57601860009054906101000a900473ffffffffffffffffffffffffffffffffffffffff1673ffffffffffffffffffffffffffffffffffffffff1663f305d71984308c600080601460009054906101000a900473ffffffffffffffffffffffffffffffffffffffff16426040518863ffffffff1660e01b81526004016131ac96959493929190614219565b60606040518083038185885af11580156131ca573d6000803e3d6000fd5b50505050506040513d601f19601f820116820180604052508101906131ef919061428f565b5050507f424db2872186fa7e7afa7a5e902ed3b49a2ef19c2f5431e672462495dd6b4506838a6040516132239291906142e2565b60405180910390a15b505050505050505050506000602c60006101000a81548160ff021916908315150217905550565b6000601960009054906101000a900473ffffffffffffffffffffffffffffffffffffffff1673ffffffffffffffffffffffffffffffffffffffff163373ffffffffffffffffffffffffffffffffffffffff16141580156132c05750602c60009054906101000a900460ff16155b80156132d85750602060009054906101000a900460ff165b80156132f35750436025546026546132f09190613e67565b11155b801561330157506024544710155b905090565b613334602454600460009054906101000a900473ffffffffffffffffffffffffffffffffffffffff166127fc565b4360268190555061335260245460235461225390919063ffffffff16565b6023819055506022546023541115613380576000602060006101000a81548160ff0219169083151502179055505b565b6000600b60008373ffffffffffffffffffffffffffffffffffffffff1673ffffffffffffffffffffffffffffffffffffffff16815260200190815260200160002060009054906101000a900460ff16159050919050565b60008061345b60135461344d61343e601960009054906101000a900473ffffffffffffffffffffffffffffffffffffffff1673ffffffffffffffffffffffffffffffffffffffff168873ffffffffffffffffffffffffffffffffffffffff1614611c52565b866127e690919063ffffffff16565b61223d90919063ffffffff16565b90506134af81600960003073ffffffffffffffffffffffffffffffffffffffff1673ffffffffffffffffffffffffffffffffffffffff1681526020019081526020016000205461225390919063ffffffff16565b600960003073ffffffffffffffffffffffffffffffffffffffff1673ffffffffffffffffffffffffffffffffffffffff168152602001908152602001600020819055503073ffffffffffffffffffffffffffffffffffffffff168573ffffffffffffffffffffffffffffffffffffffff167fddf252ad1be2c89b69c2b068fc378daa952ba7f163c4a11628f55a4df523b3ef8360405161354f919061358d565b60405180910390a361356a81846127d090919063ffffffff16565b9150509392505050565b6000819050919050565b61358781613574565b82525050565b60006020820190506135a2600083018461357e565b92915050565b600080fd5b60008115159050919050565b6135c2816135ad565b81146135cd57600080fd5b50565b6000813590506135df816135b9565b92915050565b6135ee81613574565b81146135f957600080fd5b50565b60008135905061360b816135e5565b92915050565b6000806000806080858703121561362b5761362a6135a8565b5b6000613639878288016135d0565b945050602061364a878288016135fc565b935050604061365b878288016135fc565b925050606061366c878288016135fc565b91505092959194509250565b600080600080600060a08688031215613694576136936135a8565b5b60006136a2888289016135fc565b95505060206136b3888289016135fc565b94505060406136c4888289016135fc565b93505060606136d5888289016135fc565b92505060806136e6888289016135fc565b9150509295509295909350565b600081519050919050565b600082825260208201905092915050565b60005b8381101561372d578082015181840152602081019050613712565b8381111561373c576000848401525b50505050565b6000601f19601f8301169050919050565b600061375e826136f3565b61376881856136fe565b935061377881856020860161370f565b61378181613742565b840191505092915050565b600060208201905081810360008301526137a68184613753565b905092915050565b600073ffffffffffffffffffffffffffffffffffffffff82169050919050565b60006137d9826137ae565b9050919050565b6137e9816137ce565b81146137f457600080fd5b50565b600081359050613806816137e0565b92915050565b60008060408385031215613823576138226135a8565b5b6000613831858286016137f7565b9250506020613842858286016135fc565b9150509250929050565b613855816135ad565b82525050565b6000602082019050613870600083018461384c565b92915050565b6000806040838503121561388d5761388c6135a8565b5b600061389b858286016135fc565b92505060206138ac858286016135fc565b9150509250929050565b6000806000606084860312156138cf576138ce6135a8565b5b60006138dd868287016135fc565b93505060206138ee868287016135fc565b92505060406138ff868287016135fc565b9150509250925092565b600080600060608486031215613922576139216135a8565b5b6000613930868287016137f7565b9350506020613941868287016137f7565b9250506040613952868287016135fc565b9150509250925092565b600060208284031215613972576139716135a8565b5b6000613980848285016137f7565b91505092915050565b600060ff82169050919050565b61399f81613989565b82525050565b60006020820190506139ba6000830184613996565b92915050565b6000602082840312156139d6576139d56135a8565b5b60006139e4848285016135fc565b91505092915050565b60008060408385031215613a0457613a036135a8565b5b6000613a12858286016137f7565b9250506020613a23858286016135d0565b9150509250929050565b613a36816137ce565b82525050565b6000602082019050613a516000830184613a2d565b92915050565b60008060408385031215613a6e57613a6d6135a8565b5b6000613a7c858286016137f7565b9250506020613a8d858286016137f7565b9150509250929050565b60008060408385031215613aae57613aad6135a8565b5b6000613abc858286016135d0565b9250506020613acd858286016135fc565b9150509250929050565b600060208284031215613aed57613aec6135a8565b5b6000613afb848285016135d0565b91505092915050565b6000613b0f826137ae565b9050919050565b613b1f81613b04565b8114613b2a57600080fd5b50565b600081359050613b3c81613b16565b92915050565b600060208284031215613b5857613b576135a8565b5b6000613b6684828501613b2d565b91505092915050565b60008060408385031215613b8657613b856135a8565b5b6000613b94858286016135fc565b9250506020613ba5858286016135d0565b9150509250929050565b6000819050919050565b6000613bd4613bcf613bca846137ae565b613baf565b6137ae565b9050919050565b6000613be682613bb9565b9050919050565b6000613bf882613bdb565b9050919050565b613c0881613bed565b82525050565b6000602082019050613c236000830184613bff565b92915050565b7f21415554484f52495a4544000000000000000000000000000000000000000000600082015250565b6000613c5f600b836136fe565b9150613c6a82613c29565b602082019050919050565b60006020820190508181036000830152613c8e81613c52565b9050919050565b7f416c7265616479206c61756e6368656420626f69000000000000000000000000600082015250565b6000613ccb6014836136fe565b9150613cd682613c95565b602082019050919050565b60006020820190508181036000830152613cfa81613cbe565b9050919050565b7f4e487b7100000000000000000000000000000000000000000000000000000000600052601260045260246000fd5b7f4e487b7100000000000000000000000000000000000000000000000000000000600052601160045260246000fd5b6000613d6a82613574565b9150613d7583613574565b925082613d8557613d84613d01565b5b828204905092915050565b6000604082019050613da56000830185613a2d565b613db2602083018461357e565b9392505050565b600081519050613dc8816135b9565b92915050565b600060208284031215613de457613de36135a8565b5b6000613df284828501613db9565b91505092915050565b7f214f574e45520000000000000000000000000000000000000000000000000000600082015250565b6000613e316006836136fe565b9150613e3c82613dfb565b602082019050919050565b60006020820190508181036000830152613e6081613e24565b9050919050565b6000613e7282613574565b9150613e7d83613574565b9250827fffffffffffffffffffffffffffffffffffffffffffffffffffffffffffffffff03821115613eb257613eb1613d30565b5b828201905092915050565b6000613ec882613bdb565b9050919050565b613ed881613ebd565b82525050565b6000602082019050613ef36000830184613ecf565b92915050565b6000819050919050565b6000613f1e613f19613f1484613ef9565b613baf565b613574565b9050919050565b613f2e81613f03565b82525050565b6000604082019050613f496000830185613a2d565b613f566020830184613f25565b9392505050565b6000613f6882613574565b9150613f7383613574565b925082821015613f8657613f85613d30565b5b828203905092915050565b6000613f9c82613574565b9150613fa783613574565b9250817fffffffffffffffffffffffffffffffffffffffffffffffffffffffffffffffff0483118215151615613fe057613fdf613d30565b5b828202905092915050565b7f4e487b7100000000000000000000000000000000000000000000000000000000600052604160045260246000fd5b7f4e487b7100000000000000000000000000000000000000000000000000000000600052603260045260246000fd5b600081519050919050565b600082825260208201905092915050565b6000819050602082019050919050565b61407e816137ce565b82525050565b60006140908383614075565b60208301905092915050565b6000602082019050919050565b60006140b482614049565b6140be8185614054565b93506140c983614065565b8060005b838110156140fa5781516140e18882614084565b97506140ec8361409c565b9250506001810190506140cd565b5085935050505092915050565b600060808201905061411c6000830187613f25565b818103602083015261412e81866140a9565b905061413d6040830185613a2d565b61414a606083018461357e565b95945050505050565b7f5458204c696d6974204578636565646564000000000000000000000000000000600082015250565b60006141896011836136fe565b915061419482614153565b602082019050919050565b600060208201905081810360008301526141b88161417c565b9050919050565b600060a0820190506141d4600083018861357e565b6141e16020830187613f25565b81810360408301526141f381866140a9565b90506142026060830185613a2d565b61420f608083018461357e565b9695505050505050565b600060c08201905061422e6000830189613a2d565b61423b602083018861357e565b6142486040830187613f25565b6142556060830186613f25565b6142626080830185613a2d565b61426f60a083018461357e565b979650505050505050565b600081519050614289816135e5565b92915050565b6000806000606084860312156142a8576142a76135a8565b5b60006142b68682870161427a565b93505060206142c78682870161427a565b92505060406142d88682870161427a565b9150509250925092565b60006040820190506142f7600083018561357e565b614304602083018461357e565b939250505056fea26469706673582212203d2010cf4bb749c4e950d7260f557db836dbcdfa2de4fa40e833507f7bf9e7aa64736f6c634300080f003360806040527378867bbeef44f2326bf8ddd1941a4439382ef2a7600260006101000a81548173ffffffffffffffffffffffffffffffffffffffff021916908373ffffffffffffffffffffffffffffffffffffffff16021790555073ae13d989dac2f0debff460ac112a837c89baa7cd600360006101000a81548173ffffffffffffffffffffffffffffffffffffffff021916908373ffffffffffffffffffffffffffffffffffffffff1602179055506ec097ce7bc90715b34b9f1000000000600d55610e10600e556000600f55348015620000d957600080fd5b50604051620027dc380380620027dc8339818101604052810190620000ff919062000284565b600073ffffffffffffffffffffffffffffffffffffffff168273ffffffffffffffffffffffffffffffffffffffff16036200014f577310ed43c718714eb63d5aa57b78b54704e256024e62000151565b815b600460006101000a81548173ffffffffffffffffffffffffffffffffffffffff021916908373ffffffffffffffffffffffffffffffffffffffff160217905550336000806101000a81548173ffffffffffffffffffffffffffffffffffffffff021916908373ffffffffffffffffffffffffffffffffffffffff16021790555080600160006101000a81548173ffffffffffffffffffffffffffffffffffffffff021916908373ffffffffffffffffffffffffffffffffffffffff1602179055505050620002cb565b600080fd5b600073ffffffffffffffffffffffffffffffffffffffff82169050919050565b60006200024c826200021f565b9050919050565b6200025e816200023f565b81146200026a57600080fd5b50565b6000815190506200027e8162000253565b92915050565b600080604083850312156200029e576200029d6200021a565b5b6000620002ae858286016200026d565b9250506020620002c1858286016200026d565b9150509250929050565b61250180620002db6000396000f3fe6080604052600436106101235760003560e01c8063997664d7116100a0578063f0fc6bca11610064578063f0fc6bca146103c3578063f18567bf146103da578063f2fde38b14610403578063ffb2c4791461042c578063ffd49c84146104555761012a565b8063997664d7146102f9578063ce7c2ac214610324578063d0e30db014610363578063e2d2e2191461036d578063efca2eed146103985761012a565b80632d48e896116100e75780632d48e896146102125780633301e1481461023b5780633a98ef39146102785780634fab0ae8146102a3578063893d20e8146102ce5761012a565b806311ce023d1461012f57806314b6ca961461015a5780631a5a79241461018357806320da4ef0146101ac57806328fd3198146101d55761012a565b3661012a57005b600080fd5b34801561013b57600080fd5b50610144610480565b6040516101519190611d0f565b60405180910390f35b34801561016657600080fd5b50610181600480360381019061017c9190611db9565b610486565b005b34801561018f57600080fd5b506101aa60048036038101906101a59190611df9565b610745565b005b3480156101b857600080fd5b506101d360048036038101906101ce9190611e26565b610a12565b005b3480156101e157600080fd5b506101fc60048036038101906101f79190611e26565b610ad7565b6040516102099190611d0f565b60405180910390f35b34801561021e57600080fd5b5061023960048036038101906102349190611e53565b610bf0565b005b34801561024757600080fd5b50610262600480360381019061025d9190611db9565b610c77565b60405161026f9190611eae565b60405180910390f35b34801561028457600080fd5b5061028d610d74565b60405161029a9190611d0f565b60405180910390f35b3480156102af57600080fd5b506102b8610d7a565b6040516102c59190611d0f565b60405180910390f35b3480156102da57600080fd5b506102e3610d80565b6040516102f09190611ed8565b60405180910390f35b34801561030557600080fd5b5061030e610daa565b60405161031b9190611d0f565b60405180910390f35b34801561033057600080fd5b5061034b60048036038101906103469190611e26565b610db0565b60405161035a93929190611ef3565b60405180910390f35b61036b610dda565b005b34801561037957600080fd5b506103826111ac565b60405161038f9190611d0f565b60405180910390f35b3480156103a457600080fd5b506103ad6111b2565b6040516103ba9190611d0f565b60405180910390f35b3480156103cf57600080fd5b506103d86111b8565b005b3480156103e657600080fd5b5061040160048036038101906103fc9190611df9565b6111c3565b005b34801561040f57600080fd5b5061042a60048036038101906104259190611e26565b611373565b005b34801561043857600080fd5b50610453600480360381019061044e9190611df9565b61151d565b005b34801561046157600080fd5b5061046a6116b0565b6040516104779190611d0f565b60405180910390f35b600d5481565b60008054906101000a900473ffffffffffffffffffffffffffffffffffffffff1673ffffffffffffffffffffffffffffffffffffffff163373ffffffffffffffffffffffffffffffffffffffff16146104de57600080fd5b6000600860008473ffffffffffffffffffffffffffffffffffffffff1673ffffffffffffffffffffffffffffffffffffffff16815260200190815260200160002060000154111561053357610532826116b6565b5b60008111801561058557506000600860008473ffffffffffffffffffffffffffffffffffffffff1673ffffffffffffffffffffffffffffffffffffffff16815260200190815260200160002060000154145b156105985761059382611949565b6105fa565b6000811480156105ea57506000600860008473ffffffffffffffffffffffffffffffffffffffff1673ffffffffffffffffffffffffffffffffffffffff16815260200190815260200160002060000154115b156105f9576105f8826119f8565b5b5b61066381610655600860008673ffffffffffffffffffffffffffffffffffffffff1673ffffffffffffffffffffffffffffffffffffffff16815260200190815260200160002060000154600954611bff90919063ffffffff16565b611c1590919063ffffffff16565b60098190555080600860008473ffffffffffffffffffffffffffffffffffffffff1673ffffffffffffffffffffffffffffffffffffffff168152602001908152602001600020600001819055506106fb600860008473ffffffffffffffffffffffffffffffffffffffff1673ffffffffffffffffffffffffffffffffffffffff16815260200190815260200160002060000154611c2b565b600860008473ffffffffffffffffffffffffffffffffffffffff1673ffffffffffffffffffffffffffffffffffffffff168152602001908152602001600020600101819055505050565b3373ffffffffffffffffffffffffffffffffffffffff16610764610d80565b73ffffffffffffffffffffffffffffffffffffffff16146107ba576040517f08c379a00000000000000000000000000000000000000000000000000000000081526004016107b190611f87565b60405180910390fd5b6000600260009054906101000a900473ffffffffffffffffffffffffffffffffffffffff1673ffffffffffffffffffffffffffffffffffffffff166370a08231306040518263ffffffff1660e01b81526004016108179190611ed8565b602060405180830381865afa158015610834573d6000803e3d6000fd5b505050506040513d601f19601f820116820180604052508101906108589190611fbc565b9050600260009054906101000a900473ffffffffffffffffffffffffffffffffffffffff1673ffffffffffffffffffffffffffffffffffffffff166323b872dd3330856040518463ffffffff1660e01b81526004016108b993929190611fe9565b6020604051808303816000875af11580156108d8573d6000803e3d6000fd5b505050506040513d601f19601f820116820180604052508101906108fc919061204c565b5060006109ad82600260009054906101000a900473ffffffffffffffffffffffffffffffffffffffff1673ffffffffffffffffffffffffffffffffffffffff166370a08231306040518263ffffffff1660e01b815260040161095e9190611ed8565b602060405180830381865afa15801561097b573d6000803e3d6000fd5b505050506040513d601f19601f8201168201806040525081019061099f9190611fbc565b611bff90919063ffffffff16565b90506109c481600a54611c1590919063ffffffff16565b600a81905550610a076109f66009546109e884600d54611c5d90919063ffffffff16565b611c7390919063ffffffff16565b600c54611c1590919063ffffffff16565b600c81905550505050565b3373ffffffffffffffffffffffffffffffffffffffff16610a31610d80565b73ffffffffffffffffffffffffffffffffffffffff1614610a87576040517f08c379a0000000000000000000000000000000000000000000000000000000008152600401610a7e90611f87565b60405180910390fd5b60004790508173ffffffffffffffffffffffffffffffffffffffff166108fc829081150290604051600060405180830381858888f19350505050158015610ad2573d6000803e3d6000fd5b505050565b600080600860008473ffffffffffffffffffffffffffffffffffffffff1673ffffffffffffffffffffffffffffffffffffffff1681526020019081526020016000206000015403610b2b5760009050610beb565b6000610b78600860008573ffffffffffffffffffffffffffffffffffffffff1673ffffffffffffffffffffffffffffffffffffffff16815260200190815260200160002060000154611c2b565b90506000600860008573ffffffffffffffffffffffffffffffffffffffff1673ffffffffffffffffffffffffffffffffffffffff168152602001908152602001600020600101549050808211610bd357600092505050610beb565b610be68183611bff90919063ffffffff16565b925050505b919050565b3373ffffffffffffffffffffffffffffffffffffffff16610c0f610d80565b73ffffffffffffffffffffffffffffffffffffffff1614610c65576040517f08c379a0000000000000000000000000000000000000000000000000000000008152600401610c5c90611f87565b60405180910390fd5b81600e8190555080600f819055505050565b60003373ffffffffffffffffffffffffffffffffffffffff16610c98610d80565b73ffffffffffffffffffffffffffffffffffffffff1614610cee576040517f08c379a0000000000000000000000000000000000000000000000000000000008152600401610ce590611f87565b60405180910390fd5b8273ffffffffffffffffffffffffffffffffffffffff1663a9059cbb33846040518363ffffffff1660e01b8152600401610d29929190612079565b6020604051808303816000875af1158015610d48573d6000803e3d6000fd5b505050506040513d601f19601f82011682018060405250810190610d6c919061204c565b905092915050565b60095481565b600f5481565b6000600160009054906101000a900473ffffffffffffffffffffffffffffffffffffffff16905090565b600a5481565b60086020528060005260406000206000915090508060000154908060010154908060020154905083565b60008054906101000a900473ffffffffffffffffffffffffffffffffffffffff1673ffffffffffffffffffffffffffffffffffffffff163373ffffffffffffffffffffffffffffffffffffffff1614610e3257600080fd5b6000600260009054906101000a900473ffffffffffffffffffffffffffffffffffffffff1673ffffffffffffffffffffffffffffffffffffffff166370a08231306040518263ffffffff1660e01b8152600401610e8f9190611ed8565b602060405180830381865afa158015610eac573d6000803e3d6000fd5b505050506040513d601f19601f82011682018060405250810190610ed09190611fbc565b90506000600267ffffffffffffffff811115610eef57610eee6120a2565b5b604051908082528060200260200182016040528015610f1d5781602001602082028036833780820191505090505b509050600360009054906101000a900473ffffffffffffffffffffffffffffffffffffffff1681600081518110610f5757610f566120d1565b5b602002602001019073ffffffffffffffffffffffffffffffffffffffff16908173ffffffffffffffffffffffffffffffffffffffff1681525050600260009054906101000a900473ffffffffffffffffffffffffffffffffffffffff1681600181518110610fc857610fc76120d1565b5b602002602001019073ffffffffffffffffffffffffffffffffffffffff16908173ffffffffffffffffffffffffffffffffffffffff1681525050600460009054906101000a900473ffffffffffffffffffffffffffffffffffffffff1673ffffffffffffffffffffffffffffffffffffffff1663b6f9de953460008430426040518663ffffffff1660e01b81526004016110659493929190612203565b6000604051808303818588803b15801561107e57600080fd5b505af1158015611092573d6000803e3d6000fd5b5050505050600061114783600260009054906101000a900473ffffffffffffffffffffffffffffffffffffffff1673ffffffffffffffffffffffffffffffffffffffff166370a08231306040518263ffffffff1660e01b81526004016110f89190611ed8565b602060405180830381865afa158015611115573d6000803e3d6000fd5b505050506040513d601f19601f820116820180604052508101906111399190611fbc565b611bff90919063ffffffff16565b905061115e81600a54611c1590919063ffffffff16565b600a819055506111a161119060095461118284600d54611c5d90919063ffffffff16565b611c7390919063ffffffff16565b600c54611c1590919063ffffffff16565b600c81905550505050565b600c5481565b600b5481565b6111c1336116b6565b565b3373ffffffffffffffffffffffffffffffffffffffff166111e2610d80565b73ffffffffffffffffffffffffffffffffffffffff1614611238576040517f08c379a000000000000000000000000000000000000000000000000000000000815260040161122f90611f87565b60405180910390fd5b60006005805490509050600081036112505750611370565b6000805a905060005b848310801561126757508381105b1561136b57836010541061127e5760006010819055505b6112c7600560105481548110611297576112966120d1565b5b9060005260206000200160009054906101000a900473ffffffffffffffffffffffffffffffffffffffff16611c89565b15611316576113156005601054815481106112e5576112e46120d1565b5b9060005260206000200160009054906101000a900473ffffffffffffffffffffffffffffffffffffffff166116b6565b5b61133b61132c5a84611bff90919063ffffffff16565b84611c1590919063ffffffff16565b92505a9150601060008154809291906113539061227e565b919050555080806113639061227e565b915050611259565b505050505b50565b3373ffffffffffffffffffffffffffffffffffffffff16611392610d80565b73ffffffffffffffffffffffffffffffffffffffff16146113e8576040517f08c379a00000000000000000000000000000000000000000000000000000000081526004016113df90611f87565b60405180910390fd5b600073ffffffffffffffffffffffffffffffffffffffff168173ffffffffffffffffffffffffffffffffffffffff1603611457576040517f08c379a000000000000000000000000000000000000000000000000000000000815260040161144e90612338565b60405180910390fd5b6000600160009054906101000a900473ffffffffffffffffffffffffffffffffffffffff16905081600160006101000a81548173ffffffffffffffffffffffffffffffffffffffff021916908373ffffffffffffffffffffffffffffffffffffffff1602179055508173ffffffffffffffffffffffffffffffffffffffff168173ffffffffffffffffffffffffffffffffffffffff167f8be0079c531659141344cd1fd0a4f28419497f9722a3daafe3b4186f6b6457e060405160405180910390a35050565b60008054906101000a900473ffffffffffffffffffffffffffffffffffffffff1673ffffffffffffffffffffffffffffffffffffffff163373ffffffffffffffffffffffffffffffffffffffff161461157557600080fd5b600060058054905090506000810361158d57506116ad565b6000805a905060005b84831080156115a457508381105b156116a85783601054106115bb5760006010819055505b6116046005601054815481106115d4576115d36120d1565b5b9060005260206000200160009054906101000a900473ffffffffffffffffffffffffffffffffffffffff16611c89565b1561165357611652600560105481548110611622576116216120d1565b5b9060005260206000200160009054906101000a900473ffffffffffffffffffffffffffffffffffffffff166116b6565b5b6116786116695a84611bff90919063ffffffff16565b84611c1590919063ffffffff16565b92505a9150601060008154809291906116909061227e565b919050555080806116a09061227e565b915050611596565b505050505b50565b600e5481565b6000600860008373ffffffffffffffffffffffffffffffffffffffff1673ffffffffffffffffffffffffffffffffffffffff16815260200190815260200160002060000154031561194657600061170c82610ad7565b905060008111156119445761172c81600b54611c1590919063ffffffff16565b600b81905550600260009054906101000a900473ffffffffffffffffffffffffffffffffffffffff1673ffffffffffffffffffffffffffffffffffffffff1663a9059cbb83836040518363ffffffff1660e01b815260040161178f929190612079565b6020604051808303816000875af11580156117ae573d6000803e3d6000fd5b505050506040513d601f19601f820116820180604052508101906117d2919061204c565b5042600760008473ffffffffffffffffffffffffffffffffffffffff1673ffffffffffffffffffffffffffffffffffffffff1681526020019081526020016000208190555061186c81600860008573ffffffffffffffffffffffffffffffffffffffff1673ffffffffffffffffffffffffffffffffffffffff16815260200190815260200160002060020154611c1590919063ffffffff16565b600860008473ffffffffffffffffffffffffffffffffffffffff1673ffffffffffffffffffffffffffffffffffffffff168152602001908152602001600020600201819055506118fd600860008473ffffffffffffffffffffffffffffffffffffffff1673ffffffffffffffffffffffffffffffffffffffff16815260200190815260200160002060000154611c2b565b600860008473ffffffffffffffffffffffffffffffffffffffff1673ffffffffffffffffffffffffffffffffffffffff168152602001908152602001600020600101819055505b505b50565b600580549050600660008373ffffffffffffffffffffffffffffffffffffffff1673ffffffffffffffffffffffffffffffffffffffff168152602001908152602001600020819055506005819080600181540180825580915050600190039060005260206000200160009091909190916101000a81548173ffffffffffffffffffffffffffffffffffffffff021916908373ffffffffffffffffffffffffffffffffffffffff16021790555050565b60056001600580549050611a0c9190612358565b81548110611a1d57611a1c6120d1565b5b9060005260206000200160009054906101000a900473ffffffffffffffffffffffffffffffffffffffff166005600660008473ffffffffffffffffffffffffffffffffffffffff1673ffffffffffffffffffffffffffffffffffffffff1681526020019081526020016000205481548110611a9b57611a9a6120d1565b5b9060005260206000200160006101000a81548173ffffffffffffffffffffffffffffffffffffffff021916908373ffffffffffffffffffffffffffffffffffffffff160217905550600660008273ffffffffffffffffffffffffffffffffffffffff1673ffffffffffffffffffffffffffffffffffffffff168152602001908152602001600020546006600060056001600580549050611b3b9190612358565b81548110611b4c57611b4b6120d1565b5b9060005260206000200160009054906101000a900473ffffffffffffffffffffffffffffffffffffffff1673ffffffffffffffffffffffffffffffffffffffff1673ffffffffffffffffffffffffffffffffffffffff168152602001908152602001600020819055506005805480611bc757611bc661238c565b5b6001900381819060005260206000200160006101000a81549073ffffffffffffffffffffffffffffffffffffffff0219169055905550565b60008183611c0d9190612358565b905092915050565b60008183611c2391906123bb565b905092915050565b6000611c56600d54611c48600c5485611c5d90919063ffffffff16565b611c7390919063ffffffff16565b9050919050565b60008183611c6b9190612411565b905092915050565b60008183611c81919061249a565b905092915050565b600042600e54600760008573ffffffffffffffffffffffffffffffffffffffff1673ffffffffffffffffffffffffffffffffffffffff16815260200190815260200160002054611cd991906123bb565b108015611cef5750600f54611ced83610ad7565b115b9050919050565b6000819050919050565b611d0981611cf6565b82525050565b6000602082019050611d246000830184611d00565b92915050565b600080fd5b600073ffffffffffffffffffffffffffffffffffffffff82169050919050565b6000611d5a82611d2f565b9050919050565b611d6a81611d4f565b8114611d7557600080fd5b50565b600081359050611d8781611d61565b92915050565b611d9681611cf6565b8114611da157600080fd5b50565b600081359050611db381611d8d565b92915050565b60008060408385031215611dd057611dcf611d2a565b5b6000611dde85828601611d78565b9250506020611def85828601611da4565b9150509250929050565b600060208284031215611e0f57611e0e611d2a565b5b6000611e1d84828501611da4565b91505092915050565b600060208284031215611e3c57611e3b611d2a565b5b6000611e4a84828501611d78565b91505092915050565b60008060408385031215611e6a57611e69611d2a565b5b6000611e7885828601611da4565b9250506020611e8985828601611da4565b9150509250929050565b60008115159050919050565b611ea881611e93565b82525050565b6000602082019050611ec36000830184611e9f565b92915050565b611ed281611d4f565b82525050565b6000602082019050611eed6000830184611ec9565b92915050565b6000606082019050611f086000830186611d00565b611f156020830185611d00565b611f226040830184611d00565b949350505050565b600082825260208201905092915050565b7f4f776e61626c653a2063616c6c6572206973206e6f7420746865206f776e6572600082015250565b6000611f71602083611f2a565b9150611f7c82611f3b565b602082019050919050565b60006020820190508181036000830152611fa081611f64565b9050919050565b600081519050611fb681611d8d565b92915050565b600060208284031215611fd257611fd1611d2a565b5b6000611fe084828501611fa7565b91505092915050565b6000606082019050611ffe6000830186611ec9565b61200b6020830185611ec9565b6120186040830184611d00565b949350505050565b61202981611e93565b811461203457600080fd5b50565b60008151905061204681612020565b92915050565b60006020828403121561206257612061611d2a565b5b600061207084828501612037565b91505092915050565b600060408201905061208e6000830185611ec9565b61209b6020830184611d00565b9392505050565b7f4e487b7100000000000000000000000000000000000000000000000000000000600052604160045260246000fd5b7f4e487b7100000000000000000000000000000000000000000000000000000000600052603260045260246000fd5b6000819050919050565b6000819050919050565b600061212f61212a61212584612100565b61210a565b611cf6565b9050919050565b61213f81612114565b82525050565b600081519050919050565b600082825260208201905092915050565b6000819050602082019050919050565b61217a81611d4f565b82525050565b600061218c8383612171565b60208301905092915050565b6000602082019050919050565b60006121b082612145565b6121ba8185612150565b93506121c583612161565b8060005b838110156121f65781516121dd8882612180565b97506121e883612198565b9250506001810190506121c9565b5085935050505092915050565b60006080820190506122186000830187612136565b818103602083015261222a81866121a5565b90506122396040830185611ec9565b6122466060830184611d00565b95945050505050565b7f4e487b7100000000000000000000000000000000000000000000000000000000600052601160045260246000fd5b600061228982611cf6565b91507fffffffffffffffffffffffffffffffffffffffffffffffffffffffffffffffff82036122bb576122ba61224f565b5b600182019050919050565b7f4f776e61626c653a206e6577206f776e657220697320746865207a65726f206160008201527f6464726573730000000000000000000000000000000000000000000000000000602082015250565b6000612322602683611f2a565b915061232d826122c6565b604082019050919050565b6000602082019050818103600083015261235181612315565b9050919050565b600061236382611cf6565b915061236e83611cf6565b9250828210156123815761238061224f565b5b828203905092915050565b7f4e487b7100000000000000000000000000000000000000000000000000000000600052603160045260246000fd5b60006123c682611cf6565b91506123d183611cf6565b9250827fffffffffffffffffffffffffffffffffffffffffffffffffffffffffffffffff038211156124065761240561224f565b5b828201905092915050565b600061241c82611cf6565b915061242783611cf6565b9250817fffffffffffffffffffffffffffffffffffffffffffffffffffffffffffffffff04831182151516156124605761245f61224f565b5b828202905092915050565b7f4e487b7100000000000000000000000000000000000000000000000000000000600052601260045260246000fd5b60006124a582611cf6565b91506124b083611cf6565b9250826124c0576124bf61246b565b5b82820490509291505056fea2646970667358221220506d1ff5aae82a6876ee3fcd4037449cb7642b5a06cb18a588e130ba0fb1176f64736f6c634300080f0033",
  "immutableReferences": {},
  "source": "//SPDX-License-Identifier: MIT\npragma solidity ^0.8.0;\n\n\n/////////////////////////////////////////////////////////////////////////////////////\n//                                                                                 //\n//                 /////  ///      ////  ///       ///  ////////////  ///          //\n//              ////      ///    ///       ///    ///   ///           ///          //\n//            ////        ///  ///           /// ///    ///                        //\n//          ////          //////              /////     ////////      ///          // \n//          ////          ///                  ///      ///           ///          //\n//           ////         ///                 ///       ///           ///          //\n//             ////       ///                ///        ///           ///          //\n//               /////    ///               ///         ///           ///          //\n//                                                                                 //\n/////////////////////////////////////////////////////////////////////////////////////\n\n\n/**\n * SAFEMATH LIBRARY\n */\nlibrary SafeMath {\n    \n    function tryAdd(uint256 a, uint256 b) internal pure returns (bool, uint256) {\n        unchecked {\n            uint256 c = a + b;\n            if (c < a) return (false, 0);\n            return (true, c);\n        }\n    }\n\n    function trySub(uint256 a, uint256 b) internal pure returns (bool, uint256) {\n        unchecked {\n            if (b > a) return (false, 0);\n            return (true, a - b);\n        }\n    }\n\n    function tryMul(uint256 a, uint256 b) internal pure returns (bool, uint256) {\n        unchecked {\n            // Gas optimization: this is cheaper than requiring 'a' not being zero, but the\n            // benefit is lost if 'b' is also tested.\n            // See: https://github.com/OpenZeppelin/openzeppelin-contracts/pull/522\n            if (a == 0) return (true, 0);\n            uint256 c = a * b;\n            if (c / a != b) return (false, 0);\n            return (true, c);\n        }\n    }\n\n    function tryDiv(uint256 a, uint256 b) internal pure returns (bool, uint256) {\n        unchecked {\n            if (b == 0) return (false, 0);\n            return (true, a / b);\n        }\n    }\n\n    function tryMod(uint256 a, uint256 b) internal pure returns (bool, uint256) {\n        unchecked {\n            if (b == 0) return (false, 0);\n            return (true, a % b);\n        }\n    }\n\n    function add(uint256 a, uint256 b) internal pure returns (uint256) {\n        return a + b;\n    }\n\n    function sub(uint256 a, uint256 b) internal pure returns (uint256) {\n        return a - b;\n    }\n\n    function mul(uint256 a, uint256 b) internal pure returns (uint256) {\n        return a * b;\n    }\n\n    function div(uint256 a, uint256 b) internal pure returns (uint256) {\n        return a / b;\n    }\n\n    function mod(uint256 a, uint256 b) internal pure returns (uint256) {\n        return a % b;\n    }\n\n    function sub(uint256 a, uint256 b, string memory errorMessage) internal pure returns (uint256) {\n        unchecked {\n            require(b <= a, errorMessage);\n            return a - b;\n        }\n    }\n\n    function div(uint256 a, uint256 b, string memory errorMessage) internal pure returns (uint256) {\n        unchecked {\n            require(b > 0, errorMessage);\n            return a / b;\n        }\n    }\n\n    function mod(uint256 a, uint256 b, string memory errorMessage) internal pure returns (uint256) {\n        unchecked {\n            require(b > 0, errorMessage);\n            return a % b;\n        }\n    }\n}\n\ninterface IBEP20 {\n    function totalSupply() external view returns (uint256);\n    function decimals() external view returns (uint8);\n    function symbol() external view returns (string memory);\n    function name() external view returns (string memory);\n    function getOwner() external view returns (address);\n    function balanceOf(address account) external view returns (uint256);\n    function transfer(address recipient, uint256 amount) external returns (bool);\n    function allowance(address _owner, address spender) external view returns (uint256);\n    function approve(address spender, uint256 amount) external returns (bool);\n    function transferFrom(address sender, address recipient, uint256 amount) external returns (bool);\n    event Transfer(address indexed from, address indexed to, uint256 value);\n    event Approval(address indexed owner, address indexed spender, uint256 value);\n}\n\nabstract contract Auth {\n    address internal owner;\n    mapping (address => bool) internal authorizations;\n\n    constructor(address _owner) {\n        owner = _owner;\n        authorizations[_owner] = true;\n    }\n\n    /**\n     * Function modifier to require caller to be contract owner\n     */\n    modifier onlyOwner() {\n        require(isOwner(msg.sender), \"!OWNER\"); _;\n    }\n\n    /**\n     * Function modifier to require caller to be authorized\n     */\n    modifier authorized() {\n        require(isAuthorized(msg.sender), \"!AUTHORIZED\"); _;\n    }\n\n    /**\n     * Authorize address. Owner only\n     */\n    function authorize(address adr) public onlyOwner {\n        authorizations[adr] = true;\n    }\n\n    /**\n     * Remove address' authorization. Owner only\n     */\n    function unauthorize(address adr) public onlyOwner {\n        authorizations[adr] = false;\n    }\n\n    /**\n     * Check if address is owner\n     */\n    function isOwner(address account) public view returns (bool) {\n        return account == owner;\n    }\n\n    /**\n     * Return address' authorization status\n     */\n    function isAuthorized(address adr) public view returns (bool) {\n        return authorizations[adr];\n    }\n\n    /**\n     * Transfer ownership to new address. Caller must be owner. Leaves old owner authorized\n     */\n    function transferOwnership(address payable adr) public onlyOwner {\n        owner = adr;\n        authorizations[adr] = true;\n        emit OwnershipTransferred(adr);\n    }\n\n    event OwnershipTransferred(address owner);\n}\n\ninterface IDEXFactory {\n    function createPair(address tokenA, address tokenB) external returns (address pair);\n}\n\ninterface IDEXRouter {\n    function factory() external pure returns (address);\n    function WETH() external pure returns (address);\n\n    function addLiquidity(\n        address tokenA,\n        address tokenB,\n        uint amountADesired,\n        uint amountBDesired,\n        uint amountAMin,\n        uint amountBMin,\n        address to,\n        uint deadline\n    ) external returns (uint amountA, uint amountB, uint liquidity);\n\n    function addLiquidityETH(\n        address token,\n        uint amountTokenDesired,\n        uint amountTokenMin,\n        uint amountETHMin,\n        address to,\n        uint deadline\n    ) external payable returns (uint amountToken, uint amountETH, uint liquidity);\n\n    function swapExactTokensForTokensSupportingFeeOnTransferTokens(\n        uint amountIn,\n        uint amountOutMin,\n        address[] calldata path,\n        address to,\n        uint deadline\n    ) external;\n\n    function swapExactETHForTokensSupportingFeeOnTransferTokens(\n        uint amountOutMin,\n        address[] calldata path,\n        address to,\n        uint deadline\n    ) external payable;\n\n    function swapExactTokensForETHSupportingFeeOnTransferTokens(\n        uint amountIn,\n        uint amountOutMin,\n        address[] calldata path,\n        address to,\n        uint deadline\n    ) external;\n}\n\ninterface IDividendDistributor {\n    function setDistributionCriteria(uint256 _minPeriod, uint256 _minDistribution) external;\n    function setShare(address shareholder, uint256 amount) external;\n    function deposit() external payable;\n    function manualDeposit(uint256 amount) external;\n    function process(uint256 gas) external;\n    function manualProcess(uint256 gas) external;\n}\n\ncontract DividendDistributor is IDividendDistributor{\n    using SafeMath for uint256;\n\n    address _token;\n    address private _owner;\n\n    event OwnershipTransferred(address indexed previousOwner, address indexed newOwner);\n\n    struct Share {\n        uint256 amount;\n        uint256 totalExcluded;\n        uint256 totalRealised;\n    }\n\n    IBEP20 BUSD = IBEP20(0x78867BbEeF44f2326bF8DDd1941a4439382EF2A7);\n    address WBNB = 0xae13d989daC2f0dEbFf460aC112a837C89BAa7cd;\n    IDEXRouter router;\n\n    address[] shareholders;\n    mapping (address => uint256) shareholderIndexes;\n    mapping (address => uint256) shareholderClaims;\n\n    mapping (address => Share) public shares;\n\n    uint256 public totalShares;\n    uint256 public totalDividends;\n    uint256 public totalDistributed;\n    uint256 public dividendsPerShare;\n    uint256 public dividendsPerShareAccuracyFactor = 10 ** 36;\n\n    uint256 public minPeriod = 1 hours;\n    uint256 public minDistribution = 0;\n\n    uint256 currentIndex;\n\n    bool initialized;\n    modifier initialization() {\n        require(!initialized);\n        _;\n        initialized = true;\n    }\n    modifier onlyOwner() {\n        require(getOwner() == msg.sender, \"Ownable: caller is not the owner\");\n        _;\n    }\n    modifier onlyToken() {\n        require(msg.sender == _token); _;\n    }\n\n    constructor (address _router,address owner) {\n        router = _router != address(0)\n        ? IDEXRouter(_router)\n        : IDEXRouter(0x10ED43C718714eb63d5aA57B78B54704E256024E);\n        _token = msg.sender;\n        _owner = owner;\n    }\n    \n    receive() external payable { }\n\n    function getOwner() public view virtual returns (address) {\n        return _owner;\n    }\n\n    function transferOwnership(address newOwner) public virtual onlyOwner {\n        require(newOwner != address(0), \"Ownable: new owner is the zero address\");\n        address oldOwner = _owner;\n        _owner = newOwner;\n        emit OwnershipTransferred(oldOwner, newOwner);\n    }\n\n    function setDistributionCriteria(uint256 _minPeriod, uint256 _minDistribution) external override onlyOwner {\n        minPeriod = _minPeriod;\n        minDistribution = _minDistribution;\n    }\n\n    function setShare(address shareholder, uint256 amount) external override onlyToken {\n        if(shares[shareholder].amount > 0){\n            distributeDividend(shareholder);\n        }\n\n        if(amount > 0 && shares[shareholder].amount == 0){\n            addShareholder(shareholder);\n        }else if(amount == 0 && shares[shareholder].amount > 0){\n            removeShareholder(shareholder);\n        }\n\n        totalShares = totalShares.sub(shares[shareholder].amount).add(amount);\n        shares[shareholder].amount = amount;\n        shares[shareholder].totalExcluded = getCumulativeDividends(shares[shareholder].amount);\n    }\n\n    function deposit() external payable override onlyToken {\n        uint256 balanceBefore = BUSD.balanceOf(address(this));\n\n        address[] memory path = new address[](2);\n        path[0] = WBNB;\n        path[1] = address(BUSD);\n\n        router.swapExactETHForTokensSupportingFeeOnTransferTokens{value: msg.value}(\n            0,\n            path,\n            address(this),\n            block.timestamp\n        );\n\n        uint256 amount = BUSD.balanceOf(address(this)).sub(balanceBefore);\n\n        totalDividends = totalDividends.add(amount);\n        dividendsPerShare = dividendsPerShare.add(dividendsPerShareAccuracyFactor.mul(amount).div(totalShares));\n    }\n    \n    function manualDeposit(uint256 BUSDAmount) external override onlyOwner {\n        uint256 balanceBefore = BUSD.balanceOf(address(this));\n\n        BUSD.transferFrom(msg.sender, address(this), BUSDAmount);\n\n        uint256 amount = BUSD.balanceOf(address(this)).sub(balanceBefore);\n        totalDividends = totalDividends.add(amount);\n        dividendsPerShare = dividendsPerShare.add(dividendsPerShareAccuracyFactor.mul(amount).div(totalShares));\n    }\n\n    function process(uint256 gas) external override onlyToken {\n        uint256 shareholderCount = shareholders.length;\n\n        if(shareholderCount == 0) { return; }\n\n        uint256 gasUsed = 0;\n        uint256 gasLeft = gasleft();\n\n        uint256 iterations = 0;\n\n        while(gasUsed < gas && iterations < shareholderCount) {\n            if(currentIndex >= shareholderCount){\n                currentIndex = 0;\n            }\n\n            if(shouldDistribute(shareholders[currentIndex])){\n                distributeDividend(shareholders[currentIndex]);\n            }\n\n            gasUsed = gasUsed.add(gasLeft.sub(gasleft()));\n            gasLeft = gasleft();\n            currentIndex++;\n            iterations++;\n        }\n    }\n\n    function manualProcess(uint256 gas) external override onlyOwner {\n        uint256 shareholderCount = shareholders.length;\n\n        if(shareholderCount == 0) { return; }\n\n        uint256 gasUsed = 0;\n        uint256 gasLeft = gasleft();\n\n        uint256 iterations = 0;\n\n        while(gasUsed < gas && iterations < shareholderCount) {\n            if(currentIndex >= shareholderCount){\n                currentIndex = 0;\n            }\n\n            if(shouldDistribute(shareholders[currentIndex])){\n                distributeDividend(shareholders[currentIndex]);\n            }\n\n            gasUsed = gasUsed.add(gasLeft.sub(gasleft()));\n            gasLeft = gasleft();\n            currentIndex++;\n            iterations++;\n        }\n    } \n    function shouldDistribute(address shareholder) internal view returns (bool) {\n        return shareholderClaims[shareholder] + minPeriod < block.timestamp\n        && getUnpaidEarnings(shareholder) > minDistribution;\n    }\n\n    function distributeDividend(address shareholder) internal {\n        if(shares[shareholder].amount == 0){ return; }\n\n        uint256 amount = getUnpaidEarnings(shareholder);\n        if(amount > 0){\n            totalDistributed = totalDistributed.add(amount);\n            BUSD.transfer(shareholder, amount);\n            shareholderClaims[shareholder] = block.timestamp;\n            shares[shareholder].totalRealised = shares[shareholder].totalRealised.add(amount);\n            shares[shareholder].totalExcluded = getCumulativeDividends(shares[shareholder].amount);\n        }\n    }\n\n    function claimDividend() external {\n        distributeDividend(msg.sender);\n    }\n\n    function getUnpaidEarnings(address shareholder) public view returns (uint256) {\n        if(shares[shareholder].amount == 0){ return 0; }\n\n        uint256 shareholderTotalDividends = getCumulativeDividends(shares[shareholder].amount);\n        uint256 shareholderTotalExcluded = shares[shareholder].totalExcluded;\n\n        if(shareholderTotalDividends <= shareholderTotalExcluded){ return 0; }\n\n        return shareholderTotalDividends.sub(shareholderTotalExcluded);\n    }\n\n    function getCumulativeDividends(uint256 share) internal view returns (uint256) {\n        return share.mul(dividendsPerShare).div(dividendsPerShareAccuracyFactor);\n    }\n\n    function addShareholder(address shareholder) internal {\n        shareholderIndexes[shareholder] = shareholders.length;\n        shareholders.push(shareholder);\n    }\n\n    function removeShareholder(address shareholder) internal {\n        shareholders[shareholderIndexes[shareholder]] = shareholders[shareholders.length-1];\n        shareholderIndexes[shareholders[shareholders.length-1]] = shareholderIndexes[shareholder];\n        shareholders.pop();\n    }\n\n    function clearDividenStuckBalance(address _receiver) external onlyOwner {\n        uint256 balance = address(this).balance;\n        payable(_receiver).transfer(balance);\n    }\n\n    function rescueDistrbuterToken(address tokenAddress, uint256 tokens) external onlyOwner returns (bool success){\n        return IBEP20(tokenAddress).transfer(msg.sender, tokens);\n    }\n\n}\n\ncontract CryFiToken is IBEP20, Auth {\n    using SafeMath for uint256;\n\n    uint256 public constant MASK = type(uint128).max;\n    address BUSD = 0x78867BbEeF44f2326bF8DDd1941a4439382EF2A7;\n    address public WBNB = 0xae13d989daC2f0dEbFf460aC112a837C89BAa7cd;\n    address DEAD = 0x000000000000000000000000000000000000dEaD;\n    address ZERO = 0x0000000000000000000000000000000000000000;\n    address DEAD_NON_CHECKSUM = 0x000000000000000000000000000000000000dEaD;\n\n    string constant _name = \"CryFi Earn\";\n    string constant _symbol = \"CRYFI\";\n    uint8 constant _decimals = 9;\n\n    uint256 _totalSupply = 1_000_000_000_000_000 * (10 ** _decimals);\n    uint256 public _maxTxAmount = _totalSupply.div(800); // 0.125%\n\n    mapping (address => uint256) _balances;\n    mapping (address => mapping (address => uint256)) _allowances;\n\n    mapping (address => bool) isFeeExempt;\n    mapping (address => bool) isTxLimitExempt;\n    mapping (address => bool) isDividendExempt;\n\n    uint256 liquidityFee = 100;\n    uint256 buybackFee = 100;\n    uint256 reflectionFee = 800;\n    uint256 marketingFee = 400;\n    uint256 totalFee = 1400;\n    uint256 feeDenominator = 10000;\n\n    address public autoLiquidityReceiver;\n    address public marketingFeeReceiver;\n\n    uint256 targetLiquidity = 25;\n    uint256 targetLiquidityDenominator = 100;\n\n    IDEXRouter public router;\n    address public pair;\n\n    uint256 public launchedAt;\n    uint256 public launchedAtTimestamp;\n\n    uint256 buybackMultiplierNumerator = 200;\n    uint256 buybackMultiplierDenominator = 100;\n    uint256 buybackMultiplierTriggeredAt;\n    uint256 buybackMultiplierLength = 30 minutes;\n\n    bool public autoBuybackEnabled = false;\n    mapping (address => bool) buyBacker;\n    uint256 autoBuybackCap;\n    uint256 autoBuybackAccumulator;\n    uint256 autoBuybackAmount;\n    uint256 autoBuybackBlockPeriod;\n    uint256 autoBuybackBlockLast;\n\n    DividendDistributor distributor;\n    address public distributorAddress;\n\n    uint256 distributorGas = 500000;\n\n    bool public swapEnabled = true;\n    uint256 public swapThreshold = _totalSupply / 2000; // 0.005%\n    bool inSwap;\n    modifier swapping() { inSwap = true; _; inSwap = false; }\n\n    constructor (\n        address _dexRouter\n    ) Auth(msg.sender) {\n        router = IDEXRouter(_dexRouter);\n        pair = IDEXFactory(router.factory()).createPair(WBNB, address(this));\n        _allowances[address(this)][address(router)] = _totalSupply;\n        WBNB = router.WETH();\n        distributor = new DividendDistributor(_dexRouter, msg.sender);\n        distributorAddress = address(distributor);\n\n        isFeeExempt[msg.sender] = true;\n        isTxLimitExempt[msg.sender] = true;\n        isDividendExempt[pair] = true;\n        isDividendExempt[address(this)] = true;\n        isDividendExempt[DEAD] = true;\n        buyBacker[msg.sender] = true;\n\n        autoLiquidityReceiver = msg.sender;\n        marketingFeeReceiver = msg.sender;\n\n        approve(_dexRouter, _totalSupply);\n        approve(address(pair), _totalSupply);\n        _balances[msg.sender] = _totalSupply;\n        emit Transfer(address(0), msg.sender, _totalSupply);\n    }\n\n    receive() external payable { }\n\n    function totalSupply() external view override returns (uint256) { return _totalSupply; }\n    function decimals() external pure override returns (uint8) { return _decimals; }\n    function symbol() external pure override returns (string memory) { return _symbol; }\n    function name() external pure override returns (string memory) { return _name; }\n    function getOwner() external view override returns (address) { return owner; }\n    modifier onlyBuybacker() { require(buyBacker[msg.sender] == true, \"\"); _; }\n    function balanceOf(address account) public view override returns (uint256) { return _balances[account]; }\n    function allowance(address holder, address spender) external view override returns (uint256) { return _allowances[holder][spender]; }\n\n    function approve(address spender, uint256 amount) public override returns (bool) {\n        _allowances[msg.sender][spender] = amount;\n        emit Approval(msg.sender, spender, amount);\n        return true;\n    }\n\n    function approveMax(address spender) external returns (bool) {\n        return approve(spender, _totalSupply);\n    }\n\n    function transfer(address recipient, uint256 amount) external override returns (bool) {\n        return _transferFrom(msg.sender, recipient, amount);\n    }\n\n    function transferFrom(address sender, address recipient, uint256 amount) external override returns (bool) {\n        if(_allowances[sender][msg.sender] != _totalSupply){\n            _allowances[sender][msg.sender] = _allowances[sender][msg.sender].sub(amount, \"Insufficient Allowance\");\n        }\n\n        return _transferFrom(sender, recipient, amount);\n    }\n\n    function _transferFrom(address sender, address recipient, uint256 amount) internal returns (bool) {\n        if(inSwap){ return _basicTransfer(sender, recipient, amount); }\n\n        checkTxLimit(sender, amount);\n        //\n        if(shouldSwapBack()){ swapBack(); }\n        if(shouldAutoBuyback()){ triggerAutoBuyback(); }\n\n        //        if(!launched() && recipient == pair){ require(_balances[sender] > 0); launch(); }\n\n        _balances[sender] = _balances[sender].sub(amount, \"Insufficient Balance\");\n\n        uint256 amountReceived = shouldTakeFee(sender) ? takeFee(sender, recipient, amount) : amount;\n\n        _balances[recipient] = _balances[recipient].add(amountReceived);\n\n        if(!isDividendExempt[sender]){ try distributor.setShare(sender, _balances[sender]) {} catch {} }\n        if(!isDividendExempt[recipient]){ try distributor.setShare(recipient, _balances[recipient]) {} catch {} }\n\n        try distributor.process(distributorGas) {} catch {}\n\n        emit Transfer(sender, recipient, amountReceived);\n        return true;\n    }\n\n    function _basicTransfer(address sender, address recipient, uint256 amount) internal returns (bool) {\n        _balances[sender] = _balances[sender].sub(amount, \"Insufficient Balance\");\n        _balances[recipient] = _balances[recipient].add(amount);\n        emit Transfer(sender, recipient, amount);\n        return true;\n    }\n\n\n\n    function checkTxLimit(address sender, uint256 amount) internal view {\n        require(amount <= _maxTxAmount || isTxLimitExempt[sender], \"TX Limit Exceeded\");\n    }\n\n    function shouldTakeFee(address sender) internal view returns (bool) {\n        return !isFeeExempt[sender];\n    }\n\n    function getTotalFee(bool selling) public view returns (uint256) {\n        if(launchedAt + 1 >= block.number){ return feeDenominator.sub(1); }\n        if(selling){ return getMultipliedFee(); }\n        return totalFee;\n    }\n\n    function getMultipliedFee() public view returns (uint256) {\n        if (launchedAtTimestamp + 1 days > block.timestamp) {\n            return totalFee.mul(18000).div(feeDenominator);\n        } else if (buybackMultiplierTriggeredAt.add(buybackMultiplierLength) > block.timestamp) {\n            uint256 remainingTime = buybackMultiplierTriggeredAt.add(buybackMultiplierLength).sub(block.timestamp);\n            uint256 feeIncrease = totalFee.mul(buybackMultiplierNumerator).div(buybackMultiplierDenominator).sub(totalFee);\n            return totalFee.add(feeIncrease.mul(remainingTime).div(buybackMultiplierLength));\n        }\n        return totalFee;\n    }\n\n    function takeFee(address sender, address receiver, uint256 amount) internal returns (uint256) {\n        uint256 feeAmount = amount.mul(getTotalFee(receiver == pair)).div(feeDenominator);\n\n        _balances[address(this)] = _balances[address(this)].add(feeAmount);\n        emit Transfer(sender, address(this), feeAmount);\n\n        return amount.sub(feeAmount);\n    }\n\n    function shouldSwapBack() internal view returns (bool) {\n        return msg.sender != pair\n        && !inSwap\n        && swapEnabled\n        && _balances[address(this)] >= swapThreshold;\n    }\n\n    function swapBack() internal swapping {\n        uint256 dynamicLiquidityFee = isOverLiquified(targetLiquidity, targetLiquidityDenominator) ? 0 : liquidityFee;\n        uint256 amountToLiquify = swapThreshold.mul(dynamicLiquidityFee).div(totalFee).div(2);\n        uint256 amountToSwap = swapThreshold.sub(amountToLiquify);\n\n        address[] memory path = new address[](2);\n        path[0] = address(this);\n        path[1] = WBNB;\n        uint256 balanceBefore = address(this).balance;\n\n        router.swapExactTokensForETHSupportingFeeOnTransferTokens(\n            amountToSwap,\n            0,\n            path,\n            address(this),\n            block.timestamp\n        );\n\n        uint256 amountBNB = address(this).balance.sub(balanceBefore);\n\n        uint256 totalBNBFee = totalFee.sub(dynamicLiquidityFee.div(2));\n\n        uint256 amountBNBLiquidity = amountBNB.mul(dynamicLiquidityFee).div(totalBNBFee).div(2);\n        uint256 amountBNBReflection = amountBNB.mul(reflectionFee).div(totalBNBFee);\n        uint256 amountBNBMarketing = amountBNB.mul(marketingFee).div(totalBNBFee);\n\n        try distributor.deposit{value: amountBNBReflection}() {} catch {}\n        payable(marketingFeeReceiver).transfer(amountBNBMarketing);\n            \n        \n\n        if(amountToLiquify > 0){\n            router.addLiquidityETH{value: amountBNBLiquidity}(\n                address(this),\n                amountToLiquify,\n                0,\n                0,\n                autoLiquidityReceiver,\n                block.timestamp\n            );\n            emit AutoLiquify(amountBNBLiquidity, amountToLiquify);\n        }\n    }\n\n    function shouldAutoBuyback() internal view returns (bool) {\n        return msg.sender != pair\n        && !inSwap\n        && autoBuybackEnabled\n        && autoBuybackBlockLast + autoBuybackBlockPeriod <= block.number // After N blocks from last buyback\n        && address(this).balance >= autoBuybackAmount;\n    }\n\n    function triggerZeusBuyback(uint256 amount, bool triggerBuybackMultiplier) external authorized {\n        buyTokens(amount, DEAD);\n        if(triggerBuybackMultiplier){\n            buybackMultiplierTriggeredAt = block.timestamp;\n            emit BuybackMultiplierActive(buybackMultiplierLength);\n        }\n    }\n\n    function clearBuybackMultiplier() external authorized {\n        buybackMultiplierTriggeredAt = 0;\n    }\n\n    function triggerAutoBuyback() internal {\n        buyTokens(autoBuybackAmount, DEAD);\n        autoBuybackBlockLast = block.number;\n        autoBuybackAccumulator = autoBuybackAccumulator.add(autoBuybackAmount);\n        if(autoBuybackAccumulator > autoBuybackCap){ autoBuybackEnabled = false; }\n    }\n\n    function buyTokens(uint256 amount, address to) internal swapping {\n        address[] memory path = new address[](2);\n        path[0] = WBNB;\n        path[1] = address(this);\n\n        router.swapExactETHForTokensSupportingFeeOnTransferTokens{value: amount}(\n            0,\n            path,\n            to,\n            block.timestamp\n        );\n    }\n\n    function setAutoBuybackSettings(bool _enabled, uint256 _cap, uint256 _amount, uint256 _period) external authorized {\n        autoBuybackEnabled = _enabled;\n        autoBuybackCap = _cap;\n        autoBuybackAccumulator = 0;\n        autoBuybackAmount = _amount;\n        autoBuybackBlockPeriod = _period;\n        autoBuybackBlockLast = block.number;\n    }\n\n    function setBuybackMultiplierSettings(uint256 numerator, uint256 denominator, uint256 length) external authorized {\n        require(numerator / denominator <= 2 && numerator > denominator);\n        buybackMultiplierNumerator = numerator;\n        buybackMultiplierDenominator = denominator;\n        buybackMultiplierLength = length;\n    }\n\n    function launched() internal view returns (bool) {\n        return launchedAt != 0;\n    }\n\n    function launch() public authorized {\n        require(launchedAt == 0, \"Already launched boi\");\n        launchedAt = block.number;\n        launchedAtTimestamp = block.timestamp;\n    }\n\n    function setTxLimit(uint256 amount) external authorized {\n        _maxTxAmount = amount;\n    }\n\n    function clearStuckBalance(address _receiver) external authorized {\n        uint256 balance = address(this).balance;\n        payable(_receiver).transfer(balance);\n    }\n\n    function rescueToken(address tokenAddress, uint256 tokens) external authorized returns (bool success){\n        return IBEP20(tokenAddress).transfer(msg.sender, tokens);\n    }\n\n    function setIsDividendExempt(address holder, bool exempt) external authorized {\n        require(holder != address(this) && holder != pair);\n        isDividendExempt[holder] = exempt;\n        if(exempt){\n            distributor.setShare(holder, 0);\n        }else{\n            distributor.setShare(holder, _balances[holder]);\n        }\n    }\n\n    function setIsFeeExempt(address holder, bool exempt) external authorized {\n        isFeeExempt[holder] = exempt;\n    }\n\n    function setIsTxLimitExempt(address holder, bool exempt) external authorized {\n        isTxLimitExempt[holder] = exempt;\n    }\n\n    function setFees(uint256 _liquidityFee, uint256 _buybackFee, uint256 _reflectionFee, uint256 _marketingFee, uint256 _feeDenominator) external authorized {\n        liquidityFee = _liquidityFee;\n        buybackFee = _buybackFee;\n        reflectionFee = _reflectionFee;\n        marketingFee = _marketingFee;\n        totalFee = _liquidityFee.add(_buybackFee).add(_reflectionFee).add(_marketingFee);\n        feeDenominator = _feeDenominator;\n        require(totalFee < feeDenominator/4);\n    }\n\n    function setFeeReceivers(address _autoLiquidityReceiver, address _marketingFeeReceiver) external authorized {\n        autoLiquidityReceiver = _autoLiquidityReceiver;\n        marketingFeeReceiver = _marketingFeeReceiver;\n    }\n\n    function setSwapBackSettings(bool _enabled, uint256 _amount) external authorized {\n        swapEnabled = _enabled;\n        swapThreshold = _amount;\n    }\n\n    function setTargetLiquidity(uint256 _target, uint256 _denominator) external authorized {\n        targetLiquidity = _target;\n        targetLiquidityDenominator = _denominator;\n    }\n\n    function setDistributorSettings(uint256 gas) external authorized {\n        require(gas < 750000);\n        distributorGas = gas;\n    }\n\n    function getCirculatingSupply() public view returns (uint256) {\n        return _totalSupply.sub(balanceOf(DEAD)).sub(balanceOf(ZERO));\n    }\n\n    function getLiquidityBacking(uint256 accuracy) public view returns (uint256) {\n        return accuracy.mul(balanceOf(pair).mul(2)).div(getCirculatingSupply());\n    }\n\n    function isOverLiquified(uint256 target, uint256 accuracy) public view returns (bool) {\n        return getLiquidityBacking(accuracy) > target;\n    }\n\n    event AutoLiquify(uint256 amountBNB, uint256 amountBOG);\n    event BuybackMultiplierActive(uint256 duration);\n}",
  "sourcePath": "/home/matarwy/Documents/GitHub/CryFi-Smart-Contracts/contracts/CryFi.sol",
  "compiler": {
    "name": "solc",
    "version": "0.8.15+commit.e14f2714.Emscripten.clang"
  },
  "schemaVersion": "3.4.8",
  "updatedAt": "2022-07-24T22:57:28.051Z",
  "devdoc": {
    "kind": "dev",
    "methods": {},
    "version": 1
  },
  "userdoc": {
    "kind": "user",
    "methods": {
      "authorize(address)": {
        "notice": "Authorize address. Owner only"
      },
      "isAuthorized(address)": {
        "notice": "Return address' authorization status"
      },
      "isOwner(address)": {
        "notice": "Check if address is owner"
      },
      "transferOwnership(address)": {
        "notice": "Transfer ownership to new address. Caller must be owner. Leaves old owner authorized"
      },
      "unauthorize(address)": {
        "notice": "Remove address' authorization. Owner only"
      }
    },
    "version": 1
  }
}