{
  "contractName": "CryFiPresale",
  "abi": [
    {
      "inputs": [
        {
          "internalType": "address",
          "name": "_token",
          "type": "address"
        },
        {
          "internalType": "uint256",
          "name": "_rate",
          "type": "uint256"
        },
        {
          "internalType": "address",
          "name": "_wallet",
          "type": "address"
        }
      ],
      "stateMutability": "nonpayable",
      "type": "constructor"
    },
    {
      "anonymous": false,
      "inputs": [
        {
          "indexed": true,
          "internalType": "address",
          "name": "previousOwner",
          "type": "address"
        },
        {
          "indexed": true,
          "internalType": "address",
          "name": "newOwner",
          "type": "address"
        }
      ],
      "name": "OwnershipTransferred",
      "type": "event"
    },
    {
      "anonymous": false,
      "inputs": [
        {
          "indexed": true,
          "internalType": "address",
          "name": "purchaser",
          "type": "address"
        },
        {
          "indexed": true,
          "internalType": "address",
          "name": "beneficiary",
          "type": "address"
        },
        {
          "indexed": true,
          "internalType": "address",
          "name": "referral",
          "type": "address"
        },
        {
          "indexed": false,
          "internalType": "uint256",
          "name": "value",
          "type": "uint256"
        },
        {
          "indexed": false,
          "internalType": "uint256",
          "name": "amount",
          "type": "uint256"
        }
      ],
      "name": "TokenPurchase",
      "type": "event"
    },
    {
      "stateMutability": "nonpayable",
      "type": "fallback"
    },
    {
      "inputs": [],
      "name": "_refMinAmount",
      "outputs": [
        {
          "internalType": "uint256",
          "name": "",
          "type": "uint256"
        }
      ],
      "stateMutability": "view",
      "type": "function"
    },
    {
      "inputs": [],
      "name": "owner",
      "outputs": [
        {
          "internalType": "address",
          "name": "",
          "type": "address"
        }
      ],
      "stateMutability": "view",
      "type": "function"
    },
    {
      "inputs": [],
      "name": "rate",
      "outputs": [
        {
          "internalType": "uint256",
          "name": "",
          "type": "uint256"
        }
      ],
      "stateMutability": "view",
      "type": "function"
    },
    {
      "inputs": [],
      "name": "renounceOwnership",
      "outputs": [],
      "stateMutability": "nonpayable",
      "type": "function"
    },
    {
      "inputs": [],
      "name": "token",
      "outputs": [
        {
          "internalType": "contract IBEP20",
          "name": "",
          "type": "address"
        }
      ],
      "stateMutability": "view",
      "type": "function"
    },
    {
      "inputs": [
        {
          "internalType": "address",
          "name": "newOwner",
          "type": "address"
        }
      ],
      "name": "transferOwnership",
      "outputs": [],
      "stateMutability": "nonpayable",
      "type": "function"
    },
    {
      "inputs": [],
      "name": "wallet",
      "outputs": [
        {
          "internalType": "address",
          "name": "",
          "type": "address"
        }
      ],
      "stateMutability": "view",
      "type": "function"
    },
    {
      "inputs": [],
      "name": "weiRaised",
      "outputs": [
        {
          "internalType": "uint256",
          "name": "",
          "type": "uint256"
        }
      ],
      "stateMutability": "view",
      "type": "function"
    },
    {
      "stateMutability": "payable",
      "type": "receive"
    },
    {
      "inputs": [
        {
          "internalType": "address",
          "name": "tokenAddress",
          "type": "address"
        },
        {
          "internalType": "uint256",
          "name": "tokens",
          "type": "uint256"
        }
      ],
      "name": "rescueToken",
      "outputs": [
        {
          "internalType": "bool",
          "name": "success",
          "type": "bool"
        }
      ],
      "stateMutability": "nonpayable",
      "type": "function"
    },
    {
      "inputs": [
        {
          "internalType": "address",
          "name": "_receiver",
          "type": "address"
        }
      ],
      "name": "clearStuckBalance",
      "outputs": [],
      "stateMutability": "nonpayable",
      "type": "function"
    },
    {
      "inputs": [
        {
          "internalType": "uint256",
          "name": "_rate",
          "type": "uint256"
        }
      ],
      "name": "setRate",
      "outputs": [],
      "stateMutability": "nonpayable",
      "type": "function"
    },
    {
      "inputs": [
        {
          "internalType": "uint256",
          "name": "refWeiAmountRate",
          "type": "uint256"
        },
        {
          "internalType": "uint256",
          "name": "refRateDominator",
          "type": "uint256"
        }
      ],
      "name": "setRefRate",
      "outputs": [],
      "stateMutability": "nonpayable",
      "type": "function"
    },
    {
      "inputs": [
        {
          "internalType": "uint256",
          "name": "refMinAmount",
          "type": "uint256"
        }
      ],
      "name": "setRefMinAmount",
      "outputs": [],
      "stateMutability": "nonpayable",
      "type": "function"
    },
    {
      "inputs": [
        {
          "internalType": "address",
          "name": "_wallet",
          "type": "address"
        }
      ],
      "name": "setWallet",
      "outputs": [],
      "stateMutability": "nonpayable",
      "type": "function"
    },
    {
      "inputs": [
        {
          "internalType": "address",
          "name": "_beneficiary",
          "type": "address"
        },
        {
          "internalType": "address",
          "name": "_referral",
          "type": "address"
        }
      ],
      "name": "buyTokens",
      "outputs": [],
      "stateMutability": "payable",
      "type": "function"
    }
  ],
  "bytecode": "0x60806040526101f460065561271060075566038d7ea4c680006008553480156200002857600080fd5b5060405162001cd838038062001cd883398181016040528101906200004e91906200030e565b6200006e620000626200019d60201b60201c565b620001a560201b60201c565b600082116200007c57600080fd5b600073ffffffffffffffffffffffffffffffffffffffff168173ffffffffffffffffffffffffffffffffffffffff1603620000b657600080fd5b600073ffffffffffffffffffffffffffffffffffffffff168373ffffffffffffffffffffffffffffffffffffffff1603620000f057600080fd5b82600160006101000a81548173ffffffffffffffffffffffffffffffffffffffff021916908373ffffffffffffffffffffffffffffffffffffffff16021790555080600260006101000a81548173ffffffffffffffffffffffffffffffffffffffff021916908373ffffffffffffffffffffffffffffffffffffffff160217905550816003819055506001600560006101000a81548160ff0219169083151502179055505050506200036a565b600033905090565b60008060009054906101000a900473ffffffffffffffffffffffffffffffffffffffff169050816000806101000a81548173ffffffffffffffffffffffffffffffffffffffff021916908373ffffffffffffffffffffffffffffffffffffffff1602179055508173ffffffffffffffffffffffffffffffffffffffff168173ffffffffffffffffffffffffffffffffffffffff167f8be0079c531659141344cd1fd0a4f28419497f9722a3daafe3b4186f6b6457e060405160405180910390a35050565b600080fd5b600073ffffffffffffffffffffffffffffffffffffffff82169050919050565b60006200029b826200026e565b9050919050565b620002ad816200028e565b8114620002b957600080fd5b50565b600081519050620002cd81620002a2565b92915050565b6000819050919050565b620002e881620002d3565b8114620002f457600080fd5b50565b6000815190506200030881620002dd565b92915050565b6000806000606084860312156200032a576200032962000269565b5b60006200033a86828701620002bc565b93505060206200034d86828701620002f7565b92505060406200036086828701620002bc565b9150509250925092565b61195e806200037a6000396000f3fe6080604052600436106100ec5760003560e01c8063521eb2731161008a5780638da5cb5b116100595780638da5cb5b146102c1578063deaa59df146102ec578063f2fde38b14610315578063fc0c546a1461033e576100f3565b8063521eb2731461022b578063715018a614610256578063764d72bf1461026d578063820cb49e14610296576100f3565b806333f3d628116100c657806333f3d6281461017157806334fcf437146101ae5780634042b66f146101d75780634325802c14610202576100f3565b806321bc9a551461010157806328cf07861461011d5780632c4e722e14610146576100f3565b366100f357005b3480156100ff57600080fd5b005b61011b600480360381019061011691906110fa565b610369565b005b34801561012957600080fd5b50610144600480360381019061013f9190611170565b610681565b005b34801561015257600080fd5b5061015b610752565b60405161016891906111bf565b60405180910390f35b34801561017d57600080fd5b50610198600480360381019061019391906111da565b610758565b6040516101a59190611235565b60405180910390f35b3480156101ba57600080fd5b506101d560048036038101906101d09190611250565b610863565b005b3480156101e357600080fd5b506101ec6108e9565b6040516101f991906111bf565b60405180910390f35b34801561020e57600080fd5b5061022960048036038101906102249190611250565b6108ef565b005b34801561023757600080fd5b50610240610975565b60405161024d919061128c565b60405180910390f35b34801561026257600080fd5b5061026b61099b565b005b34801561027957600080fd5b50610294600480360381019061028f91906112a7565b610a23565b005b3480156102a257600080fd5b506102ab610aef565b6040516102b891906111bf565b60405180910390f35b3480156102cd57600080fd5b506102d6610af5565b6040516102e3919061128c565b60405180910390f35b3480156102f857600080fd5b50610313600480360381019061030e91906112a7565b610b1e565b005b34801561032157600080fd5b5061033c600480360381019061033791906112a7565b610bde565b005b34801561034a57600080fd5b50610353610cd5565b6040516103609190611333565b60405180910390f35b600560009054906101000a900460ff166103b8576040517f08c379a00000000000000000000000000000000000000000000000000000000081526004016103af906113ab565b60405180910390fd5b60003490506103c78382610cfb565b60006103d282610d45565b90506103e982600454610d7990919063ffffffff16565b6004819055506103f98482610dd7565b8273ffffffffffffffffffffffffffffffffffffffff168473ffffffffffffffffffffffffffffffffffffffff1661042f610de5565b73ffffffffffffffffffffffffffffffffffffffff167fd1508eb33cb2ff0cd96cf67f00ab2c6b7fc5142d97832add4b29748b2911102485856040516104769291906113cb565b60405180910390a4610486610de5565b73ffffffffffffffffffffffffffffffffffffffff168373ffffffffffffffffffffffffffffffffffffffff16141580156104ed57508373ffffffffffffffffffffffffffffffffffffffff168373ffffffffffffffffffffffffffffffffffffffff1614155b80156105265750600073ffffffffffffffffffffffffffffffffffffffff168373ffffffffffffffffffffffffffffffffffffffff1614155b80156105ce5750600854600160009054906101000a900473ffffffffffffffffffffffffffffffffffffffff1673ffffffffffffffffffffffffffffffffffffffff166370a08231856040518263ffffffff1660e01b815260040161058b919061128c565b602060405180830381865afa1580156105a8573d6000803e3d6000fd5b505050506040513d601f19601f820116820180604052508101906105cc9190611409565b115b1561060c5760006105fe6007546105f060065486610ded90919063ffffffff16565b610e6790919063ffffffff16565b905061060a8482610ebf565b505b6000479050600260009054906101000a900473ffffffffffffffffffffffffffffffffffffffff1673ffffffffffffffffffffffffffffffffffffffff166108fc829081150290604051600060405180830381858888f19350505050158015610679573d6000803e3d6000fd5b505050505050565b610689610de5565b73ffffffffffffffffffffffffffffffffffffffff166106a7610af5565b73ffffffffffffffffffffffffffffffffffffffff16146106fd576040517f08c379a00000000000000000000000000000000000000000000000000000000081526004016106f490611482565b60405180910390fd5b81811015610740576040517f08c379a000000000000000000000000000000000000000000000000000000000815260040161073790611514565b60405180910390fd5b81600681905550806007819055505050565b60035481565b6000610762610de5565b73ffffffffffffffffffffffffffffffffffffffff16610780610af5565b73ffffffffffffffffffffffffffffffffffffffff16146107d6576040517f08c379a00000000000000000000000000000000000000000000000000000000081526004016107cd90611482565b60405180910390fd5b8273ffffffffffffffffffffffffffffffffffffffff1663a9059cbb6107fa610de5565b846040518363ffffffff1660e01b8152600401610818929190611534565b6020604051808303816000875af1158015610837573d6000803e3d6000fd5b505050506040513d601f19601f8201168201806040525081019061085b9190611589565b905092915050565b61086b610de5565b73ffffffffffffffffffffffffffffffffffffffff16610889610af5565b73ffffffffffffffffffffffffffffffffffffffff16146108df576040517f08c379a00000000000000000000000000000000000000000000000000000000081526004016108d690611482565b60405180910390fd5b8060038190555050565b60045481565b6108f7610de5565b73ffffffffffffffffffffffffffffffffffffffff16610915610af5565b73ffffffffffffffffffffffffffffffffffffffff161461096b576040517f08c379a000000000000000000000000000000000000000000000000000000000815260040161096290611482565b60405180910390fd5b8060088190555050565b600260009054906101000a900473ffffffffffffffffffffffffffffffffffffffff1681565b6109a3610de5565b73ffffffffffffffffffffffffffffffffffffffff166109c1610af5565b73ffffffffffffffffffffffffffffffffffffffff1614610a17576040517f08c379a0000000000000000000000000000000000000000000000000000000008152600401610a0e90611482565b60405180910390fd5b610a216000610f0a565b565b610a2b610de5565b73ffffffffffffffffffffffffffffffffffffffff16610a49610af5565b73ffffffffffffffffffffffffffffffffffffffff1614610a9f576040517f08c379a0000000000000000000000000000000000000000000000000000000008152600401610a9690611482565b60405180910390fd5b60004790508173ffffffffffffffffffffffffffffffffffffffff166108fc829081150290604051600060405180830381858888f19350505050158015610aea573d6000803e3d6000fd5b505050565b60085481565b60008060009054906101000a900473ffffffffffffffffffffffffffffffffffffffff16905090565b610b26610de5565b73ffffffffffffffffffffffffffffffffffffffff16610b44610af5565b73ffffffffffffffffffffffffffffffffffffffff1614610b9a576040517f08c379a0000000000000000000000000000000000000000000000000000000008152600401610b9190611482565b60405180910390fd5b80600260006101000a81548173ffffffffffffffffffffffffffffffffffffffff021916908373ffffffffffffffffffffffffffffffffffffffff16021790555050565b610be6610de5565b73ffffffffffffffffffffffffffffffffffffffff16610c04610af5565b73ffffffffffffffffffffffffffffffffffffffff1614610c5a576040517f08c379a0000000000000000000000000000000000000000000000000000000008152600401610c5190611482565b60405180910390fd5b600073ffffffffffffffffffffffffffffffffffffffff168173ffffffffffffffffffffffffffffffffffffffff1603610cc9576040517f08c379a0000000000000000000000000000000000000000000000000000000008152600401610cc090611628565b60405180910390fd5b610cd281610f0a565b50565b600160009054906101000a900473ffffffffffffffffffffffffffffffffffffffff1681565b600073ffffffffffffffffffffffffffffffffffffffff168273ffffffffffffffffffffffffffffffffffffffff1603610d3457600080fd5b60008103610d4157600080fd5b5050565b6000610d72633b9aca00610d6460035485610ded90919063ffffffff16565b610e6790919063ffffffff16565b9050919050565b6000808284610d889190611677565b905083811015610dcd576040517f08c379a0000000000000000000000000000000000000000000000000000000008152600401610dc490611719565b60405180910390fd5b8091505092915050565b610de18282610fce565b5050565b600033905090565b6000808303610dff5760009050610e61565b60008284610e0d9190611739565b9050828482610e1c91906117c2565b14610e5c576040517f08c379a0000000000000000000000000000000000000000000000000000000008152600401610e5390611865565b60405180910390fd5b809150505b92915050565b6000808211610eab576040517f08c379a0000000000000000000000000000000000000000000000000000000008152600401610ea2906118d1565b60405180910390fd5b8183610eb791906117c2565b905092915050565b8173ffffffffffffffffffffffffffffffffffffffff166108fc829081150290604051600060405180830381858888f19350505050158015610f05573d6000803e3d6000fd5b505050565b60008060009054906101000a900473ffffffffffffffffffffffffffffffffffffffff169050816000806101000a81548173ffffffffffffffffffffffffffffffffffffffff021916908373ffffffffffffffffffffffffffffffffffffffff1602179055508173ffffffffffffffffffffffffffffffffffffffff168173ffffffffffffffffffffffffffffffffffffffff167f8be0079c531659141344cd1fd0a4f28419497f9722a3daafe3b4186f6b6457e060405160405180910390a35050565b600160009054906101000a900473ffffffffffffffffffffffffffffffffffffffff1673ffffffffffffffffffffffffffffffffffffffff166323b872dd600260009054906101000a900473ffffffffffffffffffffffffffffffffffffffff1684846040518463ffffffff1660e01b815260040161104f939291906118f1565b6020604051808303816000875af115801561106e573d6000803e3d6000fd5b505050506040513d601f19601f820116820180604052508101906110929190611589565b505050565b600080fd5b600073ffffffffffffffffffffffffffffffffffffffff82169050919050565b60006110c78261109c565b9050919050565b6110d7816110bc565b81146110e257600080fd5b50565b6000813590506110f4816110ce565b92915050565b6000806040838503121561111157611110611097565b5b600061111f858286016110e5565b9250506020611130858286016110e5565b9150509250929050565b6000819050919050565b61114d8161113a565b811461115857600080fd5b50565b60008135905061116a81611144565b92915050565b6000806040838503121561118757611186611097565b5b60006111958582860161115b565b92505060206111a68582860161115b565b9150509250929050565b6111b98161113a565b82525050565b60006020820190506111d460008301846111b0565b92915050565b600080604083850312156111f1576111f0611097565b5b60006111ff858286016110e5565b92505060206112108582860161115b565b9150509250929050565b60008115159050919050565b61122f8161121a565b82525050565b600060208201905061124a6000830184611226565b92915050565b60006020828403121561126657611265611097565b5b60006112748482850161115b565b91505092915050565b611286816110bc565b82525050565b60006020820190506112a1600083018461127d565b92915050565b6000602082840312156112bd576112bc611097565b5b60006112cb848285016110e5565b91505092915050565b6000819050919050565b60006112f96112f46112ef8461109c565b6112d4565b61109c565b9050919050565b600061130b826112de565b9050919050565b600061131d82611300565b9050919050565b61132d81611312565b82525050565b60006020820190506113486000830184611324565b92915050565b600082825260208201905092915050565b7f546f6b656e2053656c6c20497320436c6f736564000000000000000000000000600082015250565b600061139560148361134e565b91506113a08261135f565b602082019050919050565b600060208201905081810360008301526113c481611388565b9050919050565b60006040820190506113e060008301856111b0565b6113ed60208301846111b0565b9392505050565b60008151905061140381611144565b92915050565b60006020828403121561141f5761141e611097565b5b600061142d848285016113f4565b91505092915050565b7f4f776e61626c653a2063616c6c6572206973206e6f7420746865206f776e6572600082015250565b600061146c60208361134e565b915061147782611436565b602082019050919050565b6000602082019050818103600083015261149b8161145f565b9050919050565b7f5261746520446f6d696e61746f7220697320556e64657220546865207261746560008201527f7300000000000000000000000000000000000000000000000000000000000000602082015250565b60006114fe60218361134e565b9150611509826114a2565b604082019050919050565b6000602082019050818103600083015261152d816114f1565b9050919050565b6000604082019050611549600083018561127d565b61155660208301846111b0565b9392505050565b6115668161121a565b811461157157600080fd5b50565b6000815190506115838161155d565b92915050565b60006020828403121561159f5761159e611097565b5b60006115ad84828501611574565b91505092915050565b7f4f776e61626c653a206e6577206f776e657220697320746865207a65726f206160008201527f6464726573730000000000000000000000000000000000000000000000000000602082015250565b600061161260268361134e565b915061161d826115b6565b604082019050919050565b6000602082019050818103600083015261164181611605565b9050919050565b7f4e487b7100000000000000000000000000000000000000000000000000000000600052601160045260246000fd5b60006116828261113a565b915061168d8361113a565b9250827fffffffffffffffffffffffffffffffffffffffffffffffffffffffffffffffff038211156116c2576116c1611648565b5b828201905092915050565b7f536166654d6174683a206164646974696f6e206f766572666c6f770000000000600082015250565b6000611703601b8361134e565b915061170e826116cd565b602082019050919050565b60006020820190508181036000830152611732816116f6565b9050919050565b60006117448261113a565b915061174f8361113a565b9250817fffffffffffffffffffffffffffffffffffffffffffffffffffffffffffffffff048311821515161561178857611787611648565b5b828202905092915050565b7f4e487b7100000000000000000000000000000000000000000000000000000000600052601260045260246000fd5b60006117cd8261113a565b91506117d88361113a565b9250826117e8576117e7611793565b5b828204905092915050565b7f536166654d6174683a206d756c7469706c69636174696f6e206f766572666c6f60008201527f7700000000000000000000000000000000000000000000000000000000000000602082015250565b600061184f60218361134e565b915061185a826117f3565b604082019050919050565b6000602082019050818103600083015261187e81611842565b9050919050565b7f536166654d6174683a206469766973696f6e206279207a65726f000000000000600082015250565b60006118bb601a8361134e565b91506118c682611885565b602082019050919050565b600060208201905081810360008301526118ea816118ae565b9050919050565b6000606082019050611906600083018661127d565b611913602083018561127d565b61192060408301846111b0565b94935050505056fea26469706673582212209ed58ed375ff7e38a627ed090d01f2d33077405c2618056262331d812751814e64736f6c634300080f0033",
  "immutableReferences": {},
  "source": "// SPDX-License-Identifier: MIT\npragma solidity ^0.8.0;\n\n/////////////////////////////////////////////////////////////////////////////////////\n//                                                                                 //\n//                 /////  ///      ////  ///       ///  ////////////  ///          //\n//              ////      ///    ///       ///    ///   ///           ///          //\n//            ////        ///  ///           /// ///    ///                        //\n//          ////          //////              /////     ////////      ///          // \n//          ////          ///                  ///      ///           ///          //\n//           ////         ///                 ///       ///           ///          //\n//             ////       ///                ///        ///           ///          //\n//               /////    ///               ///         ///           ///          //\n//                                                                                 //\n/////////////////////////////////////////////////////////////////////////////////////\n\nlibrary SafeMath {\n\n    function add(uint256 a, uint256 b) internal pure returns (uint256) {\n        uint256 c = a + b;\n        require(c >= a, \"SafeMath: addition overflow\");\n        return c;\n    }\n\n    function sub(uint256 a, uint256 b) internal pure returns (uint256) {\n        require(b <= a, \"SafeMath: subtraction overflow\");\n        return a - b;\n    }\n\n    function mul(uint256 a, uint256 b) internal pure returns (uint256) {\n        if (a == 0) return 0;\n        uint256 c = a * b;\n        require(c / a == b, \"SafeMath: multiplication overflow\");\n        return c;\n    }\n\n    function div(uint256 a, uint256 b) internal pure returns (uint256) {\n        require(b > 0, \"SafeMath: division by zero\");\n        return a / b;\n    }\n\n    function sub(uint256 a, uint256 b, string memory errorMessage) internal pure returns (uint256) {\n        require(b <= a, errorMessage);\n        return a - b;\n    }\n\n    function div(uint256 a, uint256 b, string memory errorMessage) internal pure returns (uint256) {\n        require(b > 0, errorMessage);\n        return a / b;\n    }\n}\n\ninterface IBEP20 {\n    event Transfer(address indexed from, address indexed to, uint256 value);\n    event Approval(address indexed owner, address indexed spender, uint256 value);\n\n    function name() external view returns (string memory);\n    function symbol() external view returns (string memory);\n    function decimals() external view returns (uint8);\n    function totalSupply() external view returns (uint256);\n    function balanceOf(address account) external view returns (uint256);\n    function transfer(address to, uint256 amount) external returns (bool);\n    function allowance(address owner, address spender) external view returns (uint256);\n    function approve(address spender, uint256 amount) external returns (bool);\n    function transferFrom(\n        address from,\n        address to,\n        uint256 amount\n    ) external returns (bool);\n}\n\nabstract contract Context {\n    function _msgSender() internal view virtual returns (address) {\n        return msg.sender;\n    }\n    function _msgData() internal view virtual returns (bytes calldata) {\n        return msg.data;\n    }\n}\n\nabstract contract Ownable is Context {\n    address private _owner;\n\n    event OwnershipTransferred(address indexed previousOwner, address indexed newOwner);\n\n    constructor() {\n        _transferOwnership(_msgSender());\n    }\n\n    function owner() public view virtual returns (address) {\n        return _owner;\n    }\n\n    modifier onlyOwner() {\n        require(owner() == _msgSender(), \"Ownable: caller is not the owner\");\n        _;\n    }\n\n    function renounceOwnership() public virtual onlyOwner {\n        _transferOwnership(address(0));\n    }\n\n    function transferOwnership(address newOwner) public virtual onlyOwner {\n        require(newOwner != address(0), \"Ownable: new owner is the zero address\");\n        _transferOwnership(newOwner);\n    }\n\n    function _transferOwnership(address newOwner) internal virtual {\n        address oldOwner = _owner;\n        _owner = newOwner;\n        emit OwnershipTransferred(oldOwner, newOwner);\n    }\n}\n\ncontract CryFiPresale is  Ownable {\n    using SafeMath for uint256;\n\n    IBEP20 public token;\n    address public wallet;\n    uint256 public rate;\n    uint256 public weiRaised;\n\n    bool private _swSale;\n\n    uint256 private _refWeiAmountRate = 500;\n    uint256 private _refRateDominator = 10000;\n    uint256 public _refMinAmount = 1 * (10**15);\n\n    event TokenPurchase(\n        address indexed purchaser,\n        address indexed beneficiary,\n        address indexed referral,\n        uint256 value,\n        uint256 amount\n    );\n\n\n    constructor(address _token, uint256 _rate ,address _wallet) {\n        require(_rate > 0);\n        require(_wallet != address(0));\n        require(_token != address(0));\n\n        token = IBEP20(_token);\n        wallet = _wallet;\n        rate = _rate;\n\n        _swSale = true;\n    }\n\n    fallback() external {\n    }\n\n    receive() payable external {\n    }\n\n    function rescueToken(address tokenAddress, uint256 tokens) external onlyOwner returns (bool success){\n        return IBEP20(tokenAddress).transfer(_msgSender(), tokens);\n    }\n\n    function clearStuckBalance(address _receiver) external onlyOwner {\n        uint256 balance = address(this).balance;\n        payable(_receiver).transfer(balance);\n    }\n\n    function setRate(uint256 _rate) external onlyOwner {\n       rate = _rate;\n    }\n\n    function setRefRate(uint256 refWeiAmountRate,uint256 refRateDominator) external onlyOwner {\n        require(refRateDominator >= refWeiAmountRate,\"Rate Dominator is Under The rates\");\n       _refWeiAmountRate = refWeiAmountRate;\n       _refRateDominator = refRateDominator;\n    }\n\n    function setRefMinAmount(uint256 refMinAmount) external onlyOwner {\n       _refMinAmount = refMinAmount;\n\n    }\n\n    function setWallet(address _wallet) external onlyOwner {\n       wallet = _wallet;\n    }\n\n    function buyTokens(address _beneficiary , address _referral) public payable {\n        require(_swSale,\"Token Sell Is Closed\");\n        uint256 weiAmount = msg.value;\n        _preValidatePurchase(_beneficiary, weiAmount);\n\n        // calculate token amount to be created\n        uint256 tokens = _getTokenAmount(weiAmount);\n        weiRaised = weiRaised.add(weiAmount);\n        _processPurchase(_beneficiary, tokens);\n\n        emit TokenPurchase(_msgSender(),_beneficiary,_referral,weiAmount,tokens);\n\n        if((_referral != _msgSender()) && (_referral != _beneficiary) && (_referral != address(0)) && (token.balanceOf(_referral) > _refMinAmount)){\n            uint256 referEth = weiAmount.mul(_refWeiAmountRate).div(_refRateDominator);\n            _forwardFunds(_referral,referEth);\n        }\n\n        uint256 balance = address(this).balance;\n        payable(wallet).transfer(balance);\n    }\n\n    function _preValidatePurchase(address _beneficiary,uint256 _weiAmount) internal pure {\n        require(_beneficiary != address(0));\n        require(_weiAmount != 0);\n    }\n\n    function _getTokenAmount(uint256 _weiAmount) internal view returns (uint256) {\n        return _weiAmount.mul(rate).div(1*(10**9));\n    }\n\n    function _processPurchase(address _beneficiary,uint256 _tokenAmount) internal{\n        _deliverTokens(_beneficiary, _tokenAmount);\n    }\n\n    function _deliverTokens(address _beneficiary,uint256 _tokenAmount) internal{\n        token.transferFrom(wallet,_beneficiary, _tokenAmount);\n    }\n\n    function _forwardFunds(address _reciver,uint256 _weiAmount) internal {\n        payable(_reciver).transfer(_weiAmount);\n    }\n}",
  "sourcePath": "/home/matarwy/Documents/GitHub/CryFi-Smart-Contracts/contracts/CryFiPresale.sol",
  "compiler": {
    "name": "solc",
    "version": "0.8.15+commit.e14f2714.Emscripten.clang"
  },
  "schemaVersion": "3.4.8",
  "updatedAt": "2022-07-24T22:57:28.230Z",
  "devdoc": {
    "kind": "dev",
    "methods": {},
    "version": 1
  },
  "userdoc": {
    "kind": "user",
    "methods": {},
    "version": 1
  }
}