{
  "contractName": "DividendDistributor",
  "abi": [
    {
      "inputs": [
        {
          "internalType": "address",
          "name": "_router",
          "type": "address"
        },
        {
          "internalType": "address",
          "name": "owner",
          "type": "address"
        }
      ],
      "stateMutability": "nonpayable",
      "type": "constructor"
    },
    {
      "anonymous": false,
      "inputs": [
        {
          "indexed": true,
          "internalType": "address",
          "name": "previousOwner",
          "type": "address"
        },
        {
          "indexed": true,
          "internalType": "address",
          "name": "newOwner",
          "type": "address"
        }
      ],
      "name": "OwnershipTransferred",
      "type": "event"
    },
    {
      "inputs": [],
      "name": "dividendsPerShare",
      "outputs": [
        {
          "internalType": "uint256",
          "name": "",
          "type": "uint256"
        }
      ],
      "stateMutability": "view",
      "type": "function"
    },
    {
      "inputs": [],
      "name": "dividendsPerShareAccuracyFactor",
      "outputs": [
        {
          "internalType": "uint256",
          "name": "",
          "type": "uint256"
        }
      ],
      "stateMutability": "view",
      "type": "function"
    },
    {
      "inputs": [],
      "name": "minDistribution",
      "outputs": [
        {
          "internalType": "uint256",
          "name": "",
          "type": "uint256"
        }
      ],
      "stateMutability": "view",
      "type": "function"
    },
    {
      "inputs": [],
      "name": "minPeriod",
      "outputs": [
        {
          "internalType": "uint256",
          "name": "",
          "type": "uint256"
        }
      ],
      "stateMutability": "view",
      "type": "function"
    },
    {
      "inputs": [
        {
          "internalType": "address",
          "name": "",
          "type": "address"
        }
      ],
      "name": "shares",
      "outputs": [
        {
          "internalType": "uint256",
          "name": "amount",
          "type": "uint256"
        },
        {
          "internalType": "uint256",
          "name": "totalExcluded",
          "type": "uint256"
        },
        {
          "internalType": "uint256",
          "name": "totalRealised",
          "type": "uint256"
        }
      ],
      "stateMutability": "view",
      "type": "function"
    },
    {
      "inputs": [],
      "name": "totalDistributed",
      "outputs": [
        {
          "internalType": "uint256",
          "name": "",
          "type": "uint256"
        }
      ],
      "stateMutability": "view",
      "type": "function"
    },
    {
      "inputs": [],
      "name": "totalDividends",
      "outputs": [
        {
          "internalType": "uint256",
          "name": "",
          "type": "uint256"
        }
      ],
      "stateMutability": "view",
      "type": "function"
    },
    {
      "inputs": [],
      "name": "totalShares",
      "outputs": [
        {
          "internalType": "uint256",
          "name": "",
          "type": "uint256"
        }
      ],
      "stateMutability": "view",
      "type": "function"
    },
    {
      "stateMutability": "payable",
      "type": "receive"
    },
    {
      "inputs": [],
      "name": "getOwner",
      "outputs": [
        {
          "internalType": "address",
          "name": "",
          "type": "address"
        }
      ],
      "stateMutability": "view",
      "type": "function"
    },
    {
      "inputs": [
        {
          "internalType": "address",
          "name": "newOwner",
          "type": "address"
        }
      ],
      "name": "transferOwnership",
      "outputs": [],
      "stateMutability": "nonpayable",
      "type": "function"
    },
    {
      "inputs": [
        {
          "internalType": "uint256",
          "name": "_minPeriod",
          "type": "uint256"
        },
        {
          "internalType": "uint256",
          "name": "_minDistribution",
          "type": "uint256"
        }
      ],
      "name": "setDistributionCriteria",
      "outputs": [],
      "stateMutability": "nonpayable",
      "type": "function"
    },
    {
      "inputs": [
        {
          "internalType": "address",
          "name": "shareholder",
          "type": "address"
        },
        {
          "internalType": "uint256",
          "name": "amount",
          "type": "uint256"
        }
      ],
      "name": "setShare",
      "outputs": [],
      "stateMutability": "nonpayable",
      "type": "function"
    },
    {
      "inputs": [],
      "name": "deposit",
      "outputs": [],
      "stateMutability": "payable",
      "type": "function"
    },
    {
      "inputs": [
        {
          "internalType": "uint256",
          "name": "BUSDAmount",
          "type": "uint256"
        }
      ],
      "name": "manualDeposit",
      "outputs": [],
      "stateMutability": "nonpayable",
      "type": "function"
    },
    {
      "inputs": [
        {
          "internalType": "uint256",
          "name": "gas",
          "type": "uint256"
        }
      ],
      "name": "process",
      "outputs": [],
      "stateMutability": "nonpayable",
      "type": "function"
    },
    {
      "inputs": [
        {
          "internalType": "uint256",
          "name": "gas",
          "type": "uint256"
        }
      ],
      "name": "manualProcess",
      "outputs": [],
      "stateMutability": "nonpayable",
      "type": "function"
    },
    {
      "inputs": [],
      "name": "claimDividend",
      "outputs": [],
      "stateMutability": "nonpayable",
      "type": "function"
    },
    {
      "inputs": [
        {
          "internalType": "address",
          "name": "shareholder",
          "type": "address"
        }
      ],
      "name": "getUnpaidEarnings",
      "outputs": [
        {
          "internalType": "uint256",
          "name": "",
          "type": "uint256"
        }
      ],
      "stateMutability": "view",
      "type": "function"
    },
    {
      "inputs": [
        {
          "internalType": "address",
          "name": "_receiver",
          "type": "address"
        }
      ],
      "name": "clearDividenStuckBalance",
      "outputs": [],
      "stateMutability": "nonpayable",
      "type": "function"
    },
    {
      "inputs": [
        {
          "internalType": "address",
          "name": "tokenAddress",
          "type": "address"
        },
        {
          "internalType": "uint256",
          "name": "tokens",
          "type": "uint256"
        }
      ],
      "name": "rescueDistrbuterToken",
      "outputs": [
        {
          "internalType": "bool",
          "name": "success",
          "type": "bool"
        }
      ],
      "stateMutability": "nonpayable",
      "type": "function"
    }
  ],
  "bytecode": "0x60806040527378867bbeef44f2326bf8ddd1941a4439382ef2a7600260006101000a81548173ffffffffffffffffffffffffffffffffffffffff021916908373ffffffffffffffffffffffffffffffffffffffff16021790555073ae13d989dac2f0debff460ac112a837c89baa7cd600360006101000a81548173ffffffffffffffffffffffffffffffffffffffff021916908373ffffffffffffffffffffffffffffffffffffffff1602179055506ec097ce7bc90715b34b9f1000000000600d55610e10600e556000600f55348015620000d957600080fd5b50604051620027dc380380620027dc8339818101604052810190620000ff919062000284565b600073ffffffffffffffffffffffffffffffffffffffff168273ffffffffffffffffffffffffffffffffffffffff16036200014f577310ed43c718714eb63d5aa57b78b54704e256024e62000151565b815b600460006101000a81548173ffffffffffffffffffffffffffffffffffffffff021916908373ffffffffffffffffffffffffffffffffffffffff160217905550336000806101000a81548173ffffffffffffffffffffffffffffffffffffffff021916908373ffffffffffffffffffffffffffffffffffffffff16021790555080600160006101000a81548173ffffffffffffffffffffffffffffffffffffffff021916908373ffffffffffffffffffffffffffffffffffffffff1602179055505050620002cb565b600080fd5b600073ffffffffffffffffffffffffffffffffffffffff82169050919050565b60006200024c826200021f565b9050919050565b6200025e816200023f565b81146200026a57600080fd5b50565b6000815190506200027e8162000253565b92915050565b600080604083850312156200029e576200029d6200021a565b5b6000620002ae858286016200026d565b9250506020620002c1858286016200026d565b9150509250929050565b61250180620002db6000396000f3fe6080604052600436106101235760003560e01c8063997664d7116100a0578063f0fc6bca11610064578063f0fc6bca146103c3578063f18567bf146103da578063f2fde38b14610403578063ffb2c4791461042c578063ffd49c84146104555761012a565b8063997664d7146102f9578063ce7c2ac214610324578063d0e30db014610363578063e2d2e2191461036d578063efca2eed146103985761012a565b80632d48e896116100e75780632d48e896146102125780633301e1481461023b5780633a98ef39146102785780634fab0ae8146102a3578063893d20e8146102ce5761012a565b806311ce023d1461012f57806314b6ca961461015a5780631a5a79241461018357806320da4ef0146101ac57806328fd3198146101d55761012a565b3661012a57005b600080fd5b34801561013b57600080fd5b50610144610480565b6040516101519190611d0f565b60405180910390f35b34801561016657600080fd5b50610181600480360381019061017c9190611db9565b610486565b005b34801561018f57600080fd5b506101aa60048036038101906101a59190611df9565b610745565b005b3480156101b857600080fd5b506101d360048036038101906101ce9190611e26565b610a12565b005b3480156101e157600080fd5b506101fc60048036038101906101f79190611e26565b610ad7565b6040516102099190611d0f565b60405180910390f35b34801561021e57600080fd5b5061023960048036038101906102349190611e53565b610bf0565b005b34801561024757600080fd5b50610262600480360381019061025d9190611db9565b610c77565b60405161026f9190611eae565b60405180910390f35b34801561028457600080fd5b5061028d610d74565b60405161029a9190611d0f565b60405180910390f35b3480156102af57600080fd5b506102b8610d7a565b6040516102c59190611d0f565b60405180910390f35b3480156102da57600080fd5b506102e3610d80565b6040516102f09190611ed8565b60405180910390f35b34801561030557600080fd5b5061030e610daa565b60405161031b9190611d0f565b60405180910390f35b34801561033057600080fd5b5061034b60048036038101906103469190611e26565b610db0565b60405161035a93929190611ef3565b60405180910390f35b61036b610dda565b005b34801561037957600080fd5b506103826111ac565b60405161038f9190611d0f565b60405180910390f35b3480156103a457600080fd5b506103ad6111b2565b6040516103ba9190611d0f565b60405180910390f35b3480156103cf57600080fd5b506103d86111b8565b005b3480156103e657600080fd5b5061040160048036038101906103fc9190611df9565b6111c3565b005b34801561040f57600080fd5b5061042a60048036038101906104259190611e26565b611373565b005b34801561043857600080fd5b50610453600480360381019061044e9190611df9565b61151d565b005b34801561046157600080fd5b5061046a6116b0565b6040516104779190611d0f565b60405180910390f35b600d5481565b60008054906101000a900473ffffffffffffffffffffffffffffffffffffffff1673ffffffffffffffffffffffffffffffffffffffff163373ffffffffffffffffffffffffffffffffffffffff16146104de57600080fd5b6000600860008473ffffffffffffffffffffffffffffffffffffffff1673ffffffffffffffffffffffffffffffffffffffff16815260200190815260200160002060000154111561053357610532826116b6565b5b60008111801561058557506000600860008473ffffffffffffffffffffffffffffffffffffffff1673ffffffffffffffffffffffffffffffffffffffff16815260200190815260200160002060000154145b156105985761059382611949565b6105fa565b6000811480156105ea57506000600860008473ffffffffffffffffffffffffffffffffffffffff1673ffffffffffffffffffffffffffffffffffffffff16815260200190815260200160002060000154115b156105f9576105f8826119f8565b5b5b61066381610655600860008673ffffffffffffffffffffffffffffffffffffffff1673ffffffffffffffffffffffffffffffffffffffff16815260200190815260200160002060000154600954611bff90919063ffffffff16565b611c1590919063ffffffff16565b60098190555080600860008473ffffffffffffffffffffffffffffffffffffffff1673ffffffffffffffffffffffffffffffffffffffff168152602001908152602001600020600001819055506106fb600860008473ffffffffffffffffffffffffffffffffffffffff1673ffffffffffffffffffffffffffffffffffffffff16815260200190815260200160002060000154611c2b565b600860008473ffffffffffffffffffffffffffffffffffffffff1673ffffffffffffffffffffffffffffffffffffffff168152602001908152602001600020600101819055505050565b3373ffffffffffffffffffffffffffffffffffffffff16610764610d80565b73ffffffffffffffffffffffffffffffffffffffff16146107ba576040517f08c379a00000000000000000000000000000000000000000000000000000000081526004016107b190611f87565b60405180910390fd5b6000600260009054906101000a900473ffffffffffffffffffffffffffffffffffffffff1673ffffffffffffffffffffffffffffffffffffffff166370a08231306040518263ffffffff1660e01b81526004016108179190611ed8565b602060405180830381865afa158015610834573d6000803e3d6000fd5b505050506040513d601f19601f820116820180604052508101906108589190611fbc565b9050600260009054906101000a900473ffffffffffffffffffffffffffffffffffffffff1673ffffffffffffffffffffffffffffffffffffffff166323b872dd3330856040518463ffffffff1660e01b81526004016108b993929190611fe9565b6020604051808303816000875af11580156108d8573d6000803e3d6000fd5b505050506040513d601f19601f820116820180604052508101906108fc919061204c565b5060006109ad82600260009054906101000a900473ffffffffffffffffffffffffffffffffffffffff1673ffffffffffffffffffffffffffffffffffffffff166370a08231306040518263ffffffff1660e01b815260040161095e9190611ed8565b602060405180830381865afa15801561097b573d6000803e3d6000fd5b505050506040513d601f19601f8201168201806040525081019061099f9190611fbc565b611bff90919063ffffffff16565b90506109c481600a54611c1590919063ffffffff16565b600a81905550610a076109f66009546109e884600d54611c5d90919063ffffffff16565b611c7390919063ffffffff16565b600c54611c1590919063ffffffff16565b600c81905550505050565b3373ffffffffffffffffffffffffffffffffffffffff16610a31610d80565b73ffffffffffffffffffffffffffffffffffffffff1614610a87576040517f08c379a0000000000000000000000000000000000000000000000000000000008152600401610a7e90611f87565b60405180910390fd5b60004790508173ffffffffffffffffffffffffffffffffffffffff166108fc829081150290604051600060405180830381858888f19350505050158015610ad2573d6000803e3d6000fd5b505050565b600080600860008473ffffffffffffffffffffffffffffffffffffffff1673ffffffffffffffffffffffffffffffffffffffff1681526020019081526020016000206000015403610b2b5760009050610beb565b6000610b78600860008573ffffffffffffffffffffffffffffffffffffffff1673ffffffffffffffffffffffffffffffffffffffff16815260200190815260200160002060000154611c2b565b90506000600860008573ffffffffffffffffffffffffffffffffffffffff1673ffffffffffffffffffffffffffffffffffffffff168152602001908152602001600020600101549050808211610bd357600092505050610beb565b610be68183611bff90919063ffffffff16565b925050505b919050565b3373ffffffffffffffffffffffffffffffffffffffff16610c0f610d80565b73ffffffffffffffffffffffffffffffffffffffff1614610c65576040517f08c379a0000000000000000000000000000000000000000000000000000000008152600401610c5c90611f87565b60405180910390fd5b81600e8190555080600f819055505050565b60003373ffffffffffffffffffffffffffffffffffffffff16610c98610d80565b73ffffffffffffffffffffffffffffffffffffffff1614610cee576040517f08c379a0000000000000000000000000000000000000000000000000000000008152600401610ce590611f87565b60405180910390fd5b8273ffffffffffffffffffffffffffffffffffffffff1663a9059cbb33846040518363ffffffff1660e01b8152600401610d29929190612079565b6020604051808303816000875af1158015610d48573d6000803e3d6000fd5b505050506040513d601f19601f82011682018060405250810190610d6c919061204c565b905092915050565b60095481565b600f5481565b6000600160009054906101000a900473ffffffffffffffffffffffffffffffffffffffff16905090565b600a5481565b60086020528060005260406000206000915090508060000154908060010154908060020154905083565b60008054906101000a900473ffffffffffffffffffffffffffffffffffffffff1673ffffffffffffffffffffffffffffffffffffffff163373ffffffffffffffffffffffffffffffffffffffff1614610e3257600080fd5b6000600260009054906101000a900473ffffffffffffffffffffffffffffffffffffffff1673ffffffffffffffffffffffffffffffffffffffff166370a08231306040518263ffffffff1660e01b8152600401610e8f9190611ed8565b602060405180830381865afa158015610eac573d6000803e3d6000fd5b505050506040513d601f19601f82011682018060405250810190610ed09190611fbc565b90506000600267ffffffffffffffff811115610eef57610eee6120a2565b5b604051908082528060200260200182016040528015610f1d5781602001602082028036833780820191505090505b509050600360009054906101000a900473ffffffffffffffffffffffffffffffffffffffff1681600081518110610f5757610f566120d1565b5b602002602001019073ffffffffffffffffffffffffffffffffffffffff16908173ffffffffffffffffffffffffffffffffffffffff1681525050600260009054906101000a900473ffffffffffffffffffffffffffffffffffffffff1681600181518110610fc857610fc76120d1565b5b602002602001019073ffffffffffffffffffffffffffffffffffffffff16908173ffffffffffffffffffffffffffffffffffffffff1681525050600460009054906101000a900473ffffffffffffffffffffffffffffffffffffffff1673ffffffffffffffffffffffffffffffffffffffff1663b6f9de953460008430426040518663ffffffff1660e01b81526004016110659493929190612203565b6000604051808303818588803b15801561107e57600080fd5b505af1158015611092573d6000803e3d6000fd5b5050505050600061114783600260009054906101000a900473ffffffffffffffffffffffffffffffffffffffff1673ffffffffffffffffffffffffffffffffffffffff166370a08231306040518263ffffffff1660e01b81526004016110f89190611ed8565b602060405180830381865afa158015611115573d6000803e3d6000fd5b505050506040513d601f19601f820116820180604052508101906111399190611fbc565b611bff90919063ffffffff16565b905061115e81600a54611c1590919063ffffffff16565b600a819055506111a161119060095461118284600d54611c5d90919063ffffffff16565b611c7390919063ffffffff16565b600c54611c1590919063ffffffff16565b600c81905550505050565b600c5481565b600b5481565b6111c1336116b6565b565b3373ffffffffffffffffffffffffffffffffffffffff166111e2610d80565b73ffffffffffffffffffffffffffffffffffffffff1614611238576040517f08c379a000000000000000000000000000000000000000000000000000000000815260040161122f90611f87565b60405180910390fd5b60006005805490509050600081036112505750611370565b6000805a905060005b848310801561126757508381105b1561136b57836010541061127e5760006010819055505b6112c7600560105481548110611297576112966120d1565b5b9060005260206000200160009054906101000a900473ffffffffffffffffffffffffffffffffffffffff16611c89565b15611316576113156005601054815481106112e5576112e46120d1565b5b9060005260206000200160009054906101000a900473ffffffffffffffffffffffffffffffffffffffff166116b6565b5b61133b61132c5a84611bff90919063ffffffff16565b84611c1590919063ffffffff16565b92505a9150601060008154809291906113539061227e565b919050555080806113639061227e565b915050611259565b505050505b50565b3373ffffffffffffffffffffffffffffffffffffffff16611392610d80565b73ffffffffffffffffffffffffffffffffffffffff16146113e8576040517f08c379a00000000000000000000000000000000000000000000000000000000081526004016113df90611f87565b60405180910390fd5b600073ffffffffffffffffffffffffffffffffffffffff168173ffffffffffffffffffffffffffffffffffffffff1603611457576040517f08c379a000000000000000000000000000000000000000000000000000000000815260040161144e90612338565b60405180910390fd5b6000600160009054906101000a900473ffffffffffffffffffffffffffffffffffffffff16905081600160006101000a81548173ffffffffffffffffffffffffffffffffffffffff021916908373ffffffffffffffffffffffffffffffffffffffff1602179055508173ffffffffffffffffffffffffffffffffffffffff168173ffffffffffffffffffffffffffffffffffffffff167f8be0079c531659141344cd1fd0a4f28419497f9722a3daafe3b4186f6b6457e060405160405180910390a35050565b60008054906101000a900473ffffffffffffffffffffffffffffffffffffffff1673ffffffffffffffffffffffffffffffffffffffff163373ffffffffffffffffffffffffffffffffffffffff161461157557600080fd5b600060058054905090506000810361158d57506116ad565b6000805a905060005b84831080156115a457508381105b156116a85783601054106115bb5760006010819055505b6116046005601054815481106115d4576115d36120d1565b5b9060005260206000200160009054906101000a900473ffffffffffffffffffffffffffffffffffffffff16611c89565b1561165357611652600560105481548110611622576116216120d1565b5b9060005260206000200160009054906101000a900473ffffffffffffffffffffffffffffffffffffffff166116b6565b5b6116786116695a84611bff90919063ffffffff16565b84611c1590919063ffffffff16565b92505a9150601060008154809291906116909061227e565b919050555080806116a09061227e565b915050611596565b505050505b50565b600e5481565b6000600860008373ffffffffffffffffffffffffffffffffffffffff1673ffffffffffffffffffffffffffffffffffffffff16815260200190815260200160002060000154031561194657600061170c82610ad7565b905060008111156119445761172c81600b54611c1590919063ffffffff16565b600b81905550600260009054906101000a900473ffffffffffffffffffffffffffffffffffffffff1673ffffffffffffffffffffffffffffffffffffffff1663a9059cbb83836040518363ffffffff1660e01b815260040161178f929190612079565b6020604051808303816000875af11580156117ae573d6000803e3d6000fd5b505050506040513d601f19601f820116820180604052508101906117d2919061204c565b5042600760008473ffffffffffffffffffffffffffffffffffffffff1673ffffffffffffffffffffffffffffffffffffffff1681526020019081526020016000208190555061186c81600860008573ffffffffffffffffffffffffffffffffffffffff1673ffffffffffffffffffffffffffffffffffffffff16815260200190815260200160002060020154611c1590919063ffffffff16565b600860008473ffffffffffffffffffffffffffffffffffffffff1673ffffffffffffffffffffffffffffffffffffffff168152602001908152602001600020600201819055506118fd600860008473ffffffffffffffffffffffffffffffffffffffff1673ffffffffffffffffffffffffffffffffffffffff16815260200190815260200160002060000154611c2b565b600860008473ffffffffffffffffffffffffffffffffffffffff1673ffffffffffffffffffffffffffffffffffffffff168152602001908152602001600020600101819055505b505b50565b600580549050600660008373ffffffffffffffffffffffffffffffffffffffff1673ffffffffffffffffffffffffffffffffffffffff168152602001908152602001600020819055506005819080600181540180825580915050600190039060005260206000200160009091909190916101000a81548173ffffffffffffffffffffffffffffffffffffffff021916908373ffffffffffffffffffffffffffffffffffffffff16021790555050565b60056001600580549050611a0c9190612358565b81548110611a1d57611a1c6120d1565b5b9060005260206000200160009054906101000a900473ffffffffffffffffffffffffffffffffffffffff166005600660008473ffffffffffffffffffffffffffffffffffffffff1673ffffffffffffffffffffffffffffffffffffffff1681526020019081526020016000205481548110611a9b57611a9a6120d1565b5b9060005260206000200160006101000a81548173ffffffffffffffffffffffffffffffffffffffff021916908373ffffffffffffffffffffffffffffffffffffffff160217905550600660008273ffffffffffffffffffffffffffffffffffffffff1673ffffffffffffffffffffffffffffffffffffffff168152602001908152602001600020546006600060056001600580549050611b3b9190612358565b81548110611b4c57611b4b6120d1565b5b9060005260206000200160009054906101000a900473ffffffffffffffffffffffffffffffffffffffff1673ffffffffffffffffffffffffffffffffffffffff1673ffffffffffffffffffffffffffffffffffffffff168152602001908152602001600020819055506005805480611bc757611bc661238c565b5b6001900381819060005260206000200160006101000a81549073ffffffffffffffffffffffffffffffffffffffff0219169055905550565b60008183611c0d9190612358565b905092915050565b60008183611c2391906123bb565b905092915050565b6000611c56600d54611c48600c5485611c5d90919063ffffffff16565b611c7390919063ffffffff16565b9050919050565b60008183611c6b9190612411565b905092915050565b60008183611c81919061249a565b905092915050565b600042600e54600760008573ffffffffffffffffffffffffffffffffffffffff1673ffffffffffffffffffffffffffffffffffffffff16815260200190815260200160002054611cd991906123bb565b108015611cef5750600f54611ced83610ad7565b115b9050919050565b6000819050919050565b611d0981611cf6565b82525050565b6000602082019050611d246000830184611d00565b92915050565b600080fd5b600073ffffffffffffffffffffffffffffffffffffffff82169050919050565b6000611d5a82611d2f565b9050919050565b611d6a81611d4f565b8114611d7557600080fd5b50565b600081359050611d8781611d61565b92915050565b611d9681611cf6565b8114611da157600080fd5b50565b600081359050611db381611d8d565b92915050565b60008060408385031215611dd057611dcf611d2a565b5b6000611dde85828601611d78565b9250506020611def85828601611da4565b9150509250929050565b600060208284031215611e0f57611e0e611d2a565b5b6000611e1d84828501611da4565b91505092915050565b600060208284031215611e3c57611e3b611d2a565b5b6000611e4a84828501611d78565b91505092915050565b60008060408385031215611e6a57611e69611d2a565b5b6000611e7885828601611da4565b9250506020611e8985828601611da4565b9150509250929050565b60008115159050919050565b611ea881611e93565b82525050565b6000602082019050611ec36000830184611e9f565b92915050565b611ed281611d4f565b82525050565b6000602082019050611eed6000830184611ec9565b92915050565b6000606082019050611f086000830186611d00565b611f156020830185611d00565b611f226040830184611d00565b949350505050565b600082825260208201905092915050565b7f4f776e61626c653a2063616c6c6572206973206e6f7420746865206f776e6572600082015250565b6000611f71602083611f2a565b9150611f7c82611f3b565b602082019050919050565b60006020820190508181036000830152611fa081611f64565b9050919050565b600081519050611fb681611d8d565b92915050565b600060208284031215611fd257611fd1611d2a565b5b6000611fe084828501611fa7565b91505092915050565b6000606082019050611ffe6000830186611ec9565b61200b6020830185611ec9565b6120186040830184611d00565b949350505050565b61202981611e93565b811461203457600080fd5b50565b60008151905061204681612020565b92915050565b60006020828403121561206257612061611d2a565b5b600061207084828501612037565b91505092915050565b600060408201905061208e6000830185611ec9565b61209b6020830184611d00565b9392505050565b7f4e487b7100000000000000000000000000000000000000000000000000000000600052604160045260246000fd5b7f4e487b7100000000000000000000000000000000000000000000000000000000600052603260045260246000fd5b6000819050919050565b6000819050919050565b600061212f61212a61212584612100565b61210a565b611cf6565b9050919050565b61213f81612114565b82525050565b600081519050919050565b600082825260208201905092915050565b6000819050602082019050919050565b61217a81611d4f565b82525050565b600061218c8383612171565b60208301905092915050565b6000602082019050919050565b60006121b082612145565b6121ba8185612150565b93506121c583612161565b8060005b838110156121f65781516121dd8882612180565b97506121e883612198565b9250506001810190506121c9565b5085935050505092915050565b60006080820190506122186000830187612136565b818103602083015261222a81866121a5565b90506122396040830185611ec9565b6122466060830184611d00565b95945050505050565b7f4e487b7100000000000000000000000000000000000000000000000000000000600052601160045260246000fd5b600061228982611cf6565b91507fffffffffffffffffffffffffffffffffffffffffffffffffffffffffffffffff82036122bb576122ba61224f565b5b600182019050919050565b7f4f776e61626c653a206e6577206f776e657220697320746865207a65726f206160008201527f6464726573730000000000000000000000000000000000000000000000000000602082015250565b6000612322602683611f2a565b915061232d826122c6565b604082019050919050565b6000602082019050818103600083015261235181612315565b9050919050565b600061236382611cf6565b915061236e83611cf6565b9250828210156123815761238061224f565b5b828203905092915050565b7f4e487b7100000000000000000000000000000000000000000000000000000000600052603160045260246000fd5b60006123c682611cf6565b91506123d183611cf6565b9250827fffffffffffffffffffffffffffffffffffffffffffffffffffffffffffffffff038211156124065761240561224f565b5b828201905092915050565b600061241c82611cf6565b915061242783611cf6565b9250817fffffffffffffffffffffffffffffffffffffffffffffffffffffffffffffffff04831182151516156124605761245f61224f565b5b828202905092915050565b7f4e487b7100000000000000000000000000000000000000000000000000000000600052601260045260246000fd5b60006124a582611cf6565b91506124b083611cf6565b9250826124c0576124bf61246b565b5b82820490509291505056fea2646970667358221220506d1ff5aae82a6876ee3fcd4037449cb7642b5a06cb18a588e130ba0fb1176f64736f6c634300080f0033",
  "immutableReferences": {},
  "source": "//SPDX-License-Identifier: MIT\npragma solidity ^0.8.0;\n\n\n/////////////////////////////////////////////////////////////////////////////////////\n//                                                                                 //\n//                 /////  ///      ////  ///       ///  ////////////  ///          //\n//              ////      ///    ///       ///    ///   ///           ///          //\n//            ////        ///  ///           /// ///    ///                        //\n//          ////          //////              /////     ////////      ///          // \n//          ////          ///                  ///      ///           ///          //\n//           ////         ///                 ///       ///           ///          //\n//             ////       ///                ///        ///           ///          //\n//               /////    ///               ///         ///           ///          //\n//                                                                                 //\n/////////////////////////////////////////////////////////////////////////////////////\n\n\n/**\n * SAFEMATH LIBRARY\n */\nlibrary SafeMath {\n    \n    function tryAdd(uint256 a, uint256 b) internal pure returns (bool, uint256) {\n        unchecked {\n            uint256 c = a + b;\n            if (c < a) return (false, 0);\n            return (true, c);\n        }\n    }\n\n    function trySub(uint256 a, uint256 b) internal pure returns (bool, uint256) {\n        unchecked {\n            if (b > a) return (false, 0);\n            return (true, a - b);\n        }\n    }\n\n    function tryMul(uint256 a, uint256 b) internal pure returns (bool, uint256) {\n        unchecked {\n            // Gas optimization: this is cheaper than requiring 'a' not being zero, but the\n            // benefit is lost if 'b' is also tested.\n            // See: https://github.com/OpenZeppelin/openzeppelin-contracts/pull/522\n            if (a == 0) return (true, 0);\n            uint256 c = a * b;\n            if (c / a != b) return (false, 0);\n            return (true, c);\n        }\n    }\n\n    function tryDiv(uint256 a, uint256 b) internal pure returns (bool, uint256) {\n        unchecked {\n            if (b == 0) return (false, 0);\n            return (true, a / b);\n        }\n    }\n\n    function tryMod(uint256 a, uint256 b) internal pure returns (bool, uint256) {\n        unchecked {\n            if (b == 0) return (false, 0);\n            return (true, a % b);\n        }\n    }\n\n    function add(uint256 a, uint256 b) internal pure returns (uint256) {\n        return a + b;\n    }\n\n    function sub(uint256 a, uint256 b) internal pure returns (uint256) {\n        return a - b;\n    }\n\n    function mul(uint256 a, uint256 b) internal pure returns (uint256) {\n        return a * b;\n    }\n\n    function div(uint256 a, uint256 b) internal pure returns (uint256) {\n        return a / b;\n    }\n\n    function mod(uint256 a, uint256 b) internal pure returns (uint256) {\n        return a % b;\n    }\n\n    function sub(uint256 a, uint256 b, string memory errorMessage) internal pure returns (uint256) {\n        unchecked {\n            require(b <= a, errorMessage);\n            return a - b;\n        }\n    }\n\n    function div(uint256 a, uint256 b, string memory errorMessage) internal pure returns (uint256) {\n        unchecked {\n            require(b > 0, errorMessage);\n            return a / b;\n        }\n    }\n\n    function mod(uint256 a, uint256 b, string memory errorMessage) internal pure returns (uint256) {\n        unchecked {\n            require(b > 0, errorMessage);\n            return a % b;\n        }\n    }\n}\n\ninterface IBEP20 {\n    function totalSupply() external view returns (uint256);\n    function decimals() external view returns (uint8);\n    function symbol() external view returns (string memory);\n    function name() external view returns (string memory);\n    function getOwner() external view returns (address);\n    function balanceOf(address account) external view returns (uint256);\n    function transfer(address recipient, uint256 amount) external returns (bool);\n    function allowance(address _owner, address spender) external view returns (uint256);\n    function approve(address spender, uint256 amount) external returns (bool);\n    function transferFrom(address sender, address recipient, uint256 amount) external returns (bool);\n    event Transfer(address indexed from, address indexed to, uint256 value);\n    event Approval(address indexed owner, address indexed spender, uint256 value);\n}\n\nabstract contract Auth {\n    address internal owner;\n    mapping (address => bool) internal authorizations;\n\n    constructor(address _owner) {\n        owner = _owner;\n        authorizations[_owner] = true;\n    }\n\n    /**\n     * Function modifier to require caller to be contract owner\n     */\n    modifier onlyOwner() {\n        require(isOwner(msg.sender), \"!OWNER\"); _;\n    }\n\n    /**\n     * Function modifier to require caller to be authorized\n     */\n    modifier authorized() {\n        require(isAuthorized(msg.sender), \"!AUTHORIZED\"); _;\n    }\n\n    /**\n     * Authorize address. Owner only\n     */\n    function authorize(address adr) public onlyOwner {\n        authorizations[adr] = true;\n    }\n\n    /**\n     * Remove address' authorization. Owner only\n     */\n    function unauthorize(address adr) public onlyOwner {\n        authorizations[adr] = false;\n    }\n\n    /**\n     * Check if address is owner\n     */\n    function isOwner(address account) public view returns (bool) {\n        return account == owner;\n    }\n\n    /**\n     * Return address' authorization status\n     */\n    function isAuthorized(address adr) public view returns (bool) {\n        return authorizations[adr];\n    }\n\n    /**\n     * Transfer ownership to new address. Caller must be owner. Leaves old owner authorized\n     */\n    function transferOwnership(address payable adr) public onlyOwner {\n        owner = adr;\n        authorizations[adr] = true;\n        emit OwnershipTransferred(adr);\n    }\n\n    event OwnershipTransferred(address owner);\n}\n\ninterface IDEXFactory {\n    function createPair(address tokenA, address tokenB) external returns (address pair);\n}\n\ninterface IDEXRouter {\n    function factory() external pure returns (address);\n    function WETH() external pure returns (address);\n\n    function addLiquidity(\n        address tokenA,\n        address tokenB,\n        uint amountADesired,\n        uint amountBDesired,\n        uint amountAMin,\n        uint amountBMin,\n        address to,\n        uint deadline\n    ) external returns (uint amountA, uint amountB, uint liquidity);\n\n    function addLiquidityETH(\n        address token,\n        uint amountTokenDesired,\n        uint amountTokenMin,\n        uint amountETHMin,\n        address to,\n        uint deadline\n    ) external payable returns (uint amountToken, uint amountETH, uint liquidity);\n\n    function swapExactTokensForTokensSupportingFeeOnTransferTokens(\n        uint amountIn,\n        uint amountOutMin,\n        address[] calldata path,\n        address to,\n        uint deadline\n    ) external;\n\n    function swapExactETHForTokensSupportingFeeOnTransferTokens(\n        uint amountOutMin,\n        address[] calldata path,\n        address to,\n        uint deadline\n    ) external payable;\n\n    function swapExactTokensForETHSupportingFeeOnTransferTokens(\n        uint amountIn,\n        uint amountOutMin,\n        address[] calldata path,\n        address to,\n        uint deadline\n    ) external;\n}\n\ninterface IDividendDistributor {\n    function setDistributionCriteria(uint256 _minPeriod, uint256 _minDistribution) external;\n    function setShare(address shareholder, uint256 amount) external;\n    function deposit() external payable;\n    function manualDeposit(uint256 amount) external;\n    function process(uint256 gas) external;\n    function manualProcess(uint256 gas) external;\n}\n\ncontract DividendDistributor is IDividendDistributor{\n    using SafeMath for uint256;\n\n    address _token;\n    address private _owner;\n\n    event OwnershipTransferred(address indexed previousOwner, address indexed newOwner);\n\n    struct Share {\n        uint256 amount;\n        uint256 totalExcluded;\n        uint256 totalRealised;\n    }\n\n    IBEP20 BUSD = IBEP20(0x78867BbEeF44f2326bF8DDd1941a4439382EF2A7);\n    address WBNB = 0xae13d989daC2f0dEbFf460aC112a837C89BAa7cd;\n    IDEXRouter router;\n\n    address[] shareholders;\n    mapping (address => uint256) shareholderIndexes;\n    mapping (address => uint256) shareholderClaims;\n\n    mapping (address => Share) public shares;\n\n    uint256 public totalShares;\n    uint256 public totalDividends;\n    uint256 public totalDistributed;\n    uint256 public dividendsPerShare;\n    uint256 public dividendsPerShareAccuracyFactor = 10 ** 36;\n\n    uint256 public minPeriod = 1 hours;\n    uint256 public minDistribution = 0;\n\n    uint256 currentIndex;\n\n    bool initialized;\n    modifier initialization() {\n        require(!initialized);\n        _;\n        initialized = true;\n    }\n    modifier onlyOwner() {\n        require(getOwner() == msg.sender, \"Ownable: caller is not the owner\");\n        _;\n    }\n    modifier onlyToken() {\n        require(msg.sender == _token); _;\n    }\n\n    constructor (address _router,address owner) {\n        router = _router != address(0)\n        ? IDEXRouter(_router)\n        : IDEXRouter(0x10ED43C718714eb63d5aA57B78B54704E256024E);\n        _token = msg.sender;\n        _owner = owner;\n    }\n    \n    receive() external payable { }\n\n    function getOwner() public view virtual returns (address) {\n        return _owner;\n    }\n\n    function transferOwnership(address newOwner) public virtual onlyOwner {\n        require(newOwner != address(0), \"Ownable: new owner is the zero address\");\n        address oldOwner = _owner;\n        _owner = newOwner;\n        emit OwnershipTransferred(oldOwner, newOwner);\n    }\n\n    function setDistributionCriteria(uint256 _minPeriod, uint256 _minDistribution) external override onlyOwner {\n        minPeriod = _minPeriod;\n        minDistribution = _minDistribution;\n    }\n\n    function setShare(address shareholder, uint256 amount) external override onlyToken {\n        if(shares[shareholder].amount > 0){\n            distributeDividend(shareholder);\n        }\n\n        if(amount > 0 && shares[shareholder].amount == 0){\n            addShareholder(shareholder);\n        }else if(amount == 0 && shares[shareholder].amount > 0){\n            removeShareholder(shareholder);\n        }\n\n        totalShares = totalShares.sub(shares[shareholder].amount).add(amount);\n        shares[shareholder].amount = amount;\n        shares[shareholder].totalExcluded = getCumulativeDividends(shares[shareholder].amount);\n    }\n\n    function deposit() external payable override onlyToken {\n        uint256 balanceBefore = BUSD.balanceOf(address(this));\n\n        address[] memory path = new address[](2);\n        path[0] = WBNB;\n        path[1] = address(BUSD);\n\n        router.swapExactETHForTokensSupportingFeeOnTransferTokens{value: msg.value}(\n            0,\n            path,\n            address(this),\n            block.timestamp\n        );\n\n        uint256 amount = BUSD.balanceOf(address(this)).sub(balanceBefore);\n\n        totalDividends = totalDividends.add(amount);\n        dividendsPerShare = dividendsPerShare.add(dividendsPerShareAccuracyFactor.mul(amount).div(totalShares));\n    }\n    \n    function manualDeposit(uint256 BUSDAmount) external override onlyOwner {\n        uint256 balanceBefore = BUSD.balanceOf(address(this));\n\n        BUSD.transferFrom(msg.sender, address(this), BUSDAmount);\n\n        uint256 amount = BUSD.balanceOf(address(this)).sub(balanceBefore);\n        totalDividends = totalDividends.add(amount);\n        dividendsPerShare = dividendsPerShare.add(dividendsPerShareAccuracyFactor.mul(amount).div(totalShares));\n    }\n\n    function process(uint256 gas) external override onlyToken {\n        uint256 shareholderCount = shareholders.length;\n\n        if(shareholderCount == 0) { return; }\n\n        uint256 gasUsed = 0;\n        uint256 gasLeft = gasleft();\n\n        uint256 iterations = 0;\n\n        while(gasUsed < gas && iterations < shareholderCount) {\n            if(currentIndex >= shareholderCount){\n                currentIndex = 0;\n            }\n\n            if(shouldDistribute(shareholders[currentIndex])){\n                distributeDividend(shareholders[currentIndex]);\n            }\n\n            gasUsed = gasUsed.add(gasLeft.sub(gasleft()));\n            gasLeft = gasleft();\n            currentIndex++;\n            iterations++;\n        }\n    }\n\n    function manualProcess(uint256 gas) external override onlyOwner {\n        uint256 shareholderCount = shareholders.length;\n\n        if(shareholderCount == 0) { return; }\n\n        uint256 gasUsed = 0;\n        uint256 gasLeft = gasleft();\n\n        uint256 iterations = 0;\n\n        while(gasUsed < gas && iterations < shareholderCount) {\n            if(currentIndex >= shareholderCount){\n                currentIndex = 0;\n            }\n\n            if(shouldDistribute(shareholders[currentIndex])){\n                distributeDividend(shareholders[currentIndex]);\n            }\n\n            gasUsed = gasUsed.add(gasLeft.sub(gasleft()));\n            gasLeft = gasleft();\n            currentIndex++;\n            iterations++;\n        }\n    } \n    function shouldDistribute(address shareholder) internal view returns (bool) {\n        return shareholderClaims[shareholder] + minPeriod < block.timestamp\n        && getUnpaidEarnings(shareholder) > minDistribution;\n    }\n\n    function distributeDividend(address shareholder) internal {\n        if(shares[shareholder].amount == 0){ return; }\n\n        uint256 amount = getUnpaidEarnings(shareholder);\n        if(amount > 0){\n            totalDistributed = totalDistributed.add(amount);\n            BUSD.transfer(shareholder, amount);\n            shareholderClaims[shareholder] = block.timestamp;\n            shares[shareholder].totalRealised = shares[shareholder].totalRealised.add(amount);\n            shares[shareholder].totalExcluded = getCumulativeDividends(shares[shareholder].amount);\n        }\n    }\n\n    function claimDividend() external {\n        distributeDividend(msg.sender);\n    }\n\n    function getUnpaidEarnings(address shareholder) public view returns (uint256) {\n        if(shares[shareholder].amount == 0){ return 0; }\n\n        uint256 shareholderTotalDividends = getCumulativeDividends(shares[shareholder].amount);\n        uint256 shareholderTotalExcluded = shares[shareholder].totalExcluded;\n\n        if(shareholderTotalDividends <= shareholderTotalExcluded){ return 0; }\n\n        return shareholderTotalDividends.sub(shareholderTotalExcluded);\n    }\n\n    function getCumulativeDividends(uint256 share) internal view returns (uint256) {\n        return share.mul(dividendsPerShare).div(dividendsPerShareAccuracyFactor);\n    }\n\n    function addShareholder(address shareholder) internal {\n        shareholderIndexes[shareholder] = shareholders.length;\n        shareholders.push(shareholder);\n    }\n\n    function removeShareholder(address shareholder) internal {\n        shareholders[shareholderIndexes[shareholder]] = shareholders[shareholders.length-1];\n        shareholderIndexes[shareholders[shareholders.length-1]] = shareholderIndexes[shareholder];\n        shareholders.pop();\n    }\n\n    function clearDividenStuckBalance(address _receiver) external onlyOwner {\n        uint256 balance = address(this).balance;\n        payable(_receiver).transfer(balance);\n    }\n\n    function rescueDistrbuterToken(address tokenAddress, uint256 tokens) external onlyOwner returns (bool success){\n        return IBEP20(tokenAddress).transfer(msg.sender, tokens);\n    }\n\n}\n\ncontract CryFiToken is IBEP20, Auth {\n    using SafeMath for uint256;\n\n    uint256 public constant MASK = type(uint128).max;\n    address BUSD = 0x78867BbEeF44f2326bF8DDd1941a4439382EF2A7;\n    address public WBNB = 0xae13d989daC2f0dEbFf460aC112a837C89BAa7cd;\n    address DEAD = 0x000000000000000000000000000000000000dEaD;\n    address ZERO = 0x0000000000000000000000000000000000000000;\n    address DEAD_NON_CHECKSUM = 0x000000000000000000000000000000000000dEaD;\n\n    string constant _name = \"CryFi Earn\";\n    string constant _symbol = \"CRYFI\";\n    uint8 constant _decimals = 9;\n\n    uint256 _totalSupply = 1_000_000_000_000_000 * (10 ** _decimals);\n    uint256 public _maxTxAmount = _totalSupply.div(800); // 0.125%\n\n    mapping (address => uint256) _balances;\n    mapping (address => mapping (address => uint256)) _allowances;\n\n    mapping (address => bool) isFeeExempt;\n    mapping (address => bool) isTxLimitExempt;\n    mapping (address => bool) isDividendExempt;\n\n    uint256 liquidityFee = 100;\n    uint256 buybackFee = 100;\n    uint256 reflectionFee = 800;\n    uint256 marketingFee = 400;\n    uint256 totalFee = 1400;\n    uint256 feeDenominator = 10000;\n\n    address public autoLiquidityReceiver;\n    address public marketingFeeReceiver;\n\n    uint256 targetLiquidity = 25;\n    uint256 targetLiquidityDenominator = 100;\n\n    IDEXRouter public router;\n    address public pair;\n\n    uint256 public launchedAt;\n    uint256 public launchedAtTimestamp;\n\n    uint256 buybackMultiplierNumerator = 200;\n    uint256 buybackMultiplierDenominator = 100;\n    uint256 buybackMultiplierTriggeredAt;\n    uint256 buybackMultiplierLength = 30 minutes;\n\n    bool public autoBuybackEnabled = false;\n    mapping (address => bool) buyBacker;\n    uint256 autoBuybackCap;\n    uint256 autoBuybackAccumulator;\n    uint256 autoBuybackAmount;\n    uint256 autoBuybackBlockPeriod;\n    uint256 autoBuybackBlockLast;\n\n    DividendDistributor distributor;\n    address public distributorAddress;\n\n    uint256 distributorGas = 500000;\n\n    bool public swapEnabled = true;\n    uint256 public swapThreshold = _totalSupply / 2000; // 0.005%\n    bool inSwap;\n    modifier swapping() { inSwap = true; _; inSwap = false; }\n\n    constructor (\n        address _dexRouter\n    ) Auth(msg.sender) {\n        router = IDEXRouter(_dexRouter);\n        pair = IDEXFactory(router.factory()).createPair(WBNB, address(this));\n        _allowances[address(this)][address(router)] = _totalSupply;\n        WBNB = router.WETH();\n        distributor = new DividendDistributor(_dexRouter, msg.sender);\n        distributorAddress = address(distributor);\n\n        isFeeExempt[msg.sender] = true;\n        isTxLimitExempt[msg.sender] = true;\n        isDividendExempt[pair] = true;\n        isDividendExempt[address(this)] = true;\n        isDividendExempt[DEAD] = true;\n        buyBacker[msg.sender] = true;\n\n        autoLiquidityReceiver = msg.sender;\n        marketingFeeReceiver = msg.sender;\n\n        approve(_dexRouter, _totalSupply);\n        approve(address(pair), _totalSupply);\n        _balances[msg.sender] = _totalSupply;\n        emit Transfer(address(0), msg.sender, _totalSupply);\n    }\n\n    receive() external payable { }\n\n    function totalSupply() external view override returns (uint256) { return _totalSupply; }\n    function decimals() external pure override returns (uint8) { return _decimals; }\n    function symbol() external pure override returns (string memory) { return _symbol; }\n    function name() external pure override returns (string memory) { return _name; }\n    function getOwner() external view override returns (address) { return owner; }\n    modifier onlyBuybacker() { require(buyBacker[msg.sender] == true, \"\"); _; }\n    function balanceOf(address account) public view override returns (uint256) { return _balances[account]; }\n    function allowance(address holder, address spender) external view override returns (uint256) { return _allowances[holder][spender]; }\n\n    function approve(address spender, uint256 amount) public override returns (bool) {\n        _allowances[msg.sender][spender] = amount;\n        emit Approval(msg.sender, spender, amount);\n        return true;\n    }\n\n    function approveMax(address spender) external returns (bool) {\n        return approve(spender, _totalSupply);\n    }\n\n    function transfer(address recipient, uint256 amount) external override returns (bool) {\n        return _transferFrom(msg.sender, recipient, amount);\n    }\n\n    function transferFrom(address sender, address recipient, uint256 amount) external override returns (bool) {\n        if(_allowances[sender][msg.sender] != _totalSupply){\n            _allowances[sender][msg.sender] = _allowances[sender][msg.sender].sub(amount, \"Insufficient Allowance\");\n        }\n\n        return _transferFrom(sender, recipient, amount);\n    }\n\n    function _transferFrom(address sender, address recipient, uint256 amount) internal returns (bool) {\n        if(inSwap){ return _basicTransfer(sender, recipient, amount); }\n\n        checkTxLimit(sender, amount);\n        //\n        if(shouldSwapBack()){ swapBack(); }\n        if(shouldAutoBuyback()){ triggerAutoBuyback(); }\n\n        //        if(!launched() && recipient == pair){ require(_balances[sender] > 0); launch(); }\n\n        _balances[sender] = _balances[sender].sub(amount, \"Insufficient Balance\");\n\n        uint256 amountReceived = shouldTakeFee(sender) ? takeFee(sender, recipient, amount) : amount;\n\n        _balances[recipient] = _balances[recipient].add(amountReceived);\n\n        if(!isDividendExempt[sender]){ try distributor.setShare(sender, _balances[sender]) {} catch {} }\n        if(!isDividendExempt[recipient]){ try distributor.setShare(recipient, _balances[recipient]) {} catch {} }\n\n        try distributor.process(distributorGas) {} catch {}\n\n        emit Transfer(sender, recipient, amountReceived);\n        return true;\n    }\n\n    function _basicTransfer(address sender, address recipient, uint256 amount) internal returns (bool) {\n        _balances[sender] = _balances[sender].sub(amount, \"Insufficient Balance\");\n        _balances[recipient] = _balances[recipient].add(amount);\n        emit Transfer(sender, recipient, amount);\n        return true;\n    }\n\n\n\n    function checkTxLimit(address sender, uint256 amount) internal view {\n        require(amount <= _maxTxAmount || isTxLimitExempt[sender], \"TX Limit Exceeded\");\n    }\n\n    function shouldTakeFee(address sender) internal view returns (bool) {\n        return !isFeeExempt[sender];\n    }\n\n    function getTotalFee(bool selling) public view returns (uint256) {\n        if(launchedAt + 1 >= block.number){ return feeDenominator.sub(1); }\n        if(selling){ return getMultipliedFee(); }\n        return totalFee;\n    }\n\n    function getMultipliedFee() public view returns (uint256) {\n        if (launchedAtTimestamp + 1 days > block.timestamp) {\n            return totalFee.mul(18000).div(feeDenominator);\n        } else if (buybackMultiplierTriggeredAt.add(buybackMultiplierLength) > block.timestamp) {\n            uint256 remainingTime = buybackMultiplierTriggeredAt.add(buybackMultiplierLength).sub(block.timestamp);\n            uint256 feeIncrease = totalFee.mul(buybackMultiplierNumerator).div(buybackMultiplierDenominator).sub(totalFee);\n            return totalFee.add(feeIncrease.mul(remainingTime).div(buybackMultiplierLength));\n        }\n        return totalFee;\n    }\n\n    function takeFee(address sender, address receiver, uint256 amount) internal returns (uint256) {\n        uint256 feeAmount = amount.mul(getTotalFee(receiver == pair)).div(feeDenominator);\n\n        _balances[address(this)] = _balances[address(this)].add(feeAmount);\n        emit Transfer(sender, address(this), feeAmount);\n\n        return amount.sub(feeAmount);\n    }\n\n    function shouldSwapBack() internal view returns (bool) {\n        return msg.sender != pair\n        && !inSwap\n        && swapEnabled\n        && _balances[address(this)] >= swapThreshold;\n    }\n\n    function swapBack() internal swapping {\n        uint256 dynamicLiquidityFee = isOverLiquified(targetLiquidity, targetLiquidityDenominator) ? 0 : liquidityFee;\n        uint256 amountToLiquify = swapThreshold.mul(dynamicLiquidityFee).div(totalFee).div(2);\n        uint256 amountToSwap = swapThreshold.sub(amountToLiquify);\n\n        address[] memory path = new address[](2);\n        path[0] = address(this);\n        path[1] = WBNB;\n        uint256 balanceBefore = address(this).balance;\n\n        router.swapExactTokensForETHSupportingFeeOnTransferTokens(\n            amountToSwap,\n            0,\n            path,\n            address(this),\n            block.timestamp\n        );\n\n        uint256 amountBNB = address(this).balance.sub(balanceBefore);\n\n        uint256 totalBNBFee = totalFee.sub(dynamicLiquidityFee.div(2));\n\n        uint256 amountBNBLiquidity = amountBNB.mul(dynamicLiquidityFee).div(totalBNBFee).div(2);\n        uint256 amountBNBReflection = amountBNB.mul(reflectionFee).div(totalBNBFee);\n        uint256 amountBNBMarketing = amountBNB.mul(marketingFee).div(totalBNBFee);\n\n        try distributor.deposit{value: amountBNBReflection}() {} catch {}\n        payable(marketingFeeReceiver).transfer(amountBNBMarketing);\n            \n        \n\n        if(amountToLiquify > 0){\n            router.addLiquidityETH{value: amountBNBLiquidity}(\n                address(this),\n                amountToLiquify,\n                0,\n                0,\n                autoLiquidityReceiver,\n                block.timestamp\n            );\n            emit AutoLiquify(amountBNBLiquidity, amountToLiquify);\n        }\n    }\n\n    function shouldAutoBuyback() internal view returns (bool) {\n        return msg.sender != pair\n        && !inSwap\n        && autoBuybackEnabled\n        && autoBuybackBlockLast + autoBuybackBlockPeriod <= block.number // After N blocks from last buyback\n        && address(this).balance >= autoBuybackAmount;\n    }\n\n    function triggerZeusBuyback(uint256 amount, bool triggerBuybackMultiplier) external authorized {\n        buyTokens(amount, DEAD);\n        if(triggerBuybackMultiplier){\n            buybackMultiplierTriggeredAt = block.timestamp;\n            emit BuybackMultiplierActive(buybackMultiplierLength);\n        }\n    }\n\n    function clearBuybackMultiplier() external authorized {\n        buybackMultiplierTriggeredAt = 0;\n    }\n\n    function triggerAutoBuyback() internal {\n        buyTokens(autoBuybackAmount, DEAD);\n        autoBuybackBlockLast = block.number;\n        autoBuybackAccumulator = autoBuybackAccumulator.add(autoBuybackAmount);\n        if(autoBuybackAccumulator > autoBuybackCap){ autoBuybackEnabled = false; }\n    }\n\n    function buyTokens(uint256 amount, address to) internal swapping {\n        address[] memory path = new address[](2);\n        path[0] = WBNB;\n        path[1] = address(this);\n\n        router.swapExactETHForTokensSupportingFeeOnTransferTokens{value: amount}(\n            0,\n            path,\n            to,\n            block.timestamp\n        );\n    }\n\n    function setAutoBuybackSettings(bool _enabled, uint256 _cap, uint256 _amount, uint256 _period) external authorized {\n        autoBuybackEnabled = _enabled;\n        autoBuybackCap = _cap;\n        autoBuybackAccumulator = 0;\n        autoBuybackAmount = _amount;\n        autoBuybackBlockPeriod = _period;\n        autoBuybackBlockLast = block.number;\n    }\n\n    function setBuybackMultiplierSettings(uint256 numerator, uint256 denominator, uint256 length) external authorized {\n        require(numerator / denominator <= 2 && numerator > denominator);\n        buybackMultiplierNumerator = numerator;\n        buybackMultiplierDenominator = denominator;\n        buybackMultiplierLength = length;\n    }\n\n    function launched() internal view returns (bool) {\n        return launchedAt != 0;\n    }\n\n    function launch() public authorized {\n        require(launchedAt == 0, \"Already launched boi\");\n        launchedAt = block.number;\n        launchedAtTimestamp = block.timestamp;\n    }\n\n    function setTxLimit(uint256 amount) external authorized {\n        _maxTxAmount = amount;\n    }\n\n    function clearStuckBalance(address _receiver) external authorized {\n        uint256 balance = address(this).balance;\n        payable(_receiver).transfer(balance);\n    }\n\n    function rescueToken(address tokenAddress, uint256 tokens) external authorized returns (bool success){\n        return IBEP20(tokenAddress).transfer(msg.sender, tokens);\n    }\n\n    function setIsDividendExempt(address holder, bool exempt) external authorized {\n        require(holder != address(this) && holder != pair);\n        isDividendExempt[holder] = exempt;\n        if(exempt){\n            distributor.setShare(holder, 0);\n        }else{\n            distributor.setShare(holder, _balances[holder]);\n        }\n    }\n\n    function setIsFeeExempt(address holder, bool exempt) external authorized {\n        isFeeExempt[holder] = exempt;\n    }\n\n    function setIsTxLimitExempt(address holder, bool exempt) external authorized {\n        isTxLimitExempt[holder] = exempt;\n    }\n\n    function setFees(uint256 _liquidityFee, uint256 _buybackFee, uint256 _reflectionFee, uint256 _marketingFee, uint256 _feeDenominator) external authorized {\n        liquidityFee = _liquidityFee;\n        buybackFee = _buybackFee;\n        reflectionFee = _reflectionFee;\n        marketingFee = _marketingFee;\n        totalFee = _liquidityFee.add(_buybackFee).add(_reflectionFee).add(_marketingFee);\n        feeDenominator = _feeDenominator;\n        require(totalFee < feeDenominator/4);\n    }\n\n    function setFeeReceivers(address _autoLiquidityReceiver, address _marketingFeeReceiver) external authorized {\n        autoLiquidityReceiver = _autoLiquidityReceiver;\n        marketingFeeReceiver = _marketingFeeReceiver;\n    }\n\n    function setSwapBackSettings(bool _enabled, uint256 _amount) external authorized {\n        swapEnabled = _enabled;\n        swapThreshold = _amount;\n    }\n\n    function setTargetLiquidity(uint256 _target, uint256 _denominator) external authorized {\n        targetLiquidity = _target;\n        targetLiquidityDenominator = _denominator;\n    }\n\n    function setDistributorSettings(uint256 gas) external authorized {\n        require(gas < 750000);\n        distributorGas = gas;\n    }\n\n    function getCirculatingSupply() public view returns (uint256) {\n        return _totalSupply.sub(balanceOf(DEAD)).sub(balanceOf(ZERO));\n    }\n\n    function getLiquidityBacking(uint256 accuracy) public view returns (uint256) {\n        return accuracy.mul(balanceOf(pair).mul(2)).div(getCirculatingSupply());\n    }\n\n    function isOverLiquified(uint256 target, uint256 accuracy) public view returns (bool) {\n        return getLiquidityBacking(accuracy) > target;\n    }\n\n    event AutoLiquify(uint256 amountBNB, uint256 amountBOG);\n    event BuybackMultiplierActive(uint256 duration);\n}",
  "sourcePath": "/home/matarwy/Documents/GitHub/CryFi-Smart-Contracts/contracts/CryFi.sol",
  "compiler": {
    "name": "solc",
    "version": "0.8.15+commit.e14f2714.Emscripten.clang"
  },
  "schemaVersion": "3.4.8",
  "updatedAt": "2022-07-24T22:57:28.083Z",
  "devdoc": {
    "kind": "dev",
    "methods": {},
    "version": 1
  },
  "userdoc": {
    "kind": "user",
    "methods": {},
    "version": 1
  }
}